{
	"contracts/myBLCtoken.sol": {
		"SimpleVoting": {
			"abi": [
				{
					"inputs": [
						{
							"internalType": "string[]",
							"name": "candidateNames",
							"type": "string[]"
						}
					],
					"stateMutability": "nonpayable",
					"type": "constructor"
				},
				{
					"anonymous": false,
					"inputs": [
						{
							"indexed": false,
							"internalType": "address",
							"name": "voter",
							"type": "address"
						},
						{
							"indexed": false,
							"internalType": "string",
							"name": "candidate",
							"type": "string"
						}
					],
					"name": "VoteCast",
					"type": "event"
				},
				{
					"inputs": [
						{
							"internalType": "uint256",
							"name": "",
							"type": "uint256"
						}
					],
					"name": "candidates",
					"outputs": [
						{
							"internalType": "string",
							"name": "",
							"type": "string"
						}
					],
					"stateMutability": "view",
					"type": "function"
				},
				{
					"inputs": [
						{
							"internalType": "string",
							"name": "_candidate",
							"type": "string"
						}
					],
					"name": "castVote",
					"outputs": [],
					"stateMutability": "nonpayable",
					"type": "function"
				},
				{
					"inputs": [],
					"name": "endVotingPeriod",
					"outputs": [],
					"stateMutability": "pure",
					"type": "function"
				},
				{
					"inputs": [],
					"name": "getWinner",
					"outputs": [
						{
							"internalType": "string",
							"name": "",
							"type": "string"
						}
					],
					"stateMutability": "view",
					"type": "function"
				},
				{
					"inputs": [
						{
							"internalType": "address",
							"name": "",
							"type": "address"
						}
					],
					"name": "hasVoted",
					"outputs": [
						{
							"internalType": "bool",
							"name": "",
							"type": "bool"
						}
					],
					"stateMutability": "view",
					"type": "function"
				},
				{
					"inputs": [
						{
							"internalType": "string",
							"name": "",
							"type": "string"
						}
					],
					"name": "votes",
					"outputs": [
						{
							"internalType": "uint256",
							"name": "",
							"type": "uint256"
						}
					],
					"stateMutability": "view",
					"type": "function"
				}
			],
			"devdoc": {
				"kind": "dev",
				"methods": {},
				"version": 1
			},
			"evm": {
				"assembly": "    /* \"contracts/myBLCtoken.sol\":57:2203  contract SimpleVoting {... */\n  mstore(0x40, 0x80)\n    /* \"contracts/myBLCtoken.sol\":481:675  constructor(string[] memory candidateNames) {... */\n  callvalue\n  dup1\n  iszero\n  tag_1\n  jumpi\n  0x00\n  dup1\n  revert\ntag_1:\n  pop\n  mload(0x40)\n  sub(codesize, bytecodeSize)\n  dup1\n  bytecodeSize\n  dup4\n  codecopy\n  dup2\n  dup2\n  add\n  0x40\n  mstore\n  dup2\n  add\n  swap1\n  tag_2\n  swap2\n  swap1\n  tag_3\n  jump\t// in\ntag_2:\n    /* \"contracts/myBLCtoken.sol\":548:562  candidateNames */\n  dup1\n    /* \"contracts/myBLCtoken.sol\":535:545  candidates */\n  0x01\n    /* \"contracts/myBLCtoken.sol\":535:562  candidates = candidateNames */\n  swap1\n  dup1\n  mload\n  swap1\n  0x20\n  add\n  swap1\n  tag_6\n  swap3\n  swap2\n  swap1\n  tag_7\n  jump\t// in\ntag_6:\n  pop\n    /* \"contracts/myBLCtoken.sol\":577:586  uint256 i */\n  0x00\n    /* \"contracts/myBLCtoken.sol\":572:669  for (uint256 i = 0; i < candidates.length; i++) {... */\ntag_8:\n    /* \"contracts/myBLCtoken.sol\":596:606  candidates */\n  0x01\n    /* \"contracts/myBLCtoken.sol\":596:613  candidates.length */\n  dup1\n  sload\n  swap1\n  pop\n    /* \"contracts/myBLCtoken.sol\":592:593  i */\n  dup2\n    /* \"contracts/myBLCtoken.sol\":592:613  i < candidates.length */\n  lt\n    /* \"contracts/myBLCtoken.sol\":572:669  for (uint256 i = 0; i < candidates.length; i++) {... */\n  iszero\n  tag_9\n  jumpi\n    /* \"contracts/myBLCtoken.sol\":657:658  0 */\n  0x00\n    /* \"contracts/myBLCtoken.sol\":634:639  votes */\n  dup1\n    /* \"contracts/myBLCtoken.sol\":640:650  candidates */\n  0x01\n    /* \"contracts/myBLCtoken.sol\":651:652  i */\n  dup4\n    /* \"contracts/myBLCtoken.sol\":640:653  candidates[i] */\n  dup2\n  sload\n  dup2\n  lt\n  tag_11\n  jumpi\n  tag_12\n  tag_13\n  jump\t// in\ntag_12:\ntag_11:\n  swap1\n  0x00\n  mstore\n  keccak256(0x00, 0x20)\n  add\n    /* \"contracts/myBLCtoken.sol\":634:654  votes[candidates[i]] */\n  mload(0x40)\n  tag_15\n  swap2\n  swap1\n  tag_16\n  jump\t// in\ntag_15:\n  swap1\n  dup2\n  mstore\n  0x20\n  add\n  mload(0x40)\n  dup1\n  swap2\n  sub\n  swap1\n  keccak256\n    /* \"contracts/myBLCtoken.sol\":634:658  votes[candidates[i]] = 0 */\n  dup2\n  swap1\n  sstore\n  pop\n    /* \"contracts/myBLCtoken.sol\":615:618  i++ */\n  dup1\n  dup1\n  0x01\n  add\n  swap2\n  pop\n  pop\n    /* \"contracts/myBLCtoken.sol\":572:669  for (uint256 i = 0; i < candidates.length; i++) {... */\n  jump(tag_8)\ntag_9:\n  pop\n    /* \"contracts/myBLCtoken.sol\":481:675  constructor(string[] memory candidateNames) {... */\n  pop\n    /* \"contracts/myBLCtoken.sol\":57:2203  contract SimpleVoting {... */\n  jump(tag_17)\ntag_7:\n  dup3\n  dup1\n  sload\n  dup3\n  dup3\n  sstore\n  swap1\n  0x00\n  mstore\n  keccak256(0x00, 0x20)\n  swap1\n  dup2\n  add\n  swap3\n  dup3\n  iszero\n  tag_18\n  jumpi\n  swap2\n  0x20\n  mul\n  dup3\n  add\ntag_19:\n  dup3\n  dup2\n  gt\n  iszero\n  tag_20\n  jumpi\n  dup3\n  mload\n  dup3\n  swap1\n  dup2\n  tag_21\n  swap2\n  swap1\n  tag_22\n  jump\t// in\ntag_21:\n  pop\n  swap2\n  0x20\n  add\n  swap2\n  swap1\n  0x01\n  add\n  swap1\n  jump(tag_19)\ntag_20:\ntag_18:\n  pop\n  swap1\n  pop\n  tag_23\n  swap2\n  swap1\n  tag_24\n  jump\t// in\ntag_23:\n  pop\n  swap1\n  jump\t// out\ntag_24:\ntag_25:\n  dup1\n  dup3\n  gt\n  iszero\n  tag_26\n  jumpi\n  0x00\n  dup2\n  dup2\n  tag_27\n  swap2\n  swap1\n  tag_28\n  jump\t// in\ntag_27:\n  pop\n  0x01\n  add\n  jump(tag_25)\ntag_26:\n  pop\n  swap1\n  jump\t// out\ntag_28:\n  pop\n  dup1\n  sload\n  tag_29\n  swap1\n  tag_30\n  jump\t// in\ntag_29:\n  0x00\n  dup3\n  sstore\n  dup1\n  0x1f\n  lt\n  tag_32\n  jumpi\n  pop\n  jump(tag_31)\ntag_32:\n  0x1f\n  add\n  0x20\n  swap1\n  div\n  swap1\n  0x00\n  mstore\n  keccak256(0x00, 0x20)\n  swap1\n  dup2\n  add\n  swap1\n  tag_33\n  swap2\n  swap1\n  tag_34\n  jump\t// in\ntag_33:\ntag_31:\n  pop\n  jump\t// out\ntag_34:\ntag_35:\n  dup1\n  dup3\n  gt\n  iszero\n  tag_36\n  jumpi\n  0x00\n  dup2\n  0x00\n  swap1\n  sstore\n  pop\n  0x01\n  add\n  jump(tag_35)\ntag_36:\n  pop\n  swap1\n  jump\t// out\n    /* \"#utility.yul\":7:82   */\ntag_37:\n    /* \"#utility.yul\":40:46   */\n  0x00\n    /* \"#utility.yul\":73:75   */\n  0x40\n    /* \"#utility.yul\":67:76   */\n  mload\n    /* \"#utility.yul\":57:76   */\n  swap1\n  pop\n    /* \"#utility.yul\":7:82   */\n  swap1\n  jump\t// out\n    /* \"#utility.yul\":88:205   */\ntag_38:\n    /* \"#utility.yul\":197:198   */\n  0x00\n    /* \"#utility.yul\":194:195   */\n  dup1\n    /* \"#utility.yul\":187:199   */\n  revert\n    /* \"#utility.yul\":211:328   */\ntag_39:\n    /* \"#utility.yul\":320:321   */\n  0x00\n    /* \"#utility.yul\":317:318   */\n  dup1\n    /* \"#utility.yul\":310:322   */\n  revert\n    /* \"#utility.yul\":334:451   */\ntag_40:\n    /* \"#utility.yul\":443:444   */\n  0x00\n    /* \"#utility.yul\":440:441   */\n  dup1\n    /* \"#utility.yul\":433:445   */\n  revert\n    /* \"#utility.yul\":457:559   */\ntag_41:\n    /* \"#utility.yul\":498:504   */\n  0x00\n    /* \"#utility.yul\":549:551   */\n  0x1f\n    /* \"#utility.yul\":545:552   */\n  not\n    /* \"#utility.yul\":540:542   */\n  0x1f\n    /* \"#utility.yul\":533:538   */\n  dup4\n    /* \"#utility.yul\":529:543   */\n  add\n    /* \"#utility.yul\":525:553   */\n  and\n    /* \"#utility.yul\":515:553   */\n  swap1\n  pop\n    /* \"#utility.yul\":457:559   */\n  swap2\n  swap1\n  pop\n  jump\t// out\n    /* \"#utility.yul\":565:745   */\ntag_42:\n    /* \"#utility.yul\":613:690   */\n  0x4e487b7100000000000000000000000000000000000000000000000000000000\n    /* \"#utility.yul\":610:611   */\n  0x00\n    /* \"#utility.yul\":603:691   */\n  mstore\n    /* \"#utility.yul\":710:714   */\n  0x41\n    /* \"#utility.yul\":707:708   */\n  0x04\n    /* \"#utility.yul\":700:715   */\n  mstore\n    /* \"#utility.yul\":734:738   */\n  0x24\n    /* \"#utility.yul\":731:732   */\n  0x00\n    /* \"#utility.yul\":724:739   */\n  revert\n    /* \"#utility.yul\":751:1032   */\ntag_43:\n    /* \"#utility.yul\":834:861   */\n  tag_82\n    /* \"#utility.yul\":856:860   */\n  dup3\n    /* \"#utility.yul\":834:861   */\n  tag_41\n  jump\t// in\ntag_82:\n    /* \"#utility.yul\":826:832   */\n  dup2\n    /* \"#utility.yul\":822:862   */\n  add\n    /* \"#utility.yul\":964:970   */\n  dup2\n    /* \"#utility.yul\":952:962   */\n  dup2\n    /* \"#utility.yul\":949:971   */\n  lt\n    /* \"#utility.yul\":928:946   */\n  0xffffffffffffffff\n    /* \"#utility.yul\":916:926   */\n  dup3\n    /* \"#utility.yul\":913:947   */\n  gt\n    /* \"#utility.yul\":910:972   */\n  or\n    /* \"#utility.yul\":907:995   */\n  iszero\n  tag_83\n  jumpi\n    /* \"#utility.yul\":975:993   */\n  tag_84\n  tag_42\n  jump\t// in\ntag_84:\n    /* \"#utility.yul\":907:995   */\ntag_83:\n    /* \"#utility.yul\":1015:1025   */\n  dup1\n    /* \"#utility.yul\":1011:1013   */\n  0x40\n    /* \"#utility.yul\":1004:1026   */\n  mstore\n    /* \"#utility.yul\":794:1032   */\n  pop\n    /* \"#utility.yul\":751:1032   */\n  pop\n  pop\n  jump\t// out\n    /* \"#utility.yul\":1038:1167   */\ntag_44:\n    /* \"#utility.yul\":1072:1078   */\n  0x00\n    /* \"#utility.yul\":1099:1119   */\n  tag_86\n  tag_37\n  jump\t// in\ntag_86:\n    /* \"#utility.yul\":1089:1119   */\n  swap1\n  pop\n    /* \"#utility.yul\":1128:1161   */\n  tag_87\n    /* \"#utility.yul\":1156:1160   */\n  dup3\n    /* \"#utility.yul\":1148:1154   */\n  dup3\n    /* \"#utility.yul\":1128:1161   */\n  tag_43\n  jump\t// in\ntag_87:\n    /* \"#utility.yul\":1038:1167   */\n  swap2\n  swap1\n  pop\n  jump\t// out\n    /* \"#utility.yul\":1173:1494   */\ntag_45:\n    /* \"#utility.yul\":1260:1264   */\n  0x00\n    /* \"#utility.yul\":1350:1368   */\n  0xffffffffffffffff\n    /* \"#utility.yul\":1342:1348   */\n  dup3\n    /* \"#utility.yul\":1339:1369   */\n  gt\n    /* \"#utility.yul\":1336:1392   */\n  iszero\n  tag_89\n  jumpi\n    /* \"#utility.yul\":1372:1390   */\n  tag_90\n  tag_42\n  jump\t// in\ntag_90:\n    /* \"#utility.yul\":1336:1392   */\ntag_89:\n    /* \"#utility.yul\":1422:1426   */\n  0x20\n    /* \"#utility.yul\":1414:1420   */\n  dup3\n    /* \"#utility.yul\":1410:1427   */\n  mul\n    /* \"#utility.yul\":1402:1427   */\n  swap1\n  pop\n    /* \"#utility.yul\":1482:1486   */\n  0x20\n    /* \"#utility.yul\":1476:1480   */\n  dup2\n    /* \"#utility.yul\":1472:1487   */\n  add\n    /* \"#utility.yul\":1464:1487   */\n  swap1\n  pop\n    /* \"#utility.yul\":1173:1494   */\n  swap2\n  swap1\n  pop\n  jump\t// out\n    /* \"#utility.yul\":1500:1617   */\ntag_46:\n    /* \"#utility.yul\":1609:1610   */\n  0x00\n    /* \"#utility.yul\":1606:1607   */\n  dup1\n    /* \"#utility.yul\":1599:1611   */\n  revert\n    /* \"#utility.yul\":1623:1740   */\ntag_47:\n    /* \"#utility.yul\":1732:1733   */\n  0x00\n    /* \"#utility.yul\":1729:1730   */\n  dup1\n    /* \"#utility.yul\":1722:1734   */\n  revert\n    /* \"#utility.yul\":1746:2054   */\ntag_48:\n    /* \"#utility.yul\":1808:1812   */\n  0x00\n    /* \"#utility.yul\":1898:1916   */\n  0xffffffffffffffff\n    /* \"#utility.yul\":1890:1896   */\n  dup3\n    /* \"#utility.yul\":1887:1917   */\n  gt\n    /* \"#utility.yul\":1884:1940   */\n  iszero\n  tag_94\n  jumpi\n    /* \"#utility.yul\":1920:1938   */\n  tag_95\n  tag_42\n  jump\t// in\ntag_95:\n    /* \"#utility.yul\":1884:1940   */\ntag_94:\n    /* \"#utility.yul\":1958:1987   */\n  tag_96\n    /* \"#utility.yul\":1980:1986   */\n  dup3\n    /* \"#utility.yul\":1958:1987   */\n  tag_41\n  jump\t// in\ntag_96:\n    /* \"#utility.yul\":1950:1987   */\n  swap1\n  pop\n    /* \"#utility.yul\":2042:2046   */\n  0x20\n    /* \"#utility.yul\":2036:2040   */\n  dup2\n    /* \"#utility.yul\":2032:2047   */\n  add\n    /* \"#utility.yul\":2024:2047   */\n  swap1\n  pop\n    /* \"#utility.yul\":1746:2054   */\n  swap2\n  swap1\n  pop\n  jump\t// out\n    /* \"#utility.yul\":2060:2199   */\ntag_49:\n    /* \"#utility.yul\":2149:2155   */\n  dup3\n    /* \"#utility.yul\":2144:2147   */\n  dup2\n    /* \"#utility.yul\":2139:2142   */\n  dup4\n    /* \"#utility.yul\":2133:2156   */\n  mcopy\n    /* \"#utility.yul\":2190:2191   */\n  0x00\n    /* \"#utility.yul\":2181:2187   */\n  dup4\n    /* \"#utility.yul\":2176:2179   */\n  dup4\n    /* \"#utility.yul\":2172:2188   */\n  add\n    /* \"#utility.yul\":2165:2192   */\n  mstore\n    /* \"#utility.yul\":2060:2199   */\n  pop\n  pop\n  pop\n  jump\t// out\n    /* \"#utility.yul\":2205:2639   */\ntag_50:\n    /* \"#utility.yul\":2294:2299   */\n  0x00\n    /* \"#utility.yul\":2319:2385   */\n  tag_99\n    /* \"#utility.yul\":2335:2384   */\n  tag_100\n    /* \"#utility.yul\":2377:2383   */\n  dup5\n    /* \"#utility.yul\":2335:2384   */\n  tag_48\n  jump\t// in\ntag_100:\n    /* \"#utility.yul\":2319:2385   */\n  tag_44\n  jump\t// in\ntag_99:\n    /* \"#utility.yul\":2310:2385   */\n  swap1\n  pop\n    /* \"#utility.yul\":2408:2414   */\n  dup3\n    /* \"#utility.yul\":2401:2406   */\n  dup2\n    /* \"#utility.yul\":2394:2415   */\n  mstore\n    /* \"#utility.yul\":2446:2450   */\n  0x20\n    /* \"#utility.yul\":2439:2444   */\n  dup2\n    /* \"#utility.yul\":2435:2451   */\n  add\n    /* \"#utility.yul\":2484:2487   */\n  dup5\n    /* \"#utility.yul\":2475:2481   */\n  dup5\n    /* \"#utility.yul\":2470:2473   */\n  dup5\n    /* \"#utility.yul\":2466:2482   */\n  add\n    /* \"#utility.yul\":2463:2488   */\n  gt\n    /* \"#utility.yul\":2460:2572   */\n  iszero\n  tag_101\n  jumpi\n    /* \"#utility.yul\":2491:2570   */\n  tag_102\n  tag_47\n  jump\t// in\ntag_102:\n    /* \"#utility.yul\":2460:2572   */\ntag_101:\n    /* \"#utility.yul\":2581:2633   */\n  tag_103\n    /* \"#utility.yul\":2626:2632   */\n  dup5\n    /* \"#utility.yul\":2621:2624   */\n  dup3\n    /* \"#utility.yul\":2616:2619   */\n  dup6\n    /* \"#utility.yul\":2581:2633   */\n  tag_49\n  jump\t// in\ntag_103:\n    /* \"#utility.yul\":2300:2639   */\n  pop\n    /* \"#utility.yul\":2205:2639   */\n  swap4\n  swap3\n  pop\n  pop\n  pop\n  jump\t// out\n    /* \"#utility.yul\":2659:3014   */\ntag_51:\n    /* \"#utility.yul\":2726:2731   */\n  0x00\n    /* \"#utility.yul\":2775:2778   */\n  dup3\n    /* \"#utility.yul\":2768:2772   */\n  0x1f\n    /* \"#utility.yul\":2760:2766   */\n  dup4\n    /* \"#utility.yul\":2756:2773   */\n  add\n    /* \"#utility.yul\":2752:2779   */\n  slt\n    /* \"#utility.yul\":2742:2864   */\n  tag_105\n  jumpi\n    /* \"#utility.yul\":2783:2862   */\n  tag_106\n  tag_40\n  jump\t// in\ntag_106:\n    /* \"#utility.yul\":2742:2864   */\ntag_105:\n    /* \"#utility.yul\":2893:2899   */\n  dup2\n    /* \"#utility.yul\":2887:2900   */\n  mload\n    /* \"#utility.yul\":2918:3008   */\n  tag_107\n    /* \"#utility.yul\":3004:3007   */\n  dup5\n    /* \"#utility.yul\":2996:3002   */\n  dup3\n    /* \"#utility.yul\":2989:2993   */\n  0x20\n    /* \"#utility.yul\":2981:2987   */\n  dup7\n    /* \"#utility.yul\":2977:2994   */\n  add\n    /* \"#utility.yul\":2918:3008   */\n  tag_50\n  jump\t// in\ntag_107:\n    /* \"#utility.yul\":2909:3008   */\n  swap2\n  pop\n    /* \"#utility.yul\":2732:3014   */\n  pop\n    /* \"#utility.yul\":2659:3014   */\n  swap3\n  swap2\n  pop\n  pop\n  jump\t// out\n    /* \"#utility.yul\":3036:3996   */\ntag_52:\n    /* \"#utility.yul\":3153:3158   */\n  0x00\n    /* \"#utility.yul\":3178:3269   */\n  tag_109\n    /* \"#utility.yul\":3194:3268   */\n  tag_110\n    /* \"#utility.yul\":3261:3267   */\n  dup5\n    /* \"#utility.yul\":3194:3268   */\n  tag_45\n  jump\t// in\ntag_110:\n    /* \"#utility.yul\":3178:3269   */\n  tag_44\n  jump\t// in\ntag_109:\n    /* \"#utility.yul\":3169:3269   */\n  swap1\n  pop\n    /* \"#utility.yul\":3289:3294   */\n  dup1\n    /* \"#utility.yul\":3318:3324   */\n  dup4\n    /* \"#utility.yul\":3311:3316   */\n  dup3\n    /* \"#utility.yul\":3304:3325   */\n  mstore\n    /* \"#utility.yul\":3352:3356   */\n  0x20\n    /* \"#utility.yul\":3345:3350   */\n  dup3\n    /* \"#utility.yul\":3341:3357   */\n  add\n    /* \"#utility.yul\":3334:3357   */\n  swap1\n  pop\n    /* \"#utility.yul\":3405:3409   */\n  0x20\n    /* \"#utility.yul\":3397:3403   */\n  dup5\n    /* \"#utility.yul\":3393:3410   */\n  mul\n    /* \"#utility.yul\":3385:3391   */\n  dup4\n    /* \"#utility.yul\":3381:3411   */\n  add\n    /* \"#utility.yul\":3434:3437   */\n  dup6\n    /* \"#utility.yul\":3426:3432   */\n  dup2\n    /* \"#utility.yul\":3423:3438   */\n  gt\n    /* \"#utility.yul\":3420:3542   */\n  iszero\n  tag_111\n  jumpi\n    /* \"#utility.yul\":3453:3532   */\n  tag_112\n  tag_46\n  jump\t// in\ntag_112:\n    /* \"#utility.yul\":3420:3542   */\ntag_111:\n    /* \"#utility.yul\":3568:3574   */\n  dup4\n    /* \"#utility.yul\":3551:3990   */\ntag_113:\n    /* \"#utility.yul\":3585:3591   */\n  dup2\n    /* \"#utility.yul\":3580:3583   */\n  dup2\n    /* \"#utility.yul\":3577:3592   */\n  lt\n    /* \"#utility.yul\":3551:3990   */\n  iszero\n  tag_115\n  jumpi\n    /* \"#utility.yul\":3667:3670   */\n  dup1\n    /* \"#utility.yul\":3661:3671   */\n  mload\n    /* \"#utility.yul\":3703:3721   */\n  0xffffffffffffffff\n    /* \"#utility.yul\":3690:3701   */\n  dup2\n    /* \"#utility.yul\":3687:3722   */\n  gt\n    /* \"#utility.yul\":3684:3806   */\n  iszero\n  tag_116\n  jumpi\n    /* \"#utility.yul\":3725:3804   */\n  tag_117\n  tag_40\n  jump\t// in\ntag_117:\n    /* \"#utility.yul\":3684:3806   */\ntag_116:\n    /* \"#utility.yul\":3849:3860   */\n  dup1\n    /* \"#utility.yul\":3841:3847   */\n  dup7\n    /* \"#utility.yul\":3837:3861   */\n  add\n    /* \"#utility.yul\":3887:3945   */\n  tag_118\n    /* \"#utility.yul\":3941:3944   */\n  dup10\n    /* \"#utility.yul\":3929:3939   */\n  dup3\n    /* \"#utility.yul\":3887:3945   */\n  tag_51\n  jump\t// in\ntag_118:\n    /* \"#utility.yul\":3882:3885   */\n  dup6\n    /* \"#utility.yul\":3875:3946   */\n  mstore\n    /* \"#utility.yul\":3975:3979   */\n  0x20\n    /* \"#utility.yul\":3970:3973   */\n  dup6\n    /* \"#utility.yul\":3966:3980   */\n  add\n    /* \"#utility.yul\":3959:3980   */\n  swap5\n  pop\n    /* \"#utility.yul\":3627:3990   */\n  pop\n  pop\n    /* \"#utility.yul\":3611:3615   */\n  0x20\n    /* \"#utility.yul\":3606:3609   */\n  dup2\n    /* \"#utility.yul\":3602:3616   */\n  add\n    /* \"#utility.yul\":3595:3616   */\n  swap1\n  pop\n    /* \"#utility.yul\":3551:3990   */\n  jump(tag_113)\ntag_115:\n    /* \"#utility.yul\":3555:3576   */\n  pop\n    /* \"#utility.yul\":3159:3996   */\n  pop\n  pop\n    /* \"#utility.yul\":3036:3996   */\n  swap4\n  swap3\n  pop\n  pop\n  pop\n  jump\t// out\n    /* \"#utility.yul\":4018:4423   */\ntag_53:\n    /* \"#utility.yul\":4110:4115   */\n  0x00\n    /* \"#utility.yul\":4159:4162   */\n  dup3\n    /* \"#utility.yul\":4152:4156   */\n  0x1f\n    /* \"#utility.yul\":4144:4150   */\n  dup4\n    /* \"#utility.yul\":4140:4157   */\n  add\n    /* \"#utility.yul\":4136:4163   */\n  slt\n    /* \"#utility.yul\":4126:4248   */\n  tag_120\n  jumpi\n    /* \"#utility.yul\":4167:4246   */\n  tag_121\n  tag_40\n  jump\t// in\ntag_121:\n    /* \"#utility.yul\":4126:4248   */\ntag_120:\n    /* \"#utility.yul\":4277:4283   */\n  dup2\n    /* \"#utility.yul\":4271:4284   */\n  mload\n    /* \"#utility.yul\":4302:4417   */\n  tag_122\n    /* \"#utility.yul\":4413:4416   */\n  dup5\n    /* \"#utility.yul\":4405:4411   */\n  dup3\n    /* \"#utility.yul\":4398:4402   */\n  0x20\n    /* \"#utility.yul\":4390:4396   */\n  dup7\n    /* \"#utility.yul\":4386:4403   */\n  add\n    /* \"#utility.yul\":4302:4417   */\n  tag_52\n  jump\t// in\ntag_122:\n    /* \"#utility.yul\":4293:4417   */\n  swap2\n  pop\n    /* \"#utility.yul\":4116:4423   */\n  pop\n    /* \"#utility.yul\":4018:4423   */\n  swap3\n  swap2\n  pop\n  pop\n  jump\t// out\n    /* \"#utility.yul\":4429:5003   */\ntag_3:\n    /* \"#utility.yul\":4534:4540   */\n  0x00\n    /* \"#utility.yul\":4583:4585   */\n  0x20\n    /* \"#utility.yul\":4571:4580   */\n  dup3\n    /* \"#utility.yul\":4562:4569   */\n  dup5\n    /* \"#utility.yul\":4558:4581   */\n  sub\n    /* \"#utility.yul\":4554:4586   */\n  slt\n    /* \"#utility.yul\":4551:4670   */\n  iszero\n  tag_124\n  jumpi\n    /* \"#utility.yul\":4589:4668   */\n  tag_125\n  tag_38\n  jump\t// in\ntag_125:\n    /* \"#utility.yul\":4551:4670   */\ntag_124:\n    /* \"#utility.yul\":4730:4731   */\n  0x00\n    /* \"#utility.yul\":4719:4728   */\n  dup3\n    /* \"#utility.yul\":4715:4732   */\n  add\n    /* \"#utility.yul\":4709:4733   */\n  mload\n    /* \"#utility.yul\":4760:4778   */\n  0xffffffffffffffff\n    /* \"#utility.yul\":4752:4758   */\n  dup2\n    /* \"#utility.yul\":4749:4779   */\n  gt\n    /* \"#utility.yul\":4746:4863   */\n  iszero\n  tag_126\n  jumpi\n    /* \"#utility.yul\":4782:4861   */\n  tag_127\n  tag_39\n  jump\t// in\ntag_127:\n    /* \"#utility.yul\":4746:4863   */\ntag_126:\n    /* \"#utility.yul\":4887:4986   */\n  tag_128\n    /* \"#utility.yul\":4978:4985   */\n  dup5\n    /* \"#utility.yul\":4969:4975   */\n  dup3\n    /* \"#utility.yul\":4958:4967   */\n  dup6\n    /* \"#utility.yul\":4954:4976   */\n  add\n    /* \"#utility.yul\":4887:4986   */\n  tag_53\n  jump\t// in\ntag_128:\n    /* \"#utility.yul\":4877:4986   */\n  swap2\n  pop\n    /* \"#utility.yul\":4680:4996   */\n  pop\n    /* \"#utility.yul\":4429:5003   */\n  swap3\n  swap2\n  pop\n  pop\n  jump\t// out\n    /* \"#utility.yul\":5009:5189   */\ntag_13:\n    /* \"#utility.yul\":5057:5134   */\n  0x4e487b7100000000000000000000000000000000000000000000000000000000\n    /* \"#utility.yul\":5054:5055   */\n  0x00\n    /* \"#utility.yul\":5047:5135   */\n  mstore\n    /* \"#utility.yul\":5154:5158   */\n  0x32\n    /* \"#utility.yul\":5151:5152   */\n  0x04\n    /* \"#utility.yul\":5144:5159   */\n  mstore\n    /* \"#utility.yul\":5178:5182   */\n  0x24\n    /* \"#utility.yul\":5175:5176   */\n  0x00\n    /* \"#utility.yul\":5168:5183   */\n  revert\n    /* \"#utility.yul\":5195:5375   */\ntag_54:\n    /* \"#utility.yul\":5243:5320   */\n  0x4e487b7100000000000000000000000000000000000000000000000000000000\n    /* \"#utility.yul\":5240:5241   */\n  0x00\n    /* \"#utility.yul\":5233:5321   */\n  mstore\n    /* \"#utility.yul\":5340:5344   */\n  0x22\n    /* \"#utility.yul\":5337:5338   */\n  0x04\n    /* \"#utility.yul\":5330:5345   */\n  mstore\n    /* \"#utility.yul\":5364:5368   */\n  0x24\n    /* \"#utility.yul\":5361:5362   */\n  0x00\n    /* \"#utility.yul\":5354:5369   */\n  revert\n    /* \"#utility.yul\":5381:5701   */\ntag_30:\n    /* \"#utility.yul\":5425:5431   */\n  0x00\n    /* \"#utility.yul\":5462:5463   */\n  0x02\n    /* \"#utility.yul\":5456:5460   */\n  dup3\n    /* \"#utility.yul\":5452:5464   */\n  div\n    /* \"#utility.yul\":5442:5464   */\n  swap1\n  pop\n    /* \"#utility.yul\":5509:5510   */\n  0x01\n    /* \"#utility.yul\":5503:5507   */\n  dup3\n    /* \"#utility.yul\":5499:5511   */\n  and\n    /* \"#utility.yul\":5530:5548   */\n  dup1\n    /* \"#utility.yul\":5520:5601   */\n  tag_132\n  jumpi\n    /* \"#utility.yul\":5586:5590   */\n  0x7f\n    /* \"#utility.yul\":5578:5584   */\n  dup3\n    /* \"#utility.yul\":5574:5591   */\n  and\n    /* \"#utility.yul\":5564:5591   */\n  swap2\n  pop\n    /* \"#utility.yul\":5520:5601   */\ntag_132:\n    /* \"#utility.yul\":5648:5650   */\n  0x20\n    /* \"#utility.yul\":5640:5646   */\n  dup3\n    /* \"#utility.yul\":5637:5651   */\n  lt\n    /* \"#utility.yul\":5617:5635   */\n  dup2\n    /* \"#utility.yul\":5614:5652   */\n  sub\n    /* \"#utility.yul\":5611:5695   */\n  tag_133\n  jumpi\n    /* \"#utility.yul\":5667:5685   */\n  tag_134\n  tag_54\n  jump\t// in\ntag_134:\n    /* \"#utility.yul\":5611:5695   */\ntag_133:\n    /* \"#utility.yul\":5432:5701   */\n  pop\n    /* \"#utility.yul\":5381:5701   */\n  swap2\n  swap1\n  pop\n  jump\t// out\n    /* \"#utility.yul\":5707:5855   */\ntag_55:\n    /* \"#utility.yul\":5809:5820   */\n  0x00\n    /* \"#utility.yul\":5846:5849   */\n  dup2\n    /* \"#utility.yul\":5831:5849   */\n  swap1\n  pop\n    /* \"#utility.yul\":5707:5855   */\n  swap3\n  swap2\n  pop\n  pop\n  jump\t// out\n    /* \"#utility.yul\":5861:6002   */\ntag_56:\n    /* \"#utility.yul\":5910:5914   */\n  0x00\n    /* \"#utility.yul\":5933:5936   */\n  dup2\n    /* \"#utility.yul\":5925:5936   */\n  swap1\n  pop\n    /* \"#utility.yul\":5956:5959   */\n  dup2\n    /* \"#utility.yul\":5953:5954   */\n  0x00\n    /* \"#utility.yul\":5946:5960   */\n  mstore\n    /* \"#utility.yul\":5990:5994   */\n  0x20\n    /* \"#utility.yul\":5987:5988   */\n  0x00\n    /* \"#utility.yul\":5977:5995   */\n  keccak256\n    /* \"#utility.yul\":5969:5995   */\n  swap1\n  pop\n    /* \"#utility.yul\":5861:6002   */\n  swap2\n  swap1\n  pop\n  jump\t// out\n    /* \"#utility.yul\":6032:6906   */\ntag_57:\n    /* \"#utility.yul\":6135:6138   */\n  0x00\n    /* \"#utility.yul\":6172:6177   */\n  dup2\n    /* \"#utility.yul\":6166:6178   */\n  sload\n    /* \"#utility.yul\":6201:6237   */\n  tag_138\n    /* \"#utility.yul\":6227:6236   */\n  dup2\n    /* \"#utility.yul\":6201:6237   */\n  tag_30\n  jump\t// in\ntag_138:\n    /* \"#utility.yul\":6253:6342   */\n  tag_139\n    /* \"#utility.yul\":6335:6341   */\n  dup2\n    /* \"#utility.yul\":6330:6333   */\n  dup7\n    /* \"#utility.yul\":6253:6342   */\n  tag_55\n  jump\t// in\ntag_139:\n    /* \"#utility.yul\":6246:6342   */\n  swap5\n  pop\n    /* \"#utility.yul\":6373:6374   */\n  0x01\n    /* \"#utility.yul\":6362:6371   */\n  dup3\n    /* \"#utility.yul\":6358:6375   */\n  and\n    /* \"#utility.yul\":6389:6390   */\n  0x00\n    /* \"#utility.yul\":6384:6550   */\n  dup2\n  eq\n  tag_141\n  jumpi\n    /* \"#utility.yul\":6564:6565   */\n  0x01\n    /* \"#utility.yul\":6559:6900   */\n  dup2\n  eq\n  tag_142\n  jumpi\n    /* \"#utility.yul\":6351:6900   */\n  jump(tag_140)\n    /* \"#utility.yul\":6384:6550   */\ntag_141:\n    /* \"#utility.yul\":6468:6472   */\n  0xff\n    /* \"#utility.yul\":6464:6473   */\n  not\n    /* \"#utility.yul\":6453:6462   */\n  dup4\n    /* \"#utility.yul\":6449:6474   */\n  and\n    /* \"#utility.yul\":6444:6447   */\n  dup7\n    /* \"#utility.yul\":6437:6475   */\n  mstore\n    /* \"#utility.yul\":6530:6536   */\n  dup2\n    /* \"#utility.yul\":6523:6537   */\n  iszero\n    /* \"#utility.yul\":6516:6538   */\n  iszero\n    /* \"#utility.yul\":6508:6514   */\n  dup3\n    /* \"#utility.yul\":6504:6539   */\n  mul\n    /* \"#utility.yul\":6499:6502   */\n  dup7\n    /* \"#utility.yul\":6495:6540   */\n  add\n    /* \"#utility.yul\":6488:6540   */\n  swap4\n  pop\n    /* \"#utility.yul\":6384:6550   */\n  jump(tag_140)\n    /* \"#utility.yul\":6559:6900   */\ntag_142:\n    /* \"#utility.yul\":6626:6664   */\n  tag_143\n    /* \"#utility.yul\":6658:6663   */\n  dup6\n    /* \"#utility.yul\":6626:6664   */\n  tag_56\n  jump\t// in\ntag_143:\n    /* \"#utility.yul\":6686:6687   */\n  0x00\n    /* \"#utility.yul\":6700:6854   */\ntag_144:\n    /* \"#utility.yul\":6714:6720   */\n  dup4\n    /* \"#utility.yul\":6711:6712   */\n  dup2\n    /* \"#utility.yul\":6708:6721   */\n  lt\n    /* \"#utility.yul\":6700:6854   */\n  iszero\n  tag_146\n  jumpi\n    /* \"#utility.yul\":6788:6795   */\n  dup2\n    /* \"#utility.yul\":6782:6796   */\n  sload\n    /* \"#utility.yul\":6778:6779   */\n  dup2\n    /* \"#utility.yul\":6773:6776   */\n  dup10\n    /* \"#utility.yul\":6769:6780   */\n  add\n    /* \"#utility.yul\":6762:6797   */\n  mstore\n    /* \"#utility.yul\":6838:6839   */\n  0x01\n    /* \"#utility.yul\":6829:6836   */\n  dup3\n    /* \"#utility.yul\":6825:6840   */\n  add\n    /* \"#utility.yul\":6814:6840   */\n  swap2\n  pop\n    /* \"#utility.yul\":6736:6740   */\n  0x20\n    /* \"#utility.yul\":6733:6734   */\n  dup2\n    /* \"#utility.yul\":6729:6741   */\n  add\n    /* \"#utility.yul\":6724:6741   */\n  swap1\n  pop\n    /* \"#utility.yul\":6700:6854   */\n  jump(tag_144)\ntag_146:\n    /* \"#utility.yul\":6883:6889   */\n  dup4\n    /* \"#utility.yul\":6878:6881   */\n  dup9\n    /* \"#utility.yul\":6874:6890   */\n  add\n    /* \"#utility.yul\":6867:6890   */\n  swap6\n  pop\n    /* \"#utility.yul\":6566:6900   */\n  pop\n  pop\n    /* \"#utility.yul\":6351:6900   */\ntag_140:\n  pop\n    /* \"#utility.yul\":6139:6906   */\n  pop\n  pop\n    /* \"#utility.yul\":6032:6906   */\n  swap3\n  swap2\n  pop\n  pop\n  jump\t// out\n    /* \"#utility.yul\":6912:7181   */\ntag_16:\n    /* \"#utility.yul\":7041:7044   */\n  0x00\n    /* \"#utility.yul\":7063:7155   */\n  tag_148\n    /* \"#utility.yul\":7151:7154   */\n  dup3\n    /* \"#utility.yul\":7142:7148   */\n  dup5\n    /* \"#utility.yul\":7063:7155   */\n  tag_57\n  jump\t// in\ntag_148:\n    /* \"#utility.yul\":7056:7155   */\n  swap2\n  pop\n    /* \"#utility.yul\":7172:7175   */\n  dup2\n    /* \"#utility.yul\":7165:7175   */\n  swap1\n  pop\n    /* \"#utility.yul\":6912:7181   */\n  swap3\n  swap2\n  pop\n  pop\n  jump\t// out\n    /* \"#utility.yul\":7187:7286   */\ntag_58:\n    /* \"#utility.yul\":7239:7245   */\n  0x00\n    /* \"#utility.yul\":7273:7278   */\n  dup2\n    /* \"#utility.yul\":7267:7279   */\n  mload\n    /* \"#utility.yul\":7257:7279   */\n  swap1\n  pop\n    /* \"#utility.yul\":7187:7286   */\n  swap2\n  swap1\n  pop\n  jump\t// out\n    /* \"#utility.yul\":7292:7385   */\ntag_59:\n    /* \"#utility.yul\":7329:7335   */\n  0x00\n    /* \"#utility.yul\":7376:7378   */\n  0x20\n    /* \"#utility.yul\":7371:7373   */\n  0x1f\n    /* \"#utility.yul\":7364:7369   */\n  dup4\n    /* \"#utility.yul\":7360:7374   */\n  add\n    /* \"#utility.yul\":7356:7379   */\n  div\n    /* \"#utility.yul\":7346:7379   */\n  swap1\n  pop\n    /* \"#utility.yul\":7292:7385   */\n  swap2\n  swap1\n  pop\n  jump\t// out\n    /* \"#utility.yul\":7391:7498   */\ntag_60:\n    /* \"#utility.yul\":7435:7443   */\n  0x00\n    /* \"#utility.yul\":7485:7490   */\n  dup3\n    /* \"#utility.yul\":7479:7483   */\n  dup3\n    /* \"#utility.yul\":7475:7491   */\n  shl\n    /* \"#utility.yul\":7454:7491   */\n  swap1\n  pop\n    /* \"#utility.yul\":7391:7498   */\n  swap3\n  swap2\n  pop\n  pop\n  jump\t// out\n    /* \"#utility.yul\":7504:7897   */\ntag_61:\n    /* \"#utility.yul\":7573:7579   */\n  0x00\n    /* \"#utility.yul\":7623:7624   */\n  0x08\n    /* \"#utility.yul\":7611:7621   */\n  dup4\n    /* \"#utility.yul\":7607:7625   */\n  mul\n    /* \"#utility.yul\":7646:7743   */\n  tag_153\n    /* \"#utility.yul\":7676:7742   */\n  0xffffffffffffffffffffffffffffffffffffffffffffffffffffffffffffffff\n    /* \"#utility.yul\":7665:7674   */\n  dup3\n    /* \"#utility.yul\":7646:7743   */\n  tag_60\n  jump\t// in\ntag_153:\n    /* \"#utility.yul\":7764:7803   */\n  tag_154\n    /* \"#utility.yul\":7794:7802   */\n  dup7\n    /* \"#utility.yul\":7783:7792   */\n  dup4\n    /* \"#utility.yul\":7764:7803   */\n  tag_60\n  jump\t// in\ntag_154:\n    /* \"#utility.yul\":7752:7803   */\n  swap6\n  pop\n    /* \"#utility.yul\":7836:7840   */\n  dup1\n    /* \"#utility.yul\":7832:7841   */\n  not\n    /* \"#utility.yul\":7825:7830   */\n  dup5\n    /* \"#utility.yul\":7821:7842   */\n  and\n    /* \"#utility.yul\":7812:7842   */\n  swap4\n  pop\n    /* \"#utility.yul\":7885:7889   */\n  dup1\n    /* \"#utility.yul\":7875:7883   */\n  dup7\n    /* \"#utility.yul\":7871:7890   */\n  and\n    /* \"#utility.yul\":7864:7869   */\n  dup5\n    /* \"#utility.yul\":7861:7891   */\n  or\n    /* \"#utility.yul\":7851:7891   */\n  swap3\n  pop\n    /* \"#utility.yul\":7580:7897   */\n  pop\n  pop\n    /* \"#utility.yul\":7504:7897   */\n  swap4\n  swap3\n  pop\n  pop\n  pop\n  jump\t// out\n    /* \"#utility.yul\":7903:7980   */\ntag_62:\n    /* \"#utility.yul\":7940:7947   */\n  0x00\n    /* \"#utility.yul\":7969:7974   */\n  dup2\n    /* \"#utility.yul\":7958:7974   */\n  swap1\n  pop\n    /* \"#utility.yul\":7903:7980   */\n  swap2\n  swap1\n  pop\n  jump\t// out\n    /* \"#utility.yul\":7986:8046   */\ntag_63:\n    /* \"#utility.yul\":8014:8017   */\n  0x00\n    /* \"#utility.yul\":8035:8040   */\n  dup2\n    /* \"#utility.yul\":8028:8040   */\n  swap1\n  pop\n    /* \"#utility.yul\":7986:8046   */\n  swap2\n  swap1\n  pop\n  jump\t// out\n    /* \"#utility.yul\":8052:8194   */\ntag_64:\n    /* \"#utility.yul\":8102:8111   */\n  0x00\n    /* \"#utility.yul\":8135:8188   */\n  tag_158\n    /* \"#utility.yul\":8153:8187   */\n  tag_159\n    /* \"#utility.yul\":8162:8186   */\n  tag_160\n    /* \"#utility.yul\":8180:8185   */\n  dup5\n    /* \"#utility.yul\":8162:8186   */\n  tag_62\n  jump\t// in\ntag_160:\n    /* \"#utility.yul\":8153:8187   */\n  tag_63\n  jump\t// in\ntag_159:\n    /* \"#utility.yul\":8135:8188   */\n  tag_62\n  jump\t// in\ntag_158:\n    /* \"#utility.yul\":8122:8188   */\n  swap1\n  pop\n    /* \"#utility.yul\":8052:8194   */\n  swap2\n  swap1\n  pop\n  jump\t// out\n    /* \"#utility.yul\":8200:8275   */\ntag_65:\n    /* \"#utility.yul\":8243:8246   */\n  0x00\n    /* \"#utility.yul\":8264:8269   */\n  dup2\n    /* \"#utility.yul\":8257:8269   */\n  swap1\n  pop\n    /* \"#utility.yul\":8200:8275   */\n  swap2\n  swap1\n  pop\n  jump\t// out\n    /* \"#utility.yul\":8281:8550   */\ntag_66:\n    /* \"#utility.yul\":8391:8430   */\n  tag_163\n    /* \"#utility.yul\":8422:8429   */\n  dup4\n    /* \"#utility.yul\":8391:8430   */\n  tag_64\n  jump\t// in\ntag_163:\n    /* \"#utility.yul\":8452:8543   */\n  tag_164\n    /* \"#utility.yul\":8501:8542   */\n  tag_165\n    /* \"#utility.yul\":8525:8541   */\n  dup3\n    /* \"#utility.yul\":8501:8542   */\n  tag_65\n  jump\t// in\ntag_165:\n    /* \"#utility.yul\":8493:8499   */\n  dup5\n    /* \"#utility.yul\":8486:8490   */\n  dup5\n    /* \"#utility.yul\":8480:8491   */\n  sload\n    /* \"#utility.yul\":8452:8543   */\n  tag_61\n  jump\t// in\ntag_164:\n    /* \"#utility.yul\":8446:8450   */\n  dup3\n    /* \"#utility.yul\":8439:8544   */\n  sstore\n    /* \"#utility.yul\":8357:8550   */\n  pop\n    /* \"#utility.yul\":8281:8550   */\n  pop\n  pop\n  pop\n  jump\t// out\n    /* \"#utility.yul\":8556:8629   */\ntag_67:\n    /* \"#utility.yul\":8601:8604   */\n  0x00\n    /* \"#utility.yul\":8556:8629   */\n  swap1\n  jump\t// out\n    /* \"#utility.yul\":8635:8824   */\ntag_68:\n    /* \"#utility.yul\":8712:8744   */\n  tag_168\n  tag_67\n  jump\t// in\ntag_168:\n    /* \"#utility.yul\":8753:8818   */\n  tag_169\n    /* \"#utility.yul\":8811:8817   */\n  dup2\n    /* \"#utility.yul\":8803:8809   */\n  dup5\n    /* \"#utility.yul\":8797:8801   */\n  dup5\n    /* \"#utility.yul\":8753:8818   */\n  tag_66\n  jump\t// in\ntag_169:\n    /* \"#utility.yul\":8688:8824   */\n  pop\n    /* \"#utility.yul\":8635:8824   */\n  pop\n  pop\n  jump\t// out\n    /* \"#utility.yul\":8830:9016   */\ntag_69:\n    /* \"#utility.yul\":8890:9010   */\ntag_171:\n    /* \"#utility.yul\":8907:8910   */\n  dup2\n    /* \"#utility.yul\":8900:8905   */\n  dup2\n    /* \"#utility.yul\":8897:8911   */\n  lt\n    /* \"#utility.yul\":8890:9010   */\n  iszero\n  tag_173\n  jumpi\n    /* \"#utility.yul\":8961:9000   */\n  tag_174\n    /* \"#utility.yul\":8998:8999   */\n  0x00\n    /* \"#utility.yul\":8991:8996   */\n  dup3\n    /* \"#utility.yul\":8961:9000   */\n  tag_68\n  jump\t// in\ntag_174:\n    /* \"#utility.yul\":8934:8935   */\n  0x01\n    /* \"#utility.yul\":8927:8932   */\n  dup2\n    /* \"#utility.yul\":8923:8936   */\n  add\n    /* \"#utility.yul\":8914:8936   */\n  swap1\n  pop\n    /* \"#utility.yul\":8890:9010   */\n  jump(tag_171)\ntag_173:\n    /* \"#utility.yul\":8830:9016   */\n  pop\n  pop\n  jump\t// out\n    /* \"#utility.yul\":9022:9565   */\ntag_70:\n    /* \"#utility.yul\":9123:9125   */\n  0x1f\n    /* \"#utility.yul\":9118:9121   */\n  dup3\n    /* \"#utility.yul\":9115:9126   */\n  gt\n    /* \"#utility.yul\":9112:9558   */\n  iszero\n  tag_176\n  jumpi\n    /* \"#utility.yul\":9157:9195   */\n  tag_177\n    /* \"#utility.yul\":9189:9194   */\n  dup2\n    /* \"#utility.yul\":9157:9195   */\n  tag_56\n  jump\t// in\ntag_177:\n    /* \"#utility.yul\":9241:9270   */\n  tag_178\n    /* \"#utility.yul\":9259:9269   */\n  dup5\n    /* \"#utility.yul\":9241:9270   */\n  tag_59\n  jump\t// in\ntag_178:\n    /* \"#utility.yul\":9231:9239   */\n  dup2\n    /* \"#utility.yul\":9227:9271   */\n  add\n    /* \"#utility.yul\":9424:9426   */\n  0x20\n    /* \"#utility.yul\":9412:9422   */\n  dup6\n    /* \"#utility.yul\":9409:9427   */\n  lt\n    /* \"#utility.yul\":9406:9455   */\n  iszero\n  tag_179\n  jumpi\n    /* \"#utility.yul\":9445:9453   */\n  dup2\n    /* \"#utility.yul\":9430:9453   */\n  swap1\n  pop\n    /* \"#utility.yul\":9406:9455   */\ntag_179:\n    /* \"#utility.yul\":9468:9548   */\n  tag_180\n    /* \"#utility.yul\":9524:9546   */\n  tag_181\n    /* \"#utility.yul\":9542:9545   */\n  dup6\n    /* \"#utility.yul\":9524:9546   */\n  tag_59\n  jump\t// in\ntag_181:\n    /* \"#utility.yul\":9514:9522   */\n  dup4\n    /* \"#utility.yul\":9510:9547   */\n  add\n    /* \"#utility.yul\":9497:9508   */\n  dup3\n    /* \"#utility.yul\":9468:9548   */\n  tag_69\n  jump\t// in\ntag_180:\n    /* \"#utility.yul\":9127:9558   */\n  pop\n  pop\n    /* \"#utility.yul\":9112:9558   */\ntag_176:\n    /* \"#utility.yul\":9022:9565   */\n  pop\n  pop\n  pop\n  jump\t// out\n    /* \"#utility.yul\":9571:9688   */\ntag_71:\n    /* \"#utility.yul\":9625:9633   */\n  0x00\n    /* \"#utility.yul\":9675:9680   */\n  dup3\n    /* \"#utility.yul\":9669:9673   */\n  dup3\n    /* \"#utility.yul\":9665:9681   */\n  shr\n    /* \"#utility.yul\":9644:9681   */\n  swap1\n  pop\n    /* \"#utility.yul\":9571:9688   */\n  swap3\n  swap2\n  pop\n  pop\n  jump\t// out\n    /* \"#utility.yul\":9694:9863   */\ntag_72:\n    /* \"#utility.yul\":9738:9744   */\n  0x00\n    /* \"#utility.yul\":9771:9822   */\n  tag_184\n    /* \"#utility.yul\":9819:9820   */\n  0x00\n    /* \"#utility.yul\":9815:9821   */\n  not\n    /* \"#utility.yul\":9807:9812   */\n  dup5\n    /* \"#utility.yul\":9804:9805   */\n  0x08\n    /* \"#utility.yul\":9800:9813   */\n  mul\n    /* \"#utility.yul\":9771:9822   */\n  tag_71\n  jump\t// in\ntag_184:\n    /* \"#utility.yul\":9767:9823   */\n  not\n    /* \"#utility.yul\":9852:9856   */\n  dup1\n    /* \"#utility.yul\":9846:9850   */\n  dup4\n    /* \"#utility.yul\":9842:9857   */\n  and\n    /* \"#utility.yul\":9832:9857   */\n  swap2\n  pop\n    /* \"#utility.yul\":9745:9863   */\n  pop\n    /* \"#utility.yul\":9694:9863   */\n  swap3\n  swap2\n  pop\n  pop\n  jump\t// out\n    /* \"#utility.yul\":9868:10163   */\ntag_73:\n    /* \"#utility.yul\":9944:9948   */\n  0x00\n    /* \"#utility.yul\":10090:10119   */\n  tag_186\n    /* \"#utility.yul\":10115:10118   */\n  dup4\n    /* \"#utility.yul\":10109:10113   */\n  dup4\n    /* \"#utility.yul\":10090:10119   */\n  tag_72\n  jump\t// in\ntag_186:\n    /* \"#utility.yul\":10082:10119   */\n  swap2\n  pop\n    /* \"#utility.yul\":10152:10155   */\n  dup3\n    /* \"#utility.yul\":10149:10150   */\n  0x02\n    /* \"#utility.yul\":10145:10156   */\n  mul\n    /* \"#utility.yul\":10139:10143   */\n  dup3\n    /* \"#utility.yul\":10136:10157   */\n  or\n    /* \"#utility.yul\":10128:10157   */\n  swap1\n  pop\n    /* \"#utility.yul\":9868:10163   */\n  swap3\n  swap2\n  pop\n  pop\n  jump\t// out\n    /* \"#utility.yul\":10168:11563   */\ntag_22:\n    /* \"#utility.yul\":10285:10322   */\n  tag_188\n    /* \"#utility.yul\":10318:10321   */\n  dup3\n    /* \"#utility.yul\":10285:10322   */\n  tag_58\n  jump\t// in\ntag_188:\n    /* \"#utility.yul\":10387:10405   */\n  0xffffffffffffffff\n    /* \"#utility.yul\":10379:10385   */\n  dup2\n    /* \"#utility.yul\":10376:10406   */\n  gt\n    /* \"#utility.yul\":10373:10429   */\n  iszero\n  tag_189\n  jumpi\n    /* \"#utility.yul\":10409:10427   */\n  tag_190\n  tag_42\n  jump\t// in\ntag_190:\n    /* \"#utility.yul\":10373:10429   */\ntag_189:\n    /* \"#utility.yul\":10453:10491   */\n  tag_191\n    /* \"#utility.yul\":10485:10489   */\n  dup3\n    /* \"#utility.yul\":10479:10490   */\n  sload\n    /* \"#utility.yul\":10453:10491   */\n  tag_30\n  jump\t// in\ntag_191:\n    /* \"#utility.yul\":10538:10605   */\n  tag_192\n    /* \"#utility.yul\":10598:10604   */\n  dup3\n    /* \"#utility.yul\":10590:10596   */\n  dup3\n    /* \"#utility.yul\":10584:10588   */\n  dup6\n    /* \"#utility.yul\":10538:10605   */\n  tag_70\n  jump\t// in\ntag_192:\n    /* \"#utility.yul\":10632:10633   */\n  0x00\n    /* \"#utility.yul\":10656:10660   */\n  0x20\n    /* \"#utility.yul\":10643:10660   */\n  swap1\n  pop\n    /* \"#utility.yul\":10688:10690   */\n  0x1f\n    /* \"#utility.yul\":10680:10686   */\n  dup4\n    /* \"#utility.yul\":10677:10691   */\n  gt\n    /* \"#utility.yul\":10705:10706   */\n  0x01\n    /* \"#utility.yul\":10700:11318   */\n  dup2\n  eq\n  tag_194\n  jumpi\n    /* \"#utility.yul\":11362:11363   */\n  0x00\n    /* \"#utility.yul\":11379:11385   */\n  dup5\n    /* \"#utility.yul\":11376:11453   */\n  iszero\n  tag_195\n  jumpi\n    /* \"#utility.yul\":11428:11437   */\n  dup3\n    /* \"#utility.yul\":11423:11426   */\n  dup8\n    /* \"#utility.yul\":11419:11438   */\n  add\n    /* \"#utility.yul\":11413:11439   */\n  mload\n    /* \"#utility.yul\":11404:11439   */\n  swap1\n  pop\n    /* \"#utility.yul\":11376:11453   */\ntag_195:\n    /* \"#utility.yul\":11479:11546   */\n  tag_196\n    /* \"#utility.yul\":11539:11545   */\n  dup6\n    /* \"#utility.yul\":11532:11537   */\n  dup3\n    /* \"#utility.yul\":11479:11546   */\n  tag_73\n  jump\t// in\ntag_196:\n    /* \"#utility.yul\":11473:11477   */\n  dup7\n    /* \"#utility.yul\":11466:11547   */\n  sstore\n    /* \"#utility.yul\":11335:11557   */\n  pop\n    /* \"#utility.yul\":10670:11557   */\n  jump(tag_193)\n    /* \"#utility.yul\":10700:11318   */\ntag_194:\n    /* \"#utility.yul\":10752:10756   */\n  0x1f\n    /* \"#utility.yul\":10748:10757   */\n  not\n    /* \"#utility.yul\":10740:10746   */\n  dup5\n    /* \"#utility.yul\":10736:10758   */\n  and\n    /* \"#utility.yul\":10786:10823   */\n  tag_197\n    /* \"#utility.yul\":10818:10822   */\n  dup7\n    /* \"#utility.yul\":10786:10823   */\n  tag_56\n  jump\t// in\ntag_197:\n    /* \"#utility.yul\":10845:10846   */\n  0x00\n    /* \"#utility.yul\":10859:11067   */\ntag_198:\n    /* \"#utility.yul\":10873:10880   */\n  dup3\n    /* \"#utility.yul\":10870:10871   */\n  dup2\n    /* \"#utility.yul\":10867:10881   */\n  lt\n    /* \"#utility.yul\":10859:11067   */\n  iszero\n  tag_200\n  jumpi\n    /* \"#utility.yul\":10952:10961   */\n  dup5\n    /* \"#utility.yul\":10947:10950   */\n  dup10\n    /* \"#utility.yul\":10943:10962   */\n  add\n    /* \"#utility.yul\":10937:10963   */\n  mload\n    /* \"#utility.yul\":10929:10935   */\n  dup3\n    /* \"#utility.yul\":10922:10964   */\n  sstore\n    /* \"#utility.yul\":11003:11004   */\n  0x01\n    /* \"#utility.yul\":10995:11001   */\n  dup3\n    /* \"#utility.yul\":10991:11005   */\n  add\n    /* \"#utility.yul\":10981:11005   */\n  swap2\n  pop\n    /* \"#utility.yul\":11050:11052   */\n  0x20\n    /* \"#utility.yul\":11039:11048   */\n  dup6\n    /* \"#utility.yul\":11035:11053   */\n  add\n    /* \"#utility.yul\":11022:11053   */\n  swap5\n  pop\n    /* \"#utility.yul\":10896:10900   */\n  0x20\n    /* \"#utility.yul\":10893:10894   */\n  dup2\n    /* \"#utility.yul\":10889:10901   */\n  add\n    /* \"#utility.yul\":10884:10901   */\n  swap1\n  pop\n    /* \"#utility.yul\":10859:11067   */\n  jump(tag_198)\ntag_200:\n    /* \"#utility.yul\":11095:11101   */\n  dup7\n    /* \"#utility.yul\":11086:11093   */\n  dup4\n    /* \"#utility.yul\":11083:11102   */\n  lt\n    /* \"#utility.yul\":11080:11259   */\n  iszero\n  tag_201\n  jumpi\n    /* \"#utility.yul\":11153:11162   */\n  dup5\n    /* \"#utility.yul\":11148:11151   */\n  dup10\n    /* \"#utility.yul\":11144:11163   */\n  add\n    /* \"#utility.yul\":11138:11164   */\n  mload\n    /* \"#utility.yul\":11196:11244   */\n  tag_202\n    /* \"#utility.yul\":11238:11242   */\n  0x1f\n    /* \"#utility.yul\":11230:11236   */\n  dup10\n    /* \"#utility.yul\":11226:11243   */\n  and\n    /* \"#utility.yul\":11215:11224   */\n  dup3\n    /* \"#utility.yul\":11196:11244   */\n  tag_72\n  jump\t// in\ntag_202:\n    /* \"#utility.yul\":11188:11194   */\n  dup4\n    /* \"#utility.yul\":11181:11245   */\n  sstore\n    /* \"#utility.yul\":11103:11259   */\n  pop\n    /* \"#utility.yul\":11080:11259   */\ntag_201:\n    /* \"#utility.yul\":11305:11306   */\n  0x01\n    /* \"#utility.yul\":11301:11302   */\n  0x02\n    /* \"#utility.yul\":11293:11299   */\n  dup9\n    /* \"#utility.yul\":11289:11303   */\n  mul\n    /* \"#utility.yul\":11285:11307   */\n  add\n    /* \"#utility.yul\":11279:11283   */\n  dup9\n    /* \"#utility.yul\":11272:11308   */\n  sstore\n    /* \"#utility.yul\":10707:11318   */\n  pop\n  pop\n  pop\n    /* \"#utility.yul\":10670:11557   */\ntag_193:\n  pop\n    /* \"#utility.yul\":10260:11563   */\n  pop\n  pop\n  pop\n    /* \"#utility.yul\":10168:11563   */\n  pop\n  pop\n  jump\t// out\n    /* \"contracts/myBLCtoken.sol\":57:2203  contract SimpleVoting {... */\ntag_17:\n  dataSize(sub_0)\n  dup1\n  dataOffset(sub_0)\n  0x00\n  codecopy\n  0x00\n  return\nstop\n\nsub_0: assembly {\n        /* \"contracts/myBLCtoken.sol\":57:2203  contract SimpleVoting {... */\n      mstore(0x40, 0x80)\n      callvalue\n      dup1\n      iszero\n      tag_1\n      jumpi\n      0x00\n      dup1\n      revert\n    tag_1:\n      pop\n      jumpi(tag_2, lt(calldatasize, 0x04))\n      shr(0xe0, calldataload(0x00))\n      dup1\n      0x09eef43e\n      eq\n      tag_3\n      jumpi\n      dup1\n      0x3477ee2e\n      eq\n      tag_4\n      jumpi\n      dup1\n      0x8e7ea5b2\n      eq\n      tag_5\n      jumpi\n      dup1\n      0x9cc2d993\n      eq\n      tag_6\n      jumpi\n      dup1\n      0xb99ef1fa\n      eq\n      tag_7\n      jumpi\n      dup1\n      0xe80a57a5\n      eq\n      tag_8\n      jumpi\n    tag_2:\n      0x00\n      dup1\n      revert\n        /* \"contracts/myBLCtoken.sol\":293:333  mapping(address => bool) public hasVoted */\n    tag_3:\n      tag_9\n      0x04\n      dup1\n      calldatasize\n      sub\n      dup2\n      add\n      swap1\n      tag_10\n      swap2\n      swap1\n      tag_11\n      jump\t// in\n    tag_10:\n      tag_12\n      jump\t// in\n    tag_9:\n      mload(0x40)\n      tag_13\n      swap2\n      swap1\n      tag_14\n      jump\t// in\n    tag_13:\n      mload(0x40)\n      dup1\n      swap2\n      sub\n      swap1\n      return\n        /* \"contracts/myBLCtoken.sol\":213:239  string[] public candidates */\n    tag_4:\n      tag_15\n      0x04\n      dup1\n      calldatasize\n      sub\n      dup2\n      add\n      swap1\n      tag_16\n      swap2\n      swap1\n      tag_17\n      jump\t// in\n    tag_16:\n      tag_18\n      jump\t// in\n    tag_15:\n      mload(0x40)\n      tag_19\n      swap2\n      swap1\n      tag_20\n      jump\t// in\n    tag_19:\n      mload(0x40)\n      dup1\n      swap2\n      sub\n      swap1\n      return\n        /* \"contracts/myBLCtoken.sol\":1718:2201  function getWinner() public view returns (string memory) {... */\n    tag_5:\n      tag_21\n      tag_22\n      jump\t// in\n    tag_21:\n      mload(0x40)\n      tag_23\n      swap2\n      swap1\n      tag_20\n      jump\t// in\n    tag_23:\n      mload(0x40)\n      dup1\n      swap2\n      sub\n      swap1\n      return\n        /* \"contracts/myBLCtoken.sol\":712:1526  function castVote(string memory _candidate) public {... */\n    tag_6:\n      tag_24\n      0x04\n      dup1\n      calldatasize\n      sub\n      dup2\n      add\n      swap1\n      tag_25\n      swap2\n      swap1\n      tag_26\n      jump\t// in\n    tag_25:\n      tag_27\n      jump\t// in\n    tag_24:\n      stop\n        /* \"contracts/myBLCtoken.sol\":135:174  mapping(string => uint256) public votes */\n    tag_7:\n      tag_28\n      0x04\n      dup1\n      calldatasize\n      sub\n      dup2\n      add\n      swap1\n      tag_29\n      swap2\n      swap1\n      tag_26\n      jump\t// in\n    tag_29:\n      tag_30\n      jump\t// in\n    tag_28:\n      mload(0x40)\n      tag_31\n      swap2\n      swap1\n      tag_32\n      jump\t// in\n    tag_31:\n      mload(0x40)\n      dup1\n      swap2\n      sub\n      swap1\n      return\n        /* \"contracts/myBLCtoken.sol\":1573:1662  function endVotingPeriod() public pure {... */\n    tag_8:\n      tag_33\n      tag_34\n      jump\t// in\n    tag_33:\n      stop\n        /* \"contracts/myBLCtoken.sol\":293:333  mapping(address => bool) public hasVoted */\n    tag_12:\n      mstore(0x20, 0x02)\n      dup1\n      0x00\n      mstore\n      keccak256(0x00, 0x40)\n      0x00\n      swap2\n      pop\n      sload\n      swap1\n      0x0100\n      exp\n      swap1\n      div\n      0xff\n      and\n      dup2\n      jump\t// out\n        /* \"contracts/myBLCtoken.sol\":213:239  string[] public candidates */\n    tag_18:\n      0x01\n      dup2\n      dup2\n      sload\n      dup2\n      lt\n      tag_35\n      jumpi\n      0x00\n      dup1\n      revert\n    tag_35:\n      swap1\n      0x00\n      mstore\n      keccak256(0x00, 0x20)\n      add\n      0x00\n      swap2\n      pop\n      swap1\n      pop\n      dup1\n      sload\n      tag_37\n      swap1\n      tag_38\n      jump\t// in\n    tag_37:\n      dup1\n      0x1f\n      add\n      0x20\n      dup1\n      swap2\n      div\n      mul\n      0x20\n      add\n      mload(0x40)\n      swap1\n      dup2\n      add\n      0x40\n      mstore\n      dup1\n      swap3\n      swap2\n      swap1\n      dup2\n      dup2\n      mstore\n      0x20\n      add\n      dup3\n      dup1\n      sload\n      tag_39\n      swap1\n      tag_38\n      jump\t// in\n    tag_39:\n      dup1\n      iszero\n      tag_40\n      jumpi\n      dup1\n      0x1f\n      lt\n      tag_41\n      jumpi\n      0x0100\n      dup1\n      dup4\n      sload\n      div\n      mul\n      dup4\n      mstore\n      swap2\n      0x20\n      add\n      swap2\n      jump(tag_40)\n    tag_41:\n      dup3\n      add\n      swap2\n      swap1\n      0x00\n      mstore\n      keccak256(0x00, 0x20)\n      swap1\n    tag_42:\n      dup2\n      sload\n      dup2\n      mstore\n      swap1\n      0x01\n      add\n      swap1\n      0x20\n      add\n      dup1\n      dup4\n      gt\n      tag_42\n      jumpi\n      dup3\n      swap1\n      sub\n      0x1f\n      and\n      dup3\n      add\n      swap2\n    tag_40:\n      pop\n      pop\n      pop\n      pop\n      pop\n      dup2\n      jump\t// out\n        /* \"contracts/myBLCtoken.sol\":1718:2201  function getWinner() public view returns (string memory) {... */\n    tag_22:\n        /* \"contracts/myBLCtoken.sol\":1760:1773  string memory */\n      0x60\n        /* \"contracts/myBLCtoken.sol\":1785:1805  string memory winner */\n      0x00\n        /* \"contracts/myBLCtoken.sol\":1808:1818  candidates */\n      0x01\n        /* \"contracts/myBLCtoken.sol\":1819:1820  0 */\n      0x00\n        /* \"contracts/myBLCtoken.sol\":1808:1821  candidates[0] */\n      dup2\n      sload\n      dup2\n      lt\n      tag_44\n      jumpi\n      tag_45\n      tag_46\n      jump\t// in\n    tag_45:\n    tag_44:\n      swap1\n      0x00\n      mstore\n      keccak256(0x00, 0x20)\n      add\n        /* \"contracts/myBLCtoken.sol\":1785:1821  string memory winner = candidates[0] */\n      dup1\n      sload\n      tag_48\n      swap1\n      tag_38\n      jump\t// in\n    tag_48:\n      dup1\n      0x1f\n      add\n      0x20\n      dup1\n      swap2\n      div\n      mul\n      0x20\n      add\n      mload(0x40)\n      swap1\n      dup2\n      add\n      0x40\n      mstore\n      dup1\n      swap3\n      swap2\n      swap1\n      dup2\n      dup2\n      mstore\n      0x20\n      add\n      dup3\n      dup1\n      sload\n      tag_49\n      swap1\n      tag_38\n      jump\t// in\n    tag_49:\n      dup1\n      iszero\n      tag_50\n      jumpi\n      dup1\n      0x1f\n      lt\n      tag_51\n      jumpi\n      0x0100\n      dup1\n      dup4\n      sload\n      div\n      mul\n      dup4\n      mstore\n      swap2\n      0x20\n      add\n      swap2\n      jump(tag_50)\n    tag_51:\n      dup3\n      add\n      swap2\n      swap1\n      0x00\n      mstore\n      keccak256(0x00, 0x20)\n      swap1\n    tag_52:\n      dup2\n      sload\n      dup2\n      mstore\n      swap1\n      0x01\n      add\n      swap1\n      0x20\n      add\n      dup1\n      dup4\n      gt\n      tag_52\n      jumpi\n      dup3\n      swap1\n      sub\n      0x1f\n      and\n      dup3\n      add\n      swap2\n    tag_50:\n      pop\n      pop\n      pop\n      pop\n      pop\n      swap1\n      pop\n        /* \"contracts/myBLCtoken.sol\":1831:1847  uint256 maxVotes */\n      0x00\n        /* \"contracts/myBLCtoken.sol\":1850:1855  votes */\n      dup1\n        /* \"contracts/myBLCtoken.sol\":1856:1862  winner */\n      dup3\n        /* \"contracts/myBLCtoken.sol\":1850:1863  votes[winner] */\n      mload(0x40)\n      tag_53\n      swap2\n      swap1\n      tag_54\n      jump\t// in\n    tag_53:\n      swap1\n      dup2\n      mstore\n      0x20\n      add\n      mload(0x40)\n      dup1\n      swap2\n      sub\n      swap1\n      keccak256\n      sload\n        /* \"contracts/myBLCtoken.sol\":1831:1863  uint256 maxVotes = votes[winner] */\n      swap1\n      pop\n        /* \"contracts/myBLCtoken.sol\":1879:1888  uint256 i */\n      0x00\n        /* \"contracts/myBLCtoken.sol\":1891:1892  1 */\n      0x01\n        /* \"contracts/myBLCtoken.sol\":1879:1892  uint256 i = 1 */\n      swap1\n      pop\n        /* \"contracts/myBLCtoken.sol\":1874:2087  for (uint256 i = 1; i < candidates.length; i++) {... */\n    tag_55:\n        /* \"contracts/myBLCtoken.sol\":1898:1908  candidates */\n      0x01\n        /* \"contracts/myBLCtoken.sol\":1898:1915  candidates.length */\n      dup1\n      sload\n      swap1\n      pop\n        /* \"contracts/myBLCtoken.sol\":1894:1895  i */\n      dup2\n        /* \"contracts/myBLCtoken.sol\":1894:1915  i < candidates.length */\n      lt\n        /* \"contracts/myBLCtoken.sol\":1874:2087  for (uint256 i = 1; i < candidates.length; i++) {... */\n      iszero\n      tag_56\n      jumpi\n        /* \"contracts/myBLCtoken.sol\":1963:1971  maxVotes */\n      dup2\n        /* \"contracts/myBLCtoken.sol\":1940:1945  votes */\n      0x00\n        /* \"contracts/myBLCtoken.sol\":1946:1956  candidates */\n      0x01\n        /* \"contracts/myBLCtoken.sol\":1957:1958  i */\n      dup4\n        /* \"contracts/myBLCtoken.sol\":1946:1959  candidates[i] */\n      dup2\n      sload\n      dup2\n      lt\n      tag_58\n      jumpi\n      tag_59\n      tag_46\n      jump\t// in\n    tag_59:\n    tag_58:\n      swap1\n      0x00\n      mstore\n      keccak256(0x00, 0x20)\n      add\n        /* \"contracts/myBLCtoken.sol\":1940:1960  votes[candidates[i]] */\n      mload(0x40)\n      tag_61\n      swap2\n      swap1\n      tag_62\n      jump\t// in\n    tag_61:\n      swap1\n      dup2\n      mstore\n      0x20\n      add\n      mload(0x40)\n      dup1\n      swap2\n      sub\n      swap1\n      keccak256\n      sload\n        /* \"contracts/myBLCtoken.sol\":1940:1971  votes[candidates[i]] > maxVotes */\n      gt\n        /* \"contracts/myBLCtoken.sol\":1936:2077  if (votes[candidates[i]] > maxVotes) {... */\n      iszero\n      tag_63\n      jumpi\n        /* \"contracts/myBLCtoken.sol\":2000:2010  candidates */\n      0x01\n        /* \"contracts/myBLCtoken.sol\":2011:2012  i */\n      dup2\n        /* \"contracts/myBLCtoken.sol\":2000:2013  candidates[i] */\n      dup2\n      sload\n      dup2\n      lt\n      tag_64\n      jumpi\n      tag_65\n      tag_46\n      jump\t// in\n    tag_65:\n    tag_64:\n      swap1\n      0x00\n      mstore\n      keccak256(0x00, 0x20)\n      add\n        /* \"contracts/myBLCtoken.sol\":1991:2013  winner = candidates[i] */\n      dup1\n      sload\n      tag_67\n      swap1\n      tag_38\n      jump\t// in\n    tag_67:\n      dup1\n      0x1f\n      add\n      0x20\n      dup1\n      swap2\n      div\n      mul\n      0x20\n      add\n      mload(0x40)\n      swap1\n      dup2\n      add\n      0x40\n      mstore\n      dup1\n      swap3\n      swap2\n      swap1\n      dup2\n      dup2\n      mstore\n      0x20\n      add\n      dup3\n      dup1\n      sload\n      tag_68\n      swap1\n      tag_38\n      jump\t// in\n    tag_68:\n      dup1\n      iszero\n      tag_69\n      jumpi\n      dup1\n      0x1f\n      lt\n      tag_70\n      jumpi\n      0x0100\n      dup1\n      dup4\n      sload\n      div\n      mul\n      dup4\n      mstore\n      swap2\n      0x20\n      add\n      swap2\n      jump(tag_69)\n    tag_70:\n      dup3\n      add\n      swap2\n      swap1\n      0x00\n      mstore\n      keccak256(0x00, 0x20)\n      swap1\n    tag_71:\n      dup2\n      sload\n      dup2\n      mstore\n      swap1\n      0x01\n      add\n      swap1\n      0x20\n      add\n      dup1\n      dup4\n      gt\n      tag_71\n      jumpi\n      dup3\n      swap1\n      sub\n      0x1f\n      and\n      dup3\n      add\n      swap2\n    tag_69:\n      pop\n      pop\n      pop\n      pop\n      pop\n      swap3\n      pop\n        /* \"contracts/myBLCtoken.sol\":2042:2047  votes */\n      0x00\n        /* \"contracts/myBLCtoken.sol\":2048:2058  candidates */\n      0x01\n        /* \"contracts/myBLCtoken.sol\":2059:2060  i */\n      dup3\n        /* \"contracts/myBLCtoken.sol\":2048:2061  candidates[i] */\n      dup2\n      sload\n      dup2\n      lt\n      tag_72\n      jumpi\n      tag_73\n      tag_46\n      jump\t// in\n    tag_73:\n    tag_72:\n      swap1\n      0x00\n      mstore\n      keccak256(0x00, 0x20)\n      add\n        /* \"contracts/myBLCtoken.sol\":2042:2062  votes[candidates[i]] */\n      mload(0x40)\n      tag_75\n      swap2\n      swap1\n      tag_62\n      jump\t// in\n    tag_75:\n      swap1\n      dup2\n      mstore\n      0x20\n      add\n      mload(0x40)\n      dup1\n      swap2\n      sub\n      swap1\n      keccak256\n      sload\n        /* \"contracts/myBLCtoken.sol\":2031:2062  maxVotes = votes[candidates[i]] */\n      swap2\n      pop\n        /* \"contracts/myBLCtoken.sol\":1936:2077  if (votes[candidates[i]] > maxVotes) {... */\n    tag_63:\n        /* \"contracts/myBLCtoken.sol\":1917:1920  i++ */\n      dup1\n      dup1\n      0x01\n      add\n      swap2\n      pop\n      pop\n        /* \"contracts/myBLCtoken.sol\":1874:2087  for (uint256 i = 1; i < candidates.length; i++) {... */\n      jump(tag_55)\n    tag_56:\n      pop\n        /* \"contracts/myBLCtoken.sol\":2168:2169  0 */\n      0x00\n        /* \"contracts/myBLCtoken.sol\":2157:2165  maxVotes */\n      dup2\n        /* \"contracts/myBLCtoken.sol\":2157:2169  maxVotes > 0 */\n      gt\n        /* \"contracts/myBLCtoken.sol\":2150:2170  assert(maxVotes > 0) */\n      tag_76\n      jumpi\n      tag_77\n      tag_78\n      jump\t// in\n    tag_77:\n    tag_76:\n        /* \"contracts/myBLCtoken.sol\":2188:2194  winner */\n      dup2\n        /* \"contracts/myBLCtoken.sol\":2181:2194  return winner */\n      swap3\n      pop\n      pop\n      pop\n        /* \"contracts/myBLCtoken.sol\":1718:2201  function getWinner() public view returns (string memory) {... */\n      swap1\n      jump\t// out\n        /* \"contracts/myBLCtoken.sol\":712:1526  function castVote(string memory _candidate) public {... */\n    tag_27:\n        /* \"contracts/myBLCtoken.sol\":838:846  hasVoted */\n      0x02\n        /* \"contracts/myBLCtoken.sol\":838:858  hasVoted[msg.sender] */\n      0x00\n        /* \"contracts/myBLCtoken.sol\":847:857  msg.sender */\n      caller\n        /* \"contracts/myBLCtoken.sol\":838:858  hasVoted[msg.sender] */\n      0xffffffffffffffffffffffffffffffffffffffff\n      and\n      0xffffffffffffffffffffffffffffffffffffffff\n      and\n      dup2\n      mstore\n      0x20\n      add\n      swap1\n      dup2\n      mstore\n      0x20\n      add\n      0x00\n      keccak256\n      0x00\n      swap1\n      sload\n      swap1\n      0x0100\n      exp\n      swap1\n      div\n      0xff\n      and\n        /* \"contracts/myBLCtoken.sol\":837:858  !hasVoted[msg.sender] */\n      iszero\n        /* \"contracts/myBLCtoken.sol\":829:885  require(!hasVoted[msg.sender], \"You have already voted\") */\n      tag_80\n      jumpi\n      mload(0x40)\n      0x08c379a000000000000000000000000000000000000000000000000000000000\n      dup2\n      mstore\n      0x04\n      add\n      tag_81\n      swap1\n      tag_82\n      jump\t// in\n    tag_81:\n      mload(0x40)\n      dup1\n      swap2\n      sub\n      swap1\n      revert\n    tag_80:\n        /* \"contracts/myBLCtoken.sol\":943:962  bool validCandidate */\n      0x00\n        /* \"contracts/myBLCtoken.sol\":985:994  uint256 i */\n      dup1\n        /* \"contracts/myBLCtoken.sol\":980:1220  for (uint256 i = 0; i < candidates.length; i++) {... */\n    tag_83:\n        /* \"contracts/myBLCtoken.sol\":1004:1014  candidates */\n      0x01\n        /* \"contracts/myBLCtoken.sol\":1004:1021  candidates.length */\n      dup1\n      sload\n      swap1\n      pop\n        /* \"contracts/myBLCtoken.sol\":1000:1001  i */\n      dup2\n        /* \"contracts/myBLCtoken.sol\":1000:1021  i < candidates.length */\n      lt\n        /* \"contracts/myBLCtoken.sol\":980:1220  for (uint256 i = 0; i < candidates.length; i++) {... */\n      iszero\n      tag_84\n      jumpi\n        /* \"contracts/myBLCtoken.sol\":1119:1129  _candidate */\n      dup3\n        /* \"contracts/myBLCtoken.sol\":1102:1130  abi.encodePacked(_candidate) */\n      add(0x20, mload(0x40))\n      tag_86\n      swap2\n      swap1\n      tag_54\n      jump\t// in\n    tag_86:\n      mload(0x40)\n      0x20\n      dup2\n      dup4\n      sub\n      sub\n      dup2\n      mstore\n      swap1\n      0x40\n      mstore\n        /* \"contracts/myBLCtoken.sol\":1092:1131  keccak256(abi.encodePacked(_candidate)) */\n      dup1\n      mload\n      swap1\n      0x20\n      add\n      keccak256\n        /* \"contracts/myBLCtoken.sol\":1073:1083  candidates */\n      0x01\n        /* \"contracts/myBLCtoken.sol\":1084:1085  i */\n      dup3\n        /* \"contracts/myBLCtoken.sol\":1073:1086  candidates[i] */\n      dup2\n      sload\n      dup2\n      lt\n      tag_87\n      jumpi\n      tag_88\n      tag_46\n      jump\t// in\n    tag_88:\n    tag_87:\n      swap1\n      0x00\n      mstore\n      keccak256(0x00, 0x20)\n      add\n        /* \"contracts/myBLCtoken.sol\":1056:1087  abi.encodePacked(candidates[i]) */\n      add(0x20, mload(0x40))\n      tag_90\n      swap2\n      swap1\n      tag_62\n      jump\t// in\n    tag_90:\n      mload(0x40)\n      0x20\n      dup2\n      dup4\n      sub\n      sub\n      dup2\n      mstore\n      swap1\n      0x40\n      mstore\n        /* \"contracts/myBLCtoken.sol\":1046:1088  keccak256(abi.encodePacked(candidates[i])) */\n      dup1\n      mload\n      swap1\n      0x20\n      add\n      keccak256\n        /* \"contracts/myBLCtoken.sol\":1046:1131  keccak256(abi.encodePacked(candidates[i])) == keccak256(abi.encodePacked(_candidate)) */\n      sub\n        /* \"contracts/myBLCtoken.sol\":1042:1210  if (keccak256(abi.encodePacked(candidates[i])) == keccak256(abi.encodePacked(_candidate))) {... */\n      tag_91\n      jumpi\n        /* \"contracts/myBLCtoken.sol\":1168:1172  true */\n      0x01\n        /* \"contracts/myBLCtoken.sol\":1151:1172  validCandidate = true */\n      swap2\n      pop\n        /* \"contracts/myBLCtoken.sol\":1190:1195  break */\n      jump(tag_84)\n        /* \"contracts/myBLCtoken.sol\":1042:1210  if (keccak256(abi.encodePacked(candidates[i])) == keccak256(abi.encodePacked(_candidate))) {... */\n    tag_91:\n        /* \"contracts/myBLCtoken.sol\":1023:1026  i++ */\n      dup1\n      dup1\n      0x01\n      add\n      swap2\n      pop\n      pop\n        /* \"contracts/myBLCtoken.sol\":980:1220  for (uint256 i = 0; i < candidates.length; i++) {... */\n      jump(tag_83)\n    tag_84:\n      pop\n        /* \"contracts/myBLCtoken.sol\":1237:1251  validCandidate */\n      dup1\n        /* \"contracts/myBLCtoken.sol\":1229:1273  require(validCandidate, \"Invalid candidate\") */\n      tag_92\n      jumpi\n      mload(0x40)\n      0x08c379a000000000000000000000000000000000000000000000000000000000\n      dup2\n      mstore\n      0x04\n      add\n      tag_93\n      swap1\n      tag_94\n      jump\t// in\n    tag_93:\n      mload(0x40)\n      dup1\n      swap2\n      sub\n      swap1\n      revert\n    tag_92:\n        /* \"contracts/myBLCtoken.sol\":1338:1343  votes */\n      0x00\n        /* \"contracts/myBLCtoken.sol\":1344:1354  _candidate */\n      dup3\n        /* \"contracts/myBLCtoken.sol\":1338:1355  votes[_candidate] */\n      mload(0x40)\n      tag_95\n      swap2\n      swap1\n      tag_54\n      jump\t// in\n    tag_95:\n      swap1\n      dup2\n      mstore\n      0x20\n      add\n      mload(0x40)\n      dup1\n      swap2\n      sub\n      swap1\n      keccak256\n      0x00\n        /* \"contracts/myBLCtoken.sol\":1338:1357  votes[_candidate]++ */\n      dup2\n      sload\n      dup1\n      swap3\n      swap2\n      swap1\n      tag_96\n      swap1\n      tag_97\n      jump\t// in\n    tag_96:\n      swap2\n      swap1\n      pop\n      sstore\n      pop\n        /* \"contracts/myBLCtoken.sol\":1432:1436  true */\n      0x01\n        /* \"contracts/myBLCtoken.sol\":1409:1417  hasVoted */\n      0x02\n        /* \"contracts/myBLCtoken.sol\":1409:1429  hasVoted[msg.sender] */\n      0x00\n        /* \"contracts/myBLCtoken.sol\":1418:1428  msg.sender */\n      caller\n        /* \"contracts/myBLCtoken.sol\":1409:1429  hasVoted[msg.sender] */\n      0xffffffffffffffffffffffffffffffffffffffff\n      and\n      0xffffffffffffffffffffffffffffffffffffffff\n      and\n      dup2\n      mstore\n      0x20\n      add\n      swap1\n      dup2\n      mstore\n      0x20\n      add\n      0x00\n      keccak256\n      0x00\n        /* \"contracts/myBLCtoken.sol\":1409:1436  hasVoted[msg.sender] = true */\n      0x0100\n      exp\n      dup2\n      sload\n      dup2\n      0xff\n      mul\n      not\n      and\n      swap1\n      dup4\n      iszero\n      iszero\n      mul\n      or\n      swap1\n      sstore\n      pop\n        /* \"contracts/myBLCtoken.sol\":1487:1519  VoteCast(msg.sender, _candidate) */\n      0x866dc605853954ffa419910eb05d67f430efec2e7db7ce135bf55565667a4ab4\n        /* \"contracts/myBLCtoken.sol\":1496:1506  msg.sender */\n      caller\n        /* \"contracts/myBLCtoken.sol\":1508:1518  _candidate */\n      dup4\n        /* \"contracts/myBLCtoken.sol\":1487:1519  VoteCast(msg.sender, _candidate) */\n      mload(0x40)\n      tag_98\n      swap3\n      swap2\n      swap1\n      tag_99\n      jump\t// in\n    tag_98:\n      mload(0x40)\n      dup1\n      swap2\n      sub\n      swap1\n      log1\n        /* \"contracts/myBLCtoken.sol\":763:1526  {... */\n      pop\n        /* \"contracts/myBLCtoken.sol\":712:1526  function castVote(string memory _candidate) public {... */\n      pop\n      jump\t// out\n        /* \"contracts/myBLCtoken.sol\":135:174  mapping(string => uint256) public votes */\n    tag_30:\n      0x00\n      dup2\n      dup1\n      mload\n      0x20\n      dup2\n      add\n      dup3\n      add\n      dup1\n      mload\n      dup5\n      dup3\n      mstore\n      0x20\n      dup4\n      add\n      0x20\n      dup6\n      add\n      keccak256\n      dup2\n      dup4\n      mstore\n      dup1\n      swap6\n      pop\n      pop\n      pop\n      pop\n      pop\n      pop\n      0x00\n      swap2\n      pop\n      swap1\n      pop\n      sload\n      dup2\n      jump\t// out\n        /* \"contracts/myBLCtoken.sol\":1573:1662  function endVotingPeriod() public pure {... */\n    tag_34:\n        /* \"contracts/myBLCtoken.sol\":1622:1655  revert(\"Voting period has ended\") */\n      mload(0x40)\n      0x08c379a000000000000000000000000000000000000000000000000000000000\n      dup2\n      mstore\n      0x04\n      add\n      tag_101\n      swap1\n      tag_102\n      jump\t// in\n    tag_101:\n      mload(0x40)\n      dup1\n      swap2\n      sub\n      swap1\n      revert\n        /* \"#utility.yul\":7:82   */\n    tag_103:\n        /* \"#utility.yul\":40:46   */\n      0x00\n        /* \"#utility.yul\":73:75   */\n      0x40\n        /* \"#utility.yul\":67:76   */\n      mload\n        /* \"#utility.yul\":57:76   */\n      swap1\n      pop\n        /* \"#utility.yul\":7:82   */\n      swap1\n      jump\t// out\n        /* \"#utility.yul\":88:205   */\n    tag_104:\n        /* \"#utility.yul\":197:198   */\n      0x00\n        /* \"#utility.yul\":194:195   */\n      dup1\n        /* \"#utility.yul\":187:199   */\n      revert\n        /* \"#utility.yul\":211:328   */\n    tag_105:\n        /* \"#utility.yul\":320:321   */\n      0x00\n        /* \"#utility.yul\":317:318   */\n      dup1\n        /* \"#utility.yul\":310:322   */\n      revert\n        /* \"#utility.yul\":334:460   */\n    tag_106:\n        /* \"#utility.yul\":371:378   */\n      0x00\n        /* \"#utility.yul\":411:453   */\n      0xffffffffffffffffffffffffffffffffffffffff\n        /* \"#utility.yul\":404:409   */\n      dup3\n        /* \"#utility.yul\":400:454   */\n      and\n        /* \"#utility.yul\":389:454   */\n      swap1\n      pop\n        /* \"#utility.yul\":334:460   */\n      swap2\n      swap1\n      pop\n      jump\t// out\n        /* \"#utility.yul\":466:562   */\n    tag_107:\n        /* \"#utility.yul\":503:510   */\n      0x00\n        /* \"#utility.yul\":532:556   */\n      tag_149\n        /* \"#utility.yul\":550:555   */\n      dup3\n        /* \"#utility.yul\":532:556   */\n      tag_106\n      jump\t// in\n    tag_149:\n        /* \"#utility.yul\":521:556   */\n      swap1\n      pop\n        /* \"#utility.yul\":466:562   */\n      swap2\n      swap1\n      pop\n      jump\t// out\n        /* \"#utility.yul\":568:690   */\n    tag_108:\n        /* \"#utility.yul\":641:665   */\n      tag_151\n        /* \"#utility.yul\":659:664   */\n      dup2\n        /* \"#utility.yul\":641:665   */\n      tag_107\n      jump\t// in\n    tag_151:\n        /* \"#utility.yul\":634:639   */\n      dup2\n        /* \"#utility.yul\":631:666   */\n      eq\n        /* \"#utility.yul\":621:684   */\n      tag_152\n      jumpi\n        /* \"#utility.yul\":680:681   */\n      0x00\n        /* \"#utility.yul\":677:678   */\n      dup1\n        /* \"#utility.yul\":670:682   */\n      revert\n        /* \"#utility.yul\":621:684   */\n    tag_152:\n        /* \"#utility.yul\":568:690   */\n      pop\n      jump\t// out\n        /* \"#utility.yul\":696:835   */\n    tag_109:\n        /* \"#utility.yul\":742:747   */\n      0x00\n        /* \"#utility.yul\":780:786   */\n      dup2\n        /* \"#utility.yul\":767:787   */\n      calldataload\n        /* \"#utility.yul\":758:787   */\n      swap1\n      pop\n        /* \"#utility.yul\":796:829   */\n      tag_154\n        /* \"#utility.yul\":823:828   */\n      dup2\n        /* \"#utility.yul\":796:829   */\n      tag_108\n      jump\t// in\n    tag_154:\n        /* \"#utility.yul\":696:835   */\n      swap3\n      swap2\n      pop\n      pop\n      jump\t// out\n        /* \"#utility.yul\":841:1170   */\n    tag_11:\n        /* \"#utility.yul\":900:906   */\n      0x00\n        /* \"#utility.yul\":949:951   */\n      0x20\n        /* \"#utility.yul\":937:946   */\n      dup3\n        /* \"#utility.yul\":928:935   */\n      dup5\n        /* \"#utility.yul\":924:947   */\n      sub\n        /* \"#utility.yul\":920:952   */\n      slt\n        /* \"#utility.yul\":917:1036   */\n      iszero\n      tag_156\n      jumpi\n        /* \"#utility.yul\":955:1034   */\n      tag_157\n      tag_104\n      jump\t// in\n    tag_157:\n        /* \"#utility.yul\":917:1036   */\n    tag_156:\n        /* \"#utility.yul\":1075:1076   */\n      0x00\n        /* \"#utility.yul\":1100:1153   */\n      tag_158\n        /* \"#utility.yul\":1145:1152   */\n      dup5\n        /* \"#utility.yul\":1136:1142   */\n      dup3\n        /* \"#utility.yul\":1125:1134   */\n      dup6\n        /* \"#utility.yul\":1121:1143   */\n      add\n        /* \"#utility.yul\":1100:1153   */\n      tag_109\n      jump\t// in\n    tag_158:\n        /* \"#utility.yul\":1090:1153   */\n      swap2\n      pop\n        /* \"#utility.yul\":1046:1163   */\n      pop\n        /* \"#utility.yul\":841:1170   */\n      swap3\n      swap2\n      pop\n      pop\n      jump\t// out\n        /* \"#utility.yul\":1176:1266   */\n    tag_110:\n        /* \"#utility.yul\":1210:1217   */\n      0x00\n        /* \"#utility.yul\":1253:1258   */\n      dup2\n        /* \"#utility.yul\":1246:1259   */\n      iszero\n        /* \"#utility.yul\":1239:1260   */\n      iszero\n        /* \"#utility.yul\":1228:1260   */\n      swap1\n      pop\n        /* \"#utility.yul\":1176:1266   */\n      swap2\n      swap1\n      pop\n      jump\t// out\n        /* \"#utility.yul\":1272:1381   */\n    tag_111:\n        /* \"#utility.yul\":1353:1374   */\n      tag_161\n        /* \"#utility.yul\":1368:1373   */\n      dup2\n        /* \"#utility.yul\":1353:1374   */\n      tag_110\n      jump\t// in\n    tag_161:\n        /* \"#utility.yul\":1348:1351   */\n      dup3\n        /* \"#utility.yul\":1341:1375   */\n      mstore\n        /* \"#utility.yul\":1272:1381   */\n      pop\n      pop\n      jump\t// out\n        /* \"#utility.yul\":1387:1597   */\n    tag_14:\n        /* \"#utility.yul\":1474:1478   */\n      0x00\n        /* \"#utility.yul\":1512:1514   */\n      0x20\n        /* \"#utility.yul\":1501:1510   */\n      dup3\n        /* \"#utility.yul\":1497:1515   */\n      add\n        /* \"#utility.yul\":1489:1515   */\n      swap1\n      pop\n        /* \"#utility.yul\":1525:1590   */\n      tag_163\n        /* \"#utility.yul\":1587:1588   */\n      0x00\n        /* \"#utility.yul\":1576:1585   */\n      dup4\n        /* \"#utility.yul\":1572:1589   */\n      add\n        /* \"#utility.yul\":1563:1569   */\n      dup5\n        /* \"#utility.yul\":1525:1590   */\n      tag_111\n      jump\t// in\n    tag_163:\n        /* \"#utility.yul\":1387:1597   */\n      swap3\n      swap2\n      pop\n      pop\n      jump\t// out\n        /* \"#utility.yul\":1603:1680   */\n    tag_112:\n        /* \"#utility.yul\":1640:1647   */\n      0x00\n        /* \"#utility.yul\":1669:1674   */\n      dup2\n        /* \"#utility.yul\":1658:1674   */\n      swap1\n      pop\n        /* \"#utility.yul\":1603:1680   */\n      swap2\n      swap1\n      pop\n      jump\t// out\n        /* \"#utility.yul\":1686:1808   */\n    tag_113:\n        /* \"#utility.yul\":1759:1783   */\n      tag_166\n        /* \"#utility.yul\":1777:1782   */\n      dup2\n        /* \"#utility.yul\":1759:1783   */\n      tag_112\n      jump\t// in\n    tag_166:\n        /* \"#utility.yul\":1752:1757   */\n      dup2\n        /* \"#utility.yul\":1749:1784   */\n      eq\n        /* \"#utility.yul\":1739:1802   */\n      tag_167\n      jumpi\n        /* \"#utility.yul\":1798:1799   */\n      0x00\n        /* \"#utility.yul\":1795:1796   */\n      dup1\n        /* \"#utility.yul\":1788:1800   */\n      revert\n        /* \"#utility.yul\":1739:1802   */\n    tag_167:\n        /* \"#utility.yul\":1686:1808   */\n      pop\n      jump\t// out\n        /* \"#utility.yul\":1814:1953   */\n    tag_114:\n        /* \"#utility.yul\":1860:1865   */\n      0x00\n        /* \"#utility.yul\":1898:1904   */\n      dup2\n        /* \"#utility.yul\":1885:1905   */\n      calldataload\n        /* \"#utility.yul\":1876:1905   */\n      swap1\n      pop\n        /* \"#utility.yul\":1914:1947   */\n      tag_169\n        /* \"#utility.yul\":1941:1946   */\n      dup2\n        /* \"#utility.yul\":1914:1947   */\n      tag_113\n      jump\t// in\n    tag_169:\n        /* \"#utility.yul\":1814:1953   */\n      swap3\n      swap2\n      pop\n      pop\n      jump\t// out\n        /* \"#utility.yul\":1959:2288   */\n    tag_17:\n        /* \"#utility.yul\":2018:2024   */\n      0x00\n        /* \"#utility.yul\":2067:2069   */\n      0x20\n        /* \"#utility.yul\":2055:2064   */\n      dup3\n        /* \"#utility.yul\":2046:2053   */\n      dup5\n        /* \"#utility.yul\":2042:2065   */\n      sub\n        /* \"#utility.yul\":2038:2070   */\n      slt\n        /* \"#utility.yul\":2035:2154   */\n      iszero\n      tag_171\n      jumpi\n        /* \"#utility.yul\":2073:2152   */\n      tag_172\n      tag_104\n      jump\t// in\n    tag_172:\n        /* \"#utility.yul\":2035:2154   */\n    tag_171:\n        /* \"#utility.yul\":2193:2194   */\n      0x00\n        /* \"#utility.yul\":2218:2271   */\n      tag_173\n        /* \"#utility.yul\":2263:2270   */\n      dup5\n        /* \"#utility.yul\":2254:2260   */\n      dup3\n        /* \"#utility.yul\":2243:2252   */\n      dup6\n        /* \"#utility.yul\":2239:2261   */\n      add\n        /* \"#utility.yul\":2218:2271   */\n      tag_114\n      jump\t// in\n    tag_173:\n        /* \"#utility.yul\":2208:2271   */\n      swap2\n      pop\n        /* \"#utility.yul\":2164:2281   */\n      pop\n        /* \"#utility.yul\":1959:2288   */\n      swap3\n      swap2\n      pop\n      pop\n      jump\t// out\n        /* \"#utility.yul\":2294:2393   */\n    tag_115:\n        /* \"#utility.yul\":2346:2352   */\n      0x00\n        /* \"#utility.yul\":2380:2385   */\n      dup2\n        /* \"#utility.yul\":2374:2386   */\n      mload\n        /* \"#utility.yul\":2364:2386   */\n      swap1\n      pop\n        /* \"#utility.yul\":2294:2393   */\n      swap2\n      swap1\n      pop\n      jump\t// out\n        /* \"#utility.yul\":2399:2568   */\n    tag_116:\n        /* \"#utility.yul\":2483:2494   */\n      0x00\n        /* \"#utility.yul\":2517:2523   */\n      dup3\n        /* \"#utility.yul\":2512:2515   */\n      dup3\n        /* \"#utility.yul\":2505:2524   */\n      mstore\n        /* \"#utility.yul\":2557:2561   */\n      0x20\n        /* \"#utility.yul\":2552:2555   */\n      dup3\n        /* \"#utility.yul\":2548:2562   */\n      add\n        /* \"#utility.yul\":2533:2562   */\n      swap1\n      pop\n        /* \"#utility.yul\":2399:2568   */\n      swap3\n      swap2\n      pop\n      pop\n      jump\t// out\n        /* \"#utility.yul\":2574:2713   */\n    tag_117:\n        /* \"#utility.yul\":2663:2669   */\n      dup3\n        /* \"#utility.yul\":2658:2661   */\n      dup2\n        /* \"#utility.yul\":2653:2656   */\n      dup4\n        /* \"#utility.yul\":2647:2670   */\n      mcopy\n        /* \"#utility.yul\":2704:2705   */\n      0x00\n        /* \"#utility.yul\":2695:2701   */\n      dup4\n        /* \"#utility.yul\":2690:2693   */\n      dup4\n        /* \"#utility.yul\":2686:2702   */\n      add\n        /* \"#utility.yul\":2679:2706   */\n      mstore\n        /* \"#utility.yul\":2574:2713   */\n      pop\n      pop\n      pop\n      jump\t// out\n        /* \"#utility.yul\":2719:2821   */\n    tag_118:\n        /* \"#utility.yul\":2760:2766   */\n      0x00\n        /* \"#utility.yul\":2811:2813   */\n      0x1f\n        /* \"#utility.yul\":2807:2814   */\n      not\n        /* \"#utility.yul\":2802:2804   */\n      0x1f\n        /* \"#utility.yul\":2795:2800   */\n      dup4\n        /* \"#utility.yul\":2791:2805   */\n      add\n        /* \"#utility.yul\":2787:2815   */\n      and\n        /* \"#utility.yul\":2777:2815   */\n      swap1\n      pop\n        /* \"#utility.yul\":2719:2821   */\n      swap2\n      swap1\n      pop\n      jump\t// out\n        /* \"#utility.yul\":2827:3204   */\n    tag_119:\n        /* \"#utility.yul\":2915:2918   */\n      0x00\n        /* \"#utility.yul\":2943:2982   */\n      tag_179\n        /* \"#utility.yul\":2976:2981   */\n      dup3\n        /* \"#utility.yul\":2943:2982   */\n      tag_115\n      jump\t// in\n    tag_179:\n        /* \"#utility.yul\":2998:3069   */\n      tag_180\n        /* \"#utility.yul\":3062:3068   */\n      dup2\n        /* \"#utility.yul\":3057:3060   */\n      dup6\n        /* \"#utility.yul\":2998:3069   */\n      tag_116\n      jump\t// in\n    tag_180:\n        /* \"#utility.yul\":2991:3069   */\n      swap4\n      pop\n        /* \"#utility.yul\":3078:3143   */\n      tag_181\n        /* \"#utility.yul\":3136:3142   */\n      dup2\n        /* \"#utility.yul\":3131:3134   */\n      dup6\n        /* \"#utility.yul\":3124:3128   */\n      0x20\n        /* \"#utility.yul\":3117:3122   */\n      dup7\n        /* \"#utility.yul\":3113:3129   */\n      add\n        /* \"#utility.yul\":3078:3143   */\n      tag_117\n      jump\t// in\n    tag_181:\n        /* \"#utility.yul\":3168:3197   */\n      tag_182\n        /* \"#utility.yul\":3190:3196   */\n      dup2\n        /* \"#utility.yul\":3168:3197   */\n      tag_118\n      jump\t// in\n    tag_182:\n        /* \"#utility.yul\":3163:3166   */\n      dup5\n        /* \"#utility.yul\":3159:3198   */\n      add\n        /* \"#utility.yul\":3152:3198   */\n      swap2\n      pop\n        /* \"#utility.yul\":2919:3204   */\n      pop\n        /* \"#utility.yul\":2827:3204   */\n      swap3\n      swap2\n      pop\n      pop\n      jump\t// out\n        /* \"#utility.yul\":3210:3523   */\n    tag_20:\n        /* \"#utility.yul\":3323:3327   */\n      0x00\n        /* \"#utility.yul\":3361:3363   */\n      0x20\n        /* \"#utility.yul\":3350:3359   */\n      dup3\n        /* \"#utility.yul\":3346:3364   */\n      add\n        /* \"#utility.yul\":3338:3364   */\n      swap1\n      pop\n        /* \"#utility.yul\":3410:3419   */\n      dup2\n        /* \"#utility.yul\":3404:3408   */\n      dup2\n        /* \"#utility.yul\":3400:3420   */\n      sub\n        /* \"#utility.yul\":3396:3397   */\n      0x00\n        /* \"#utility.yul\":3385:3394   */\n      dup4\n        /* \"#utility.yul\":3381:3398   */\n      add\n        /* \"#utility.yul\":3374:3421   */\n      mstore\n        /* \"#utility.yul\":3438:3516   */\n      tag_184\n        /* \"#utility.yul\":3511:3515   */\n      dup2\n        /* \"#utility.yul\":3502:3508   */\n      dup5\n        /* \"#utility.yul\":3438:3516   */\n      tag_119\n      jump\t// in\n    tag_184:\n        /* \"#utility.yul\":3430:3516   */\n      swap1\n      pop\n        /* \"#utility.yul\":3210:3523   */\n      swap3\n      swap2\n      pop\n      pop\n      jump\t// out\n        /* \"#utility.yul\":3529:3646   */\n    tag_120:\n        /* \"#utility.yul\":3638:3639   */\n      0x00\n        /* \"#utility.yul\":3635:3636   */\n      dup1\n        /* \"#utility.yul\":3628:3640   */\n      revert\n        /* \"#utility.yul\":3652:3769   */\n    tag_121:\n        /* \"#utility.yul\":3761:3762   */\n      0x00\n        /* \"#utility.yul\":3758:3759   */\n      dup1\n        /* \"#utility.yul\":3751:3763   */\n      revert\n        /* \"#utility.yul\":3775:3955   */\n    tag_122:\n        /* \"#utility.yul\":3823:3900   */\n      0x4e487b7100000000000000000000000000000000000000000000000000000000\n        /* \"#utility.yul\":3820:3821   */\n      0x00\n        /* \"#utility.yul\":3813:3901   */\n      mstore\n        /* \"#utility.yul\":3920:3924   */\n      0x41\n        /* \"#utility.yul\":3917:3918   */\n      0x04\n        /* \"#utility.yul\":3910:3925   */\n      mstore\n        /* \"#utility.yul\":3944:3948   */\n      0x24\n        /* \"#utility.yul\":3941:3942   */\n      0x00\n        /* \"#utility.yul\":3934:3949   */\n      revert\n        /* \"#utility.yul\":3961:4242   */\n    tag_123:\n        /* \"#utility.yul\":4044:4071   */\n      tag_189\n        /* \"#utility.yul\":4066:4070   */\n      dup3\n        /* \"#utility.yul\":4044:4071   */\n      tag_118\n      jump\t// in\n    tag_189:\n        /* \"#utility.yul\":4036:4042   */\n      dup2\n        /* \"#utility.yul\":4032:4072   */\n      add\n        /* \"#utility.yul\":4174:4180   */\n      dup2\n        /* \"#utility.yul\":4162:4172   */\n      dup2\n        /* \"#utility.yul\":4159:4181   */\n      lt\n        /* \"#utility.yul\":4138:4156   */\n      0xffffffffffffffff\n        /* \"#utility.yul\":4126:4136   */\n      dup3\n        /* \"#utility.yul\":4123:4157   */\n      gt\n        /* \"#utility.yul\":4120:4182   */\n      or\n        /* \"#utility.yul\":4117:4205   */\n      iszero\n      tag_190\n      jumpi\n        /* \"#utility.yul\":4185:4203   */\n      tag_191\n      tag_122\n      jump\t// in\n    tag_191:\n        /* \"#utility.yul\":4117:4205   */\n    tag_190:\n        /* \"#utility.yul\":4225:4235   */\n      dup1\n        /* \"#utility.yul\":4221:4223   */\n      0x40\n        /* \"#utility.yul\":4214:4236   */\n      mstore\n        /* \"#utility.yul\":4004:4242   */\n      pop\n        /* \"#utility.yul\":3961:4242   */\n      pop\n      pop\n      jump\t// out\n        /* \"#utility.yul\":4248:4377   */\n    tag_124:\n        /* \"#utility.yul\":4282:4288   */\n      0x00\n        /* \"#utility.yul\":4309:4329   */\n      tag_193\n      tag_103\n      jump\t// in\n    tag_193:\n        /* \"#utility.yul\":4299:4329   */\n      swap1\n      pop\n        /* \"#utility.yul\":4338:4371   */\n      tag_194\n        /* \"#utility.yul\":4366:4370   */\n      dup3\n        /* \"#utility.yul\":4358:4364   */\n      dup3\n        /* \"#utility.yul\":4338:4371   */\n      tag_123\n      jump\t// in\n    tag_194:\n        /* \"#utility.yul\":4248:4377   */\n      swap2\n      swap1\n      pop\n      jump\t// out\n        /* \"#utility.yul\":4383:4691   */\n    tag_125:\n        /* \"#utility.yul\":4445:4449   */\n      0x00\n        /* \"#utility.yul\":4535:4553   */\n      0xffffffffffffffff\n        /* \"#utility.yul\":4527:4533   */\n      dup3\n        /* \"#utility.yul\":4524:4554   */\n      gt\n        /* \"#utility.yul\":4521:4577   */\n      iszero\n      tag_196\n      jumpi\n        /* \"#utility.yul\":4557:4575   */\n      tag_197\n      tag_122\n      jump\t// in\n    tag_197:\n        /* \"#utility.yul\":4521:4577   */\n    tag_196:\n        /* \"#utility.yul\":4595:4624   */\n      tag_198\n        /* \"#utility.yul\":4617:4623   */\n      dup3\n        /* \"#utility.yul\":4595:4624   */\n      tag_118\n      jump\t// in\n    tag_198:\n        /* \"#utility.yul\":4587:4624   */\n      swap1\n      pop\n        /* \"#utility.yul\":4679:4683   */\n      0x20\n        /* \"#utility.yul\":4673:4677   */\n      dup2\n        /* \"#utility.yul\":4669:4684   */\n      add\n        /* \"#utility.yul\":4661:4684   */\n      swap1\n      pop\n        /* \"#utility.yul\":4383:4691   */\n      swap2\n      swap1\n      pop\n      jump\t// out\n        /* \"#utility.yul\":4697:4845   */\n    tag_126:\n        /* \"#utility.yul\":4795:4801   */\n      dup3\n        /* \"#utility.yul\":4790:4793   */\n      dup2\n        /* \"#utility.yul\":4785:4788   */\n      dup4\n        /* \"#utility.yul\":4772:4802   */\n      calldatacopy\n        /* \"#utility.yul\":4836:4837   */\n      0x00\n        /* \"#utility.yul\":4827:4833   */\n      dup4\n        /* \"#utility.yul\":4822:4825   */\n      dup4\n        /* \"#utility.yul\":4818:4834   */\n      add\n        /* \"#utility.yul\":4811:4838   */\n      mstore\n        /* \"#utility.yul\":4697:4845   */\n      pop\n      pop\n      pop\n      jump\t// out\n        /* \"#utility.yul\":4851:5276   */\n    tag_127:\n        /* \"#utility.yul\":4929:4934   */\n      0x00\n        /* \"#utility.yul\":4954:5020   */\n      tag_201\n        /* \"#utility.yul\":4970:5019   */\n      tag_202\n        /* \"#utility.yul\":5012:5018   */\n      dup5\n        /* \"#utility.yul\":4970:5019   */\n      tag_125\n      jump\t// in\n    tag_202:\n        /* \"#utility.yul\":4954:5020   */\n      tag_124\n      jump\t// in\n    tag_201:\n        /* \"#utility.yul\":4945:5020   */\n      swap1\n      pop\n        /* \"#utility.yul\":5043:5049   */\n      dup3\n        /* \"#utility.yul\":5036:5041   */\n      dup2\n        /* \"#utility.yul\":5029:5050   */\n      mstore\n        /* \"#utility.yul\":5081:5085   */\n      0x20\n        /* \"#utility.yul\":5074:5079   */\n      dup2\n        /* \"#utility.yul\":5070:5086   */\n      add\n        /* \"#utility.yul\":5119:5122   */\n      dup5\n        /* \"#utility.yul\":5110:5116   */\n      dup5\n        /* \"#utility.yul\":5105:5108   */\n      dup5\n        /* \"#utility.yul\":5101:5117   */\n      add\n        /* \"#utility.yul\":5098:5123   */\n      gt\n        /* \"#utility.yul\":5095:5207   */\n      iszero\n      tag_203\n      jumpi\n        /* \"#utility.yul\":5126:5205   */\n      tag_204\n      tag_121\n      jump\t// in\n    tag_204:\n        /* \"#utility.yul\":5095:5207   */\n    tag_203:\n        /* \"#utility.yul\":5216:5270   */\n      tag_205\n        /* \"#utility.yul\":5263:5269   */\n      dup5\n        /* \"#utility.yul\":5258:5261   */\n      dup3\n        /* \"#utility.yul\":5253:5256   */\n      dup6\n        /* \"#utility.yul\":5216:5270   */\n      tag_126\n      jump\t// in\n    tag_205:\n        /* \"#utility.yul\":4935:5276   */\n      pop\n        /* \"#utility.yul\":4851:5276   */\n      swap4\n      swap3\n      pop\n      pop\n      pop\n      jump\t// out\n        /* \"#utility.yul\":5296:5636   */\n    tag_128:\n        /* \"#utility.yul\":5352:5357   */\n      0x00\n        /* \"#utility.yul\":5401:5404   */\n      dup3\n        /* \"#utility.yul\":5394:5398   */\n      0x1f\n        /* \"#utility.yul\":5386:5392   */\n      dup4\n        /* \"#utility.yul\":5382:5399   */\n      add\n        /* \"#utility.yul\":5378:5405   */\n      slt\n        /* \"#utility.yul\":5368:5490   */\n      tag_207\n      jumpi\n        /* \"#utility.yul\":5409:5488   */\n      tag_208\n      tag_120\n      jump\t// in\n    tag_208:\n        /* \"#utility.yul\":5368:5490   */\n    tag_207:\n        /* \"#utility.yul\":5526:5532   */\n      dup2\n        /* \"#utility.yul\":5513:5533   */\n      calldataload\n        /* \"#utility.yul\":5551:5630   */\n      tag_209\n        /* \"#utility.yul\":5626:5629   */\n      dup5\n        /* \"#utility.yul\":5618:5624   */\n      dup3\n        /* \"#utility.yul\":5611:5615   */\n      0x20\n        /* \"#utility.yul\":5603:5609   */\n      dup7\n        /* \"#utility.yul\":5599:5616   */\n      add\n        /* \"#utility.yul\":5551:5630   */\n      tag_127\n      jump\t// in\n    tag_209:\n        /* \"#utility.yul\":5542:5630   */\n      swap2\n      pop\n        /* \"#utility.yul\":5358:5636   */\n      pop\n        /* \"#utility.yul\":5296:5636   */\n      swap3\n      swap2\n      pop\n      pop\n      jump\t// out\n        /* \"#utility.yul\":5642:6151   */\n    tag_26:\n        /* \"#utility.yul\":5711:5717   */\n      0x00\n        /* \"#utility.yul\":5760:5762   */\n      0x20\n        /* \"#utility.yul\":5748:5757   */\n      dup3\n        /* \"#utility.yul\":5739:5746   */\n      dup5\n        /* \"#utility.yul\":5735:5758   */\n      sub\n        /* \"#utility.yul\":5731:5763   */\n      slt\n        /* \"#utility.yul\":5728:5847   */\n      iszero\n      tag_211\n      jumpi\n        /* \"#utility.yul\":5766:5845   */\n      tag_212\n      tag_104\n      jump\t// in\n    tag_212:\n        /* \"#utility.yul\":5728:5847   */\n    tag_211:\n        /* \"#utility.yul\":5914:5915   */\n      0x00\n        /* \"#utility.yul\":5903:5912   */\n      dup3\n        /* \"#utility.yul\":5899:5916   */\n      add\n        /* \"#utility.yul\":5886:5917   */\n      calldataload\n        /* \"#utility.yul\":5944:5962   */\n      0xffffffffffffffff\n        /* \"#utility.yul\":5936:5942   */\n      dup2\n        /* \"#utility.yul\":5933:5963   */\n      gt\n        /* \"#utility.yul\":5930:6047   */\n      iszero\n      tag_213\n      jumpi\n        /* \"#utility.yul\":5966:6045   */\n      tag_214\n      tag_105\n      jump\t// in\n    tag_214:\n        /* \"#utility.yul\":5930:6047   */\n    tag_213:\n        /* \"#utility.yul\":6071:6134   */\n      tag_215\n        /* \"#utility.yul\":6126:6133   */\n      dup5\n        /* \"#utility.yul\":6117:6123   */\n      dup3\n        /* \"#utility.yul\":6106:6115   */\n      dup6\n        /* \"#utility.yul\":6102:6124   */\n      add\n        /* \"#utility.yul\":6071:6134   */\n      tag_128\n      jump\t// in\n    tag_215:\n        /* \"#utility.yul\":6061:6134   */\n      swap2\n      pop\n        /* \"#utility.yul\":5857:6144   */\n      pop\n        /* \"#utility.yul\":5642:6151   */\n      swap3\n      swap2\n      pop\n      pop\n      jump\t// out\n        /* \"#utility.yul\":6157:6275   */\n    tag_129:\n        /* \"#utility.yul\":6244:6268   */\n      tag_217\n        /* \"#utility.yul\":6262:6267   */\n      dup2\n        /* \"#utility.yul\":6244:6268   */\n      tag_112\n      jump\t// in\n    tag_217:\n        /* \"#utility.yul\":6239:6242   */\n      dup3\n        /* \"#utility.yul\":6232:6269   */\n      mstore\n        /* \"#utility.yul\":6157:6275   */\n      pop\n      pop\n      jump\t// out\n        /* \"#utility.yul\":6281:6503   */\n    tag_32:\n        /* \"#utility.yul\":6374:6378   */\n      0x00\n        /* \"#utility.yul\":6412:6414   */\n      0x20\n        /* \"#utility.yul\":6401:6410   */\n      dup3\n        /* \"#utility.yul\":6397:6415   */\n      add\n        /* \"#utility.yul\":6389:6415   */\n      swap1\n      pop\n        /* \"#utility.yul\":6425:6496   */\n      tag_219\n        /* \"#utility.yul\":6493:6494   */\n      0x00\n        /* \"#utility.yul\":6482:6491   */\n      dup4\n        /* \"#utility.yul\":6478:6495   */\n      add\n        /* \"#utility.yul\":6469:6475   */\n      dup5\n        /* \"#utility.yul\":6425:6496   */\n      tag_129\n      jump\t// in\n    tag_219:\n        /* \"#utility.yul\":6281:6503   */\n      swap3\n      swap2\n      pop\n      pop\n      jump\t// out\n        /* \"#utility.yul\":6509:6689   */\n    tag_130:\n        /* \"#utility.yul\":6557:6634   */\n      0x4e487b7100000000000000000000000000000000000000000000000000000000\n        /* \"#utility.yul\":6554:6555   */\n      0x00\n        /* \"#utility.yul\":6547:6635   */\n      mstore\n        /* \"#utility.yul\":6654:6658   */\n      0x22\n        /* \"#utility.yul\":6651:6652   */\n      0x04\n        /* \"#utility.yul\":6644:6659   */\n      mstore\n        /* \"#utility.yul\":6678:6682   */\n      0x24\n        /* \"#utility.yul\":6675:6676   */\n      0x00\n        /* \"#utility.yul\":6668:6683   */\n      revert\n        /* \"#utility.yul\":6695:7015   */\n    tag_38:\n        /* \"#utility.yul\":6739:6745   */\n      0x00\n        /* \"#utility.yul\":6776:6777   */\n      0x02\n        /* \"#utility.yul\":6770:6774   */\n      dup3\n        /* \"#utility.yul\":6766:6778   */\n      div\n        /* \"#utility.yul\":6756:6778   */\n      swap1\n      pop\n        /* \"#utility.yul\":6823:6824   */\n      0x01\n        /* \"#utility.yul\":6817:6821   */\n      dup3\n        /* \"#utility.yul\":6813:6825   */\n      and\n        /* \"#utility.yul\":6844:6862   */\n      dup1\n        /* \"#utility.yul\":6834:6915   */\n      tag_222\n      jumpi\n        /* \"#utility.yul\":6900:6904   */\n      0x7f\n        /* \"#utility.yul\":6892:6898   */\n      dup3\n        /* \"#utility.yul\":6888:6905   */\n      and\n        /* \"#utility.yul\":6878:6905   */\n      swap2\n      pop\n        /* \"#utility.yul\":6834:6915   */\n    tag_222:\n        /* \"#utility.yul\":6962:6964   */\n      0x20\n        /* \"#utility.yul\":6954:6960   */\n      dup3\n        /* \"#utility.yul\":6951:6965   */\n      lt\n        /* \"#utility.yul\":6931:6949   */\n      dup2\n        /* \"#utility.yul\":6928:6966   */\n      sub\n        /* \"#utility.yul\":6925:7009   */\n      tag_223\n      jumpi\n        /* \"#utility.yul\":6981:6999   */\n      tag_224\n      tag_130\n      jump\t// in\n    tag_224:\n        /* \"#utility.yul\":6925:7009   */\n    tag_223:\n        /* \"#utility.yul\":6746:7015   */\n      pop\n        /* \"#utility.yul\":6695:7015   */\n      swap2\n      swap1\n      pop\n      jump\t// out\n        /* \"#utility.yul\":7021:7201   */\n    tag_46:\n        /* \"#utility.yul\":7069:7146   */\n      0x4e487b7100000000000000000000000000000000000000000000000000000000\n        /* \"#utility.yul\":7066:7067   */\n      0x00\n        /* \"#utility.yul\":7059:7147   */\n      mstore\n        /* \"#utility.yul\":7166:7170   */\n      0x32\n        /* \"#utility.yul\":7163:7164   */\n      0x04\n        /* \"#utility.yul\":7156:7171   */\n      mstore\n        /* \"#utility.yul\":7190:7194   */\n      0x24\n        /* \"#utility.yul\":7187:7188   */\n      0x00\n        /* \"#utility.yul\":7180:7195   */\n      revert\n        /* \"#utility.yul\":7207:7355   */\n    tag_131:\n        /* \"#utility.yul\":7309:7320   */\n      0x00\n        /* \"#utility.yul\":7346:7349   */\n      dup2\n        /* \"#utility.yul\":7331:7349   */\n      swap1\n      pop\n        /* \"#utility.yul\":7207:7355   */\n      swap3\n      swap2\n      pop\n      pop\n      jump\t// out\n        /* \"#utility.yul\":7361:7751   */\n    tag_132:\n        /* \"#utility.yul\":7467:7470   */\n      0x00\n        /* \"#utility.yul\":7495:7534   */\n      tag_228\n        /* \"#utility.yul\":7528:7533   */\n      dup3\n        /* \"#utility.yul\":7495:7534   */\n      tag_115\n      jump\t// in\n    tag_228:\n        /* \"#utility.yul\":7550:7639   */\n      tag_229\n        /* \"#utility.yul\":7632:7638   */\n      dup2\n        /* \"#utility.yul\":7627:7630   */\n      dup6\n        /* \"#utility.yul\":7550:7639   */\n      tag_131\n      jump\t// in\n    tag_229:\n        /* \"#utility.yul\":7543:7639   */\n      swap4\n      pop\n        /* \"#utility.yul\":7648:7713   */\n      tag_230\n        /* \"#utility.yul\":7706:7712   */\n      dup2\n        /* \"#utility.yul\":7701:7704   */\n      dup6\n        /* \"#utility.yul\":7694:7698   */\n      0x20\n        /* \"#utility.yul\":7687:7692   */\n      dup7\n        /* \"#utility.yul\":7683:7699   */\n      add\n        /* \"#utility.yul\":7648:7713   */\n      tag_117\n      jump\t// in\n    tag_230:\n        /* \"#utility.yul\":7738:7744   */\n      dup1\n        /* \"#utility.yul\":7733:7736   */\n      dup5\n        /* \"#utility.yul\":7729:7745   */\n      add\n        /* \"#utility.yul\":7722:7745   */\n      swap2\n      pop\n        /* \"#utility.yul\":7471:7751   */\n      pop\n        /* \"#utility.yul\":7361:7751   */\n      swap3\n      swap2\n      pop\n      pop\n      jump\t// out\n        /* \"#utility.yul\":7757:8032   */\n    tag_54:\n        /* \"#utility.yul\":7889:7892   */\n      0x00\n        /* \"#utility.yul\":7911:8006   */\n      tag_232\n        /* \"#utility.yul\":8002:8005   */\n      dup3\n        /* \"#utility.yul\":7993:7999   */\n      dup5\n        /* \"#utility.yul\":7911:8006   */\n      tag_132\n      jump\t// in\n    tag_232:\n        /* \"#utility.yul\":7904:8006   */\n      swap2\n      pop\n        /* \"#utility.yul\":8023:8026   */\n      dup2\n        /* \"#utility.yul\":8016:8026   */\n      swap1\n      pop\n        /* \"#utility.yul\":7757:8032   */\n      swap3\n      swap2\n      pop\n      pop\n      jump\t// out\n        /* \"#utility.yul\":8038:8179   */\n    tag_133:\n        /* \"#utility.yul\":8087:8091   */\n      0x00\n        /* \"#utility.yul\":8110:8113   */\n      dup2\n        /* \"#utility.yul\":8102:8113   */\n      swap1\n      pop\n        /* \"#utility.yul\":8133:8136   */\n      dup2\n        /* \"#utility.yul\":8130:8131   */\n      0x00\n        /* \"#utility.yul\":8123:8137   */\n      mstore\n        /* \"#utility.yul\":8167:8171   */\n      0x20\n        /* \"#utility.yul\":8164:8165   */\n      0x00\n        /* \"#utility.yul\":8154:8172   */\n      keccak256\n        /* \"#utility.yul\":8146:8172   */\n      swap1\n      pop\n        /* \"#utility.yul\":8038:8179   */\n      swap2\n      swap1\n      pop\n      jump\t// out\n        /* \"#utility.yul\":8209:9083   */\n    tag_134:\n        /* \"#utility.yul\":8312:8315   */\n      0x00\n        /* \"#utility.yul\":8349:8354   */\n      dup2\n        /* \"#utility.yul\":8343:8355   */\n      sload\n        /* \"#utility.yul\":8378:8414   */\n      tag_235\n        /* \"#utility.yul\":8404:8413   */\n      dup2\n        /* \"#utility.yul\":8378:8414   */\n      tag_38\n      jump\t// in\n    tag_235:\n        /* \"#utility.yul\":8430:8519   */\n      tag_236\n        /* \"#utility.yul\":8512:8518   */\n      dup2\n        /* \"#utility.yul\":8507:8510   */\n      dup7\n        /* \"#utility.yul\":8430:8519   */\n      tag_131\n      jump\t// in\n    tag_236:\n        /* \"#utility.yul\":8423:8519   */\n      swap5\n      pop\n        /* \"#utility.yul\":8550:8551   */\n      0x01\n        /* \"#utility.yul\":8539:8548   */\n      dup3\n        /* \"#utility.yul\":8535:8552   */\n      and\n        /* \"#utility.yul\":8566:8567   */\n      0x00\n        /* \"#utility.yul\":8561:8727   */\n      dup2\n      eq\n      tag_238\n      jumpi\n        /* \"#utility.yul\":8741:8742   */\n      0x01\n        /* \"#utility.yul\":8736:9077   */\n      dup2\n      eq\n      tag_239\n      jumpi\n        /* \"#utility.yul\":8528:9077   */\n      jump(tag_237)\n        /* \"#utility.yul\":8561:8727   */\n    tag_238:\n        /* \"#utility.yul\":8645:8649   */\n      0xff\n        /* \"#utility.yul\":8641:8650   */\n      not\n        /* \"#utility.yul\":8630:8639   */\n      dup4\n        /* \"#utility.yul\":8626:8651   */\n      and\n        /* \"#utility.yul\":8621:8624   */\n      dup7\n        /* \"#utility.yul\":8614:8652   */\n      mstore\n        /* \"#utility.yul\":8707:8713   */\n      dup2\n        /* \"#utility.yul\":8700:8714   */\n      iszero\n        /* \"#utility.yul\":8693:8715   */\n      iszero\n        /* \"#utility.yul\":8685:8691   */\n      dup3\n        /* \"#utility.yul\":8681:8716   */\n      mul\n        /* \"#utility.yul\":8676:8679   */\n      dup7\n        /* \"#utility.yul\":8672:8717   */\n      add\n        /* \"#utility.yul\":8665:8717   */\n      swap4\n      pop\n        /* \"#utility.yul\":8561:8727   */\n      jump(tag_237)\n        /* \"#utility.yul\":8736:9077   */\n    tag_239:\n        /* \"#utility.yul\":8803:8841   */\n      tag_240\n        /* \"#utility.yul\":8835:8840   */\n      dup6\n        /* \"#utility.yul\":8803:8841   */\n      tag_133\n      jump\t// in\n    tag_240:\n        /* \"#utility.yul\":8863:8864   */\n      0x00\n        /* \"#utility.yul\":8877:9031   */\n    tag_241:\n        /* \"#utility.yul\":8891:8897   */\n      dup4\n        /* \"#utility.yul\":8888:8889   */\n      dup2\n        /* \"#utility.yul\":8885:8898   */\n      lt\n        /* \"#utility.yul\":8877:9031   */\n      iszero\n      tag_243\n      jumpi\n        /* \"#utility.yul\":8965:8972   */\n      dup2\n        /* \"#utility.yul\":8959:8973   */\n      sload\n        /* \"#utility.yul\":8955:8956   */\n      dup2\n        /* \"#utility.yul\":8950:8953   */\n      dup10\n        /* \"#utility.yul\":8946:8957   */\n      add\n        /* \"#utility.yul\":8939:8974   */\n      mstore\n        /* \"#utility.yul\":9015:9016   */\n      0x01\n        /* \"#utility.yul\":9006:9013   */\n      dup3\n        /* \"#utility.yul\":9002:9017   */\n      add\n        /* \"#utility.yul\":8991:9017   */\n      swap2\n      pop\n        /* \"#utility.yul\":8913:8917   */\n      0x20\n        /* \"#utility.yul\":8910:8911   */\n      dup2\n        /* \"#utility.yul\":8906:8918   */\n      add\n        /* \"#utility.yul\":8901:8918   */\n      swap1\n      pop\n        /* \"#utility.yul\":8877:9031   */\n      jump(tag_241)\n    tag_243:\n        /* \"#utility.yul\":9060:9066   */\n      dup4\n        /* \"#utility.yul\":9055:9058   */\n      dup9\n        /* \"#utility.yul\":9051:9067   */\n      add\n        /* \"#utility.yul\":9044:9067   */\n      swap6\n      pop\n        /* \"#utility.yul\":8743:9077   */\n      pop\n      pop\n        /* \"#utility.yul\":8528:9077   */\n    tag_237:\n      pop\n        /* \"#utility.yul\":8316:9083   */\n      pop\n      pop\n        /* \"#utility.yul\":8209:9083   */\n      swap3\n      swap2\n      pop\n      pop\n      jump\t// out\n        /* \"#utility.yul\":9089:9358   */\n    tag_62:\n        /* \"#utility.yul\":9218:9221   */\n      0x00\n        /* \"#utility.yul\":9240:9332   */\n      tag_245\n        /* \"#utility.yul\":9328:9331   */\n      dup3\n        /* \"#utility.yul\":9319:9325   */\n      dup5\n        /* \"#utility.yul\":9240:9332   */\n      tag_134\n      jump\t// in\n    tag_245:\n        /* \"#utility.yul\":9233:9332   */\n      swap2\n      pop\n        /* \"#utility.yul\":9349:9352   */\n      dup2\n        /* \"#utility.yul\":9342:9352   */\n      swap1\n      pop\n        /* \"#utility.yul\":9089:9358   */\n      swap3\n      swap2\n      pop\n      pop\n      jump\t// out\n        /* \"#utility.yul\":9364:9544   */\n    tag_78:\n        /* \"#utility.yul\":9412:9489   */\n      0x4e487b7100000000000000000000000000000000000000000000000000000000\n        /* \"#utility.yul\":9409:9410   */\n      0x00\n        /* \"#utility.yul\":9402:9490   */\n      mstore\n        /* \"#utility.yul\":9509:9513   */\n      0x01\n        /* \"#utility.yul\":9506:9507   */\n      0x04\n        /* \"#utility.yul\":9499:9514   */\n      mstore\n        /* \"#utility.yul\":9533:9537   */\n      0x24\n        /* \"#utility.yul\":9530:9531   */\n      0x00\n        /* \"#utility.yul\":9523:9538   */\n      revert\n        /* \"#utility.yul\":9550:9722   */\n    tag_135:\n        /* \"#utility.yul\":9690:9714   */\n      0x596f75206861766520616c726561647920766f74656400000000000000000000\n        /* \"#utility.yul\":9686:9687   */\n      0x00\n        /* \"#utility.yul\":9678:9684   */\n      dup3\n        /* \"#utility.yul\":9674:9688   */\n      add\n        /* \"#utility.yul\":9667:9715   */\n      mstore\n        /* \"#utility.yul\":9550:9722   */\n      pop\n      jump\t// out\n        /* \"#utility.yul\":9728:10094   */\n    tag_136:\n        /* \"#utility.yul\":9870:9873   */\n      0x00\n        /* \"#utility.yul\":9891:9958   */\n      tag_249\n        /* \"#utility.yul\":9955:9957   */\n      0x16\n        /* \"#utility.yul\":9950:9953   */\n      dup4\n        /* \"#utility.yul\":9891:9958   */\n      tag_116\n      jump\t// in\n    tag_249:\n        /* \"#utility.yul\":9884:9958   */\n      swap2\n      pop\n        /* \"#utility.yul\":9967:10060   */\n      tag_250\n        /* \"#utility.yul\":10056:10059   */\n      dup3\n        /* \"#utility.yul\":9967:10060   */\n      tag_135\n      jump\t// in\n    tag_250:\n        /* \"#utility.yul\":10085:10087   */\n      0x20\n        /* \"#utility.yul\":10080:10083   */\n      dup3\n        /* \"#utility.yul\":10076:10088   */\n      add\n        /* \"#utility.yul\":10069:10088   */\n      swap1\n      pop\n        /* \"#utility.yul\":9728:10094   */\n      swap2\n      swap1\n      pop\n      jump\t// out\n        /* \"#utility.yul\":10100:10519   */\n    tag_82:\n        /* \"#utility.yul\":10266:10270   */\n      0x00\n        /* \"#utility.yul\":10304:10306   */\n      0x20\n        /* \"#utility.yul\":10293:10302   */\n      dup3\n        /* \"#utility.yul\":10289:10307   */\n      add\n        /* \"#utility.yul\":10281:10307   */\n      swap1\n      pop\n        /* \"#utility.yul\":10353:10362   */\n      dup2\n        /* \"#utility.yul\":10347:10351   */\n      dup2\n        /* \"#utility.yul\":10343:10363   */\n      sub\n        /* \"#utility.yul\":10339:10340   */\n      0x00\n        /* \"#utility.yul\":10328:10337   */\n      dup4\n        /* \"#utility.yul\":10324:10341   */\n      add\n        /* \"#utility.yul\":10317:10364   */\n      mstore\n        /* \"#utility.yul\":10381:10512   */\n      tag_252\n        /* \"#utility.yul\":10507:10511   */\n      dup2\n        /* \"#utility.yul\":10381:10512   */\n      tag_136\n      jump\t// in\n    tag_252:\n        /* \"#utility.yul\":10373:10512   */\n      swap1\n      pop\n        /* \"#utility.yul\":10100:10519   */\n      swap2\n      swap1\n      pop\n      jump\t// out\n        /* \"#utility.yul\":10525:10692   */\n    tag_137:\n        /* \"#utility.yul\":10665:10684   */\n      0x496e76616c69642063616e646964617465000000000000000000000000000000\n        /* \"#utility.yul\":10661:10662   */\n      0x00\n        /* \"#utility.yul\":10653:10659   */\n      dup3\n        /* \"#utility.yul\":10649:10663   */\n      add\n        /* \"#utility.yul\":10642:10685   */\n      mstore\n        /* \"#utility.yul\":10525:10692   */\n      pop\n      jump\t// out\n        /* \"#utility.yul\":10698:11064   */\n    tag_138:\n        /* \"#utility.yul\":10840:10843   */\n      0x00\n        /* \"#utility.yul\":10861:10928   */\n      tag_255\n        /* \"#utility.yul\":10925:10927   */\n      0x11\n        /* \"#utility.yul\":10920:10923   */\n      dup4\n        /* \"#utility.yul\":10861:10928   */\n      tag_116\n      jump\t// in\n    tag_255:\n        /* \"#utility.yul\":10854:10928   */\n      swap2\n      pop\n        /* \"#utility.yul\":10937:11030   */\n      tag_256\n        /* \"#utility.yul\":11026:11029   */\n      dup3\n        /* \"#utility.yul\":10937:11030   */\n      tag_137\n      jump\t// in\n    tag_256:\n        /* \"#utility.yul\":11055:11057   */\n      0x20\n        /* \"#utility.yul\":11050:11053   */\n      dup3\n        /* \"#utility.yul\":11046:11058   */\n      add\n        /* \"#utility.yul\":11039:11058   */\n      swap1\n      pop\n        /* \"#utility.yul\":10698:11064   */\n      swap2\n      swap1\n      pop\n      jump\t// out\n        /* \"#utility.yul\":11070:11489   */\n    tag_94:\n        /* \"#utility.yul\":11236:11240   */\n      0x00\n        /* \"#utility.yul\":11274:11276   */\n      0x20\n        /* \"#utility.yul\":11263:11272   */\n      dup3\n        /* \"#utility.yul\":11259:11277   */\n      add\n        /* \"#utility.yul\":11251:11277   */\n      swap1\n      pop\n        /* \"#utility.yul\":11323:11332   */\n      dup2\n        /* \"#utility.yul\":11317:11321   */\n      dup2\n        /* \"#utility.yul\":11313:11333   */\n      sub\n        /* \"#utility.yul\":11309:11310   */\n      0x00\n        /* \"#utility.yul\":11298:11307   */\n      dup4\n        /* \"#utility.yul\":11294:11311   */\n      add\n        /* \"#utility.yul\":11287:11334   */\n      mstore\n        /* \"#utility.yul\":11351:11482   */\n      tag_258\n        /* \"#utility.yul\":11477:11481   */\n      dup2\n        /* \"#utility.yul\":11351:11482   */\n      tag_138\n      jump\t// in\n    tag_258:\n        /* \"#utility.yul\":11343:11482   */\n      swap1\n      pop\n        /* \"#utility.yul\":11070:11489   */\n      swap2\n      swap1\n      pop\n      jump\t// out\n        /* \"#utility.yul\":11495:11675   */\n    tag_139:\n        /* \"#utility.yul\":11543:11620   */\n      0x4e487b7100000000000000000000000000000000000000000000000000000000\n        /* \"#utility.yul\":11540:11541   */\n      0x00\n        /* \"#utility.yul\":11533:11621   */\n      mstore\n        /* \"#utility.yul\":11640:11644   */\n      0x11\n        /* \"#utility.yul\":11637:11638   */\n      0x04\n        /* \"#utility.yul\":11630:11645   */\n      mstore\n        /* \"#utility.yul\":11664:11668   */\n      0x24\n        /* \"#utility.yul\":11661:11662   */\n      0x00\n        /* \"#utility.yul\":11654:11669   */\n      revert\n        /* \"#utility.yul\":11681:11914   */\n    tag_97:\n        /* \"#utility.yul\":11720:11723   */\n      0x00\n        /* \"#utility.yul\":11743:11767   */\n      tag_261\n        /* \"#utility.yul\":11761:11766   */\n      dup3\n        /* \"#utility.yul\":11743:11767   */\n      tag_112\n      jump\t// in\n    tag_261:\n        /* \"#utility.yul\":11734:11767   */\n      swap2\n      pop\n        /* \"#utility.yul\":11789:11855   */\n      0xffffffffffffffffffffffffffffffffffffffffffffffffffffffffffffffff\n        /* \"#utility.yul\":11782:11787   */\n      dup3\n        /* \"#utility.yul\":11779:11856   */\n      sub\n        /* \"#utility.yul\":11776:11879   */\n      tag_262\n      jumpi\n        /* \"#utility.yul\":11859:11877   */\n      tag_263\n      tag_139\n      jump\t// in\n    tag_263:\n        /* \"#utility.yul\":11776:11879   */\n    tag_262:\n        /* \"#utility.yul\":11906:11907   */\n      0x01\n        /* \"#utility.yul\":11899:11904   */\n      dup3\n        /* \"#utility.yul\":11895:11908   */\n      add\n        /* \"#utility.yul\":11888:11908   */\n      swap1\n      pop\n        /* \"#utility.yul\":11681:11914   */\n      swap2\n      swap1\n      pop\n      jump\t// out\n        /* \"#utility.yul\":11920:12038   */\n    tag_140:\n        /* \"#utility.yul\":12007:12031   */\n      tag_265\n        /* \"#utility.yul\":12025:12030   */\n      dup2\n        /* \"#utility.yul\":12007:12031   */\n      tag_107\n      jump\t// in\n    tag_265:\n        /* \"#utility.yul\":12002:12005   */\n      dup3\n        /* \"#utility.yul\":11995:12032   */\n      mstore\n        /* \"#utility.yul\":11920:12038   */\n      pop\n      pop\n      jump\t// out\n        /* \"#utility.yul\":12044:12467   */\n    tag_99:\n        /* \"#utility.yul\":12185:12189   */\n      0x00\n        /* \"#utility.yul\":12223:12225   */\n      0x40\n        /* \"#utility.yul\":12212:12221   */\n      dup3\n        /* \"#utility.yul\":12208:12226   */\n      add\n        /* \"#utility.yul\":12200:12226   */\n      swap1\n      pop\n        /* \"#utility.yul\":12236:12307   */\n      tag_267\n        /* \"#utility.yul\":12304:12305   */\n      0x00\n        /* \"#utility.yul\":12293:12302   */\n      dup4\n        /* \"#utility.yul\":12289:12306   */\n      add\n        /* \"#utility.yul\":12280:12286   */\n      dup6\n        /* \"#utility.yul\":12236:12307   */\n      tag_140\n      jump\t// in\n    tag_267:\n        /* \"#utility.yul\":12354:12363   */\n      dup2\n        /* \"#utility.yul\":12348:12352   */\n      dup2\n        /* \"#utility.yul\":12344:12364   */\n      sub\n        /* \"#utility.yul\":12339:12341   */\n      0x20\n        /* \"#utility.yul\":12328:12337   */\n      dup4\n        /* \"#utility.yul\":12324:12342   */\n      add\n        /* \"#utility.yul\":12317:12365   */\n      mstore\n        /* \"#utility.yul\":12382:12460   */\n      tag_268\n        /* \"#utility.yul\":12455:12459   */\n      dup2\n        /* \"#utility.yul\":12446:12452   */\n      dup5\n        /* \"#utility.yul\":12382:12460   */\n      tag_119\n      jump\t// in\n    tag_268:\n        /* \"#utility.yul\":12374:12460   */\n      swap1\n      pop\n        /* \"#utility.yul\":12044:12467   */\n      swap4\n      swap3\n      pop\n      pop\n      pop\n      jump\t// out\n        /* \"#utility.yul\":12473:12646   */\n    tag_141:\n        /* \"#utility.yul\":12613:12638   */\n      0x566f74696e6720706572696f642068617320656e646564000000000000000000\n        /* \"#utility.yul\":12609:12610   */\n      0x00\n        /* \"#utility.yul\":12601:12607   */\n      dup3\n        /* \"#utility.yul\":12597:12611   */\n      add\n        /* \"#utility.yul\":12590:12639   */\n      mstore\n        /* \"#utility.yul\":12473:12646   */\n      pop\n      jump\t// out\n        /* \"#utility.yul\":12652:13018   */\n    tag_142:\n        /* \"#utility.yul\":12794:12797   */\n      0x00\n        /* \"#utility.yul\":12815:12882   */\n      tag_271\n        /* \"#utility.yul\":12879:12881   */\n      0x17\n        /* \"#utility.yul\":12874:12877   */\n      dup4\n        /* \"#utility.yul\":12815:12882   */\n      tag_116\n      jump\t// in\n    tag_271:\n        /* \"#utility.yul\":12808:12882   */\n      swap2\n      pop\n        /* \"#utility.yul\":12891:12984   */\n      tag_272\n        /* \"#utility.yul\":12980:12983   */\n      dup3\n        /* \"#utility.yul\":12891:12984   */\n      tag_141\n      jump\t// in\n    tag_272:\n        /* \"#utility.yul\":13009:13011   */\n      0x20\n        /* \"#utility.yul\":13004:13007   */\n      dup3\n        /* \"#utility.yul\":13000:13012   */\n      add\n        /* \"#utility.yul\":12993:13012   */\n      swap1\n      pop\n        /* \"#utility.yul\":12652:13018   */\n      swap2\n      swap1\n      pop\n      jump\t// out\n        /* \"#utility.yul\":13024:13443   */\n    tag_102:\n        /* \"#utility.yul\":13190:13194   */\n      0x00\n        /* \"#utility.yul\":13228:13230   */\n      0x20\n        /* \"#utility.yul\":13217:13226   */\n      dup3\n        /* \"#utility.yul\":13213:13231   */\n      add\n        /* \"#utility.yul\":13205:13231   */\n      swap1\n      pop\n        /* \"#utility.yul\":13277:13286   */\n      dup2\n        /* \"#utility.yul\":13271:13275   */\n      dup2\n        /* \"#utility.yul\":13267:13287   */\n      sub\n        /* \"#utility.yul\":13263:13264   */\n      0x00\n        /* \"#utility.yul\":13252:13261   */\n      dup4\n        /* \"#utility.yul\":13248:13265   */\n      add\n        /* \"#utility.yul\":13241:13288   */\n      mstore\n        /* \"#utility.yul\":13305:13436   */\n      tag_274\n        /* \"#utility.yul\":13431:13435   */\n      dup2\n        /* \"#utility.yul\":13305:13436   */\n      tag_142\n      jump\t// in\n    tag_274:\n        /* \"#utility.yul\":13297:13436   */\n      swap1\n      pop\n        /* \"#utility.yul\":13024:13443   */\n      swap2\n      swap1\n      pop\n      jump\t// out\n\n    auxdata: 0xa26469706673582212204ce1d25c9d30ff63d403b5e99fe45e62011c2609226a9928bd87e119e69cd0d664736f6c634300081a0033\n}\n",
				"bytecode": {
					"linkReferences": {},
					"object": "608060405234801561000f575f80fd5b5060405161156e38038061156e833981810160405281019061003191906103a9565b80600190805190602001906100479291906100a8565b505f5b6001805490508110156100a1575f806001838154811061006d5761006c6103f0565b5b905f5260205f20016040516100829190610516565b908152602001604051809103902081905550808060010191505061004a565b5050610799565b828054828255905f5260205f209081019282156100ee579160200282015b828111156100ed5782518290816100dd91906106ca565b50916020019190600101906100c6565b5b5090506100fb91906100ff565b5090565b5b8082111561011e575f81816101159190610122565b50600101610100565b5090565b50805461012e9061044a565b5f825580601f1061013f575061015c565b601f0160209004905f5260205f209081019061015b919061015f565b5b50565b5b80821115610176575f815f905550600101610160565b5090565b5f604051905090565b5f80fd5b5f80fd5b5f80fd5b5f601f19601f8301169050919050565b7f4e487b71000000000000000000000000000000000000000000000000000000005f52604160045260245ffd5b6101d58261018f565b810181811067ffffffffffffffff821117156101f4576101f361019f565b5b80604052505050565b5f61020661017a565b905061021282826101cc565b919050565b5f67ffffffffffffffff8211156102315761023061019f565b5b602082029050602081019050919050565b5f80fd5b5f80fd5b5f67ffffffffffffffff8211156102645761026361019f565b5b61026d8261018f565b9050602081019050919050565b8281835e5f83830152505050565b5f61029a6102958461024a565b6101fd565b9050828152602081018484840111156102b6576102b5610246565b5b6102c184828561027a565b509392505050565b5f82601f8301126102dd576102dc61018b565b5b81516102ed848260208601610288565b91505092915050565b5f61030861030384610217565b6101fd565b9050808382526020820190506020840283018581111561032b5761032a610242565b5b835b8181101561037257805167ffffffffffffffff8111156103505761034f61018b565b5b80860161035d89826102c9565b8552602085019450505060208101905061032d565b5050509392505050565b5f82601f8301126103905761038f61018b565b5b81516103a08482602086016102f6565b91505092915050565b5f602082840312156103be576103bd610183565b5b5f82015167ffffffffffffffff8111156103db576103da610187565b5b6103e78482850161037c565b91505092915050565b7f4e487b71000000000000000000000000000000000000000000000000000000005f52603260045260245ffd5b7f4e487b71000000000000000000000000000000000000000000000000000000005f52602260045260245ffd5b5f600282049050600182168061046157607f821691505b6020821081036104745761047361041d565b5b50919050565b5f81905092915050565b5f819050815f5260205f209050919050565b5f81546104a28161044a565b6104ac818661047a565b9450600182165f81146104c657600181146104db5761050d565b60ff198316865281151582028601935061050d565b6104e485610484565b5f5b83811015610505578154818901526001820191506020810190506104e6565b838801955050505b50505092915050565b5f6105218284610496565b915081905092915050565b5f81519050919050565b5f6020601f8301049050919050565b5f82821b905092915050565b5f600883026105807fffffffffffffffffffffffffffffffffffffffffffffffffffffffffffffffff82610545565b61058a8683610545565b95508019841693508086168417925050509392505050565b5f819050919050565b5f819050919050565b5f6105ce6105c96105c4846105a2565b6105ab565b6105a2565b9050919050565b5f819050919050565b6105e7836105b4565b6105fb6105f3826105d5565b848454610551565b825550505050565b5f90565b61060f610603565b61061a8184846105de565b505050565b5b8181101561063d576106325f82610607565b600181019050610620565b5050565b601f8211156106825761065381610484565b61065c84610536565b8101602085101561066b578190505b61067f61067785610536565b83018261061f565b50505b505050565b5f82821c905092915050565b5f6106a25f1984600802610687565b1980831691505092915050565b5f6106ba8383610693565b9150826002028217905092915050565b6106d38261052c565b67ffffffffffffffff8111156106ec576106eb61019f565b5b6106f6825461044a565b610701828285610641565b5f60209050601f831160018114610732575f8415610720578287015190505b61072a85826106af565b865550610791565b601f19841661074086610484565b5f5b8281101561076757848901518255600182019150602085019450602081019050610742565b868310156107845784890151610780601f891682610693565b8355505b6001600288020188555050505b505050505050565b610dc8806107a65f395ff3fe608060405234801561000f575f80fd5b5060043610610060575f3560e01c806309eef43e146100645780633477ee2e146100945780638e7ea5b2146100c45780639cc2d993146100e2578063b99ef1fa146100fe578063e80a57a51461012e575b5f80fd5b61007e60048036038101906100799190610713565b610138565b60405161008b9190610758565b60405180910390f35b6100ae60048036038101906100a991906107a4565b610155565b6040516100bb919061083f565b60405180910390f35b6100cc6101fb565b6040516100d9919061083f565b60405180910390f35b6100fc60048036038101906100f7919061098b565b61041e565b005b6101186004803603810190610113919061098b565b610641565b60405161012591906109e1565b60405180910390f35b61013661066d565b005b6002602052805f5260405f205f915054906101000a900460ff1681565b60018181548110610164575f80fd5b905f5260205f20015f91509050805461017c90610a27565b80601f01602080910402602001604051908101604052809291908181526020018280546101a890610a27565b80156101f35780601f106101ca576101008083540402835291602001916101f3565b820191905f5260205f20905b8154815290600101906020018083116101d657829003601f168201915b505050505081565b60605f60015f8154811061021257610211610a57565b5b905f5260205f2001805461022590610a27565b80601f016020809104026020016040519081016040528092919081815260200182805461025190610a27565b801561029c5780601f106102735761010080835404028352916020019161029c565b820191905f5260205f20905b81548152906001019060200180831161027f57829003601f168201915b505050505090505f80826040516102b39190610abe565b90815260200160405180910390205490505f600190505b60018054905081101561040557815f600183815481106102ed576102ec610a57565b5b905f5260205f20016040516103029190610b66565b90815260200160405180910390205411156103f8576001818154811061032b5761032a610a57565b5b905f5260205f2001805461033e90610a27565b80601f016020809104026020016040519081016040528092919081815260200182805461036a90610a27565b80156103b55780601f1061038c576101008083540402835291602001916103b5565b820191905f5260205f20905b81548152906001019060200180831161039857829003601f168201915b505050505092505f600182815481106103d1576103d0610a57565b5b905f5260205f20016040516103e69190610b66565b90815260200160405180910390205491505b80806001019150506102ca565b505f811161041657610415610b7c565b5b819250505090565b60025f3373ffffffffffffffffffffffffffffffffffffffff1673ffffffffffffffffffffffffffffffffffffffff1681526020019081526020015f205f9054906101000a900460ff16156104a8576040517f08c379a000000000000000000000000000000000000000000000000000000000815260040161049f90610bf3565b60405180910390fd5b5f805b60018054905081101561053c57826040516020016104c99190610abe565b60405160208183030381529060405280519060200120600182815481106104f3576104f2610a57565b5b905f5260205f200160405160200161050b9190610b66565b604051602081830303815290604052805190602001200361052f576001915061053c565b80806001019150506104ab565b508061057d576040517f08c379a000000000000000000000000000000000000000000000000000000000815260040161057490610c5b565b60405180910390fd5b5f8260405161058c9190610abe565b90815260200160405180910390205f8154809291906105aa90610ca6565b9190505550600160025f3373ffffffffffffffffffffffffffffffffffffffff1673ffffffffffffffffffffffffffffffffffffffff1681526020019081526020015f205f6101000a81548160ff0219169083151502179055507f866dc605853954ffa419910eb05d67f430efec2e7db7ce135bf55565667a4ab43383604051610635929190610cfc565b60405180910390a15050565b5f818051602081018201805184825260208301602085012081835280955050505050505f915090505481565b6040517f08c379a000000000000000000000000000000000000000000000000000000000815260040161069f90610d74565b60405180910390fd5b5f604051905090565b5f80fd5b5f80fd5b5f73ffffffffffffffffffffffffffffffffffffffff82169050919050565b5f6106e2826106b9565b9050919050565b6106f2816106d8565b81146106fc575f80fd5b50565b5f8135905061070d816106e9565b92915050565b5f60208284031215610728576107276106b1565b5b5f610735848285016106ff565b91505092915050565b5f8115159050919050565b6107528161073e565b82525050565b5f60208201905061076b5f830184610749565b92915050565b5f819050919050565b61078381610771565b811461078d575f80fd5b50565b5f8135905061079e8161077a565b92915050565b5f602082840312156107b9576107b86106b1565b5b5f6107c684828501610790565b91505092915050565b5f81519050919050565b5f82825260208201905092915050565b8281835e5f83830152505050565b5f601f19601f8301169050919050565b5f610811826107cf565b61081b81856107d9565b935061082b8185602086016107e9565b610834816107f7565b840191505092915050565b5f6020820190508181035f8301526108578184610807565b905092915050565b5f80fd5b5f80fd5b7f4e487b71000000000000000000000000000000000000000000000000000000005f52604160045260245ffd5b61089d826107f7565b810181811067ffffffffffffffff821117156108bc576108bb610867565b5b80604052505050565b5f6108ce6106a8565b90506108da8282610894565b919050565b5f67ffffffffffffffff8211156108f9576108f8610867565b5b610902826107f7565b9050602081019050919050565b828183375f83830152505050565b5f61092f61092a846108df565b6108c5565b90508281526020810184848401111561094b5761094a610863565b5b61095684828561090f565b509392505050565b5f82601f8301126109725761097161085f565b5b813561098284826020860161091d565b91505092915050565b5f602082840312156109a05761099f6106b1565b5b5f82013567ffffffffffffffff8111156109bd576109bc6106b5565b5b6109c98482850161095e565b91505092915050565b6109db81610771565b82525050565b5f6020820190506109f45f8301846109d2565b92915050565b7f4e487b71000000000000000000000000000000000000000000000000000000005f52602260045260245ffd5b5f6002820490506001821680610a3e57607f821691505b602082108103610a5157610a506109fa565b5b50919050565b7f4e487b71000000000000000000000000000000000000000000000000000000005f52603260045260245ffd5b5f81905092915050565b5f610a98826107cf565b610aa28185610a84565b9350610ab28185602086016107e9565b80840191505092915050565b5f610ac98284610a8e565b915081905092915050565b5f819050815f5260205f209050919050565b5f8154610af281610a27565b610afc8186610a84565b9450600182165f8114610b165760018114610b2b57610b5d565b60ff1983168652811515820286019350610b5d565b610b3485610ad4565b5f5b83811015610b5557815481890152600182019150602081019050610b36565b838801955050505b50505092915050565b5f610b718284610ae6565b915081905092915050565b7f4e487b71000000000000000000000000000000000000000000000000000000005f52600160045260245ffd5b7f596f75206861766520616c726561647920766f746564000000000000000000005f82015250565b5f610bdd6016836107d9565b9150610be882610ba9565b602082019050919050565b5f6020820190508181035f830152610c0a81610bd1565b9050919050565b7f496e76616c69642063616e6469646174650000000000000000000000000000005f82015250565b5f610c456011836107d9565b9150610c5082610c11565b602082019050919050565b5f6020820190508181035f830152610c7281610c39565b9050919050565b7f4e487b71000000000000000000000000000000000000000000000000000000005f52601160045260245ffd5b5f610cb082610771565b91507fffffffffffffffffffffffffffffffffffffffffffffffffffffffffffffffff8203610ce257610ce1610c79565b5b600182019050919050565b610cf6816106d8565b82525050565b5f604082019050610d0f5f830185610ced565b8181036020830152610d218184610807565b90509392505050565b7f566f74696e6720706572696f642068617320656e6465640000000000000000005f82015250565b5f610d5e6017836107d9565b9150610d6982610d2a565b602082019050919050565b5f6020820190508181035f830152610d8b81610d52565b905091905056fea26469706673582212204ce1d25c9d30ff63d403b5e99fe45e62011c2609226a9928bd87e119e69cd0d664736f6c634300081a0033",
					"opcodes": "PUSH1 0x80 PUSH1 0x40 MSTORE CALLVALUE DUP1 ISZERO PUSH2 0xF JUMPI PUSH0 DUP1 REVERT JUMPDEST POP PUSH1 0x40 MLOAD PUSH2 0x156E CODESIZE SUB DUP1 PUSH2 0x156E DUP4 CODECOPY DUP2 DUP2 ADD PUSH1 0x40 MSTORE DUP2 ADD SWAP1 PUSH2 0x31 SWAP2 SWAP1 PUSH2 0x3A9 JUMP JUMPDEST DUP1 PUSH1 0x1 SWAP1 DUP1 MLOAD SWAP1 PUSH1 0x20 ADD SWAP1 PUSH2 0x47 SWAP3 SWAP2 SWAP1 PUSH2 0xA8 JUMP JUMPDEST POP PUSH0 JUMPDEST PUSH1 0x1 DUP1 SLOAD SWAP1 POP DUP2 LT ISZERO PUSH2 0xA1 JUMPI PUSH0 DUP1 PUSH1 0x1 DUP4 DUP2 SLOAD DUP2 LT PUSH2 0x6D JUMPI PUSH2 0x6C PUSH2 0x3F0 JUMP JUMPDEST JUMPDEST SWAP1 PUSH0 MSTORE PUSH1 0x20 PUSH0 KECCAK256 ADD PUSH1 0x40 MLOAD PUSH2 0x82 SWAP2 SWAP1 PUSH2 0x516 JUMP JUMPDEST SWAP1 DUP2 MSTORE PUSH1 0x20 ADD PUSH1 0x40 MLOAD DUP1 SWAP2 SUB SWAP1 KECCAK256 DUP2 SWAP1 SSTORE POP DUP1 DUP1 PUSH1 0x1 ADD SWAP2 POP POP PUSH2 0x4A JUMP JUMPDEST POP POP PUSH2 0x799 JUMP JUMPDEST DUP3 DUP1 SLOAD DUP3 DUP3 SSTORE SWAP1 PUSH0 MSTORE PUSH1 0x20 PUSH0 KECCAK256 SWAP1 DUP2 ADD SWAP3 DUP3 ISZERO PUSH2 0xEE JUMPI SWAP2 PUSH1 0x20 MUL DUP3 ADD JUMPDEST DUP3 DUP2 GT ISZERO PUSH2 0xED JUMPI DUP3 MLOAD DUP3 SWAP1 DUP2 PUSH2 0xDD SWAP2 SWAP1 PUSH2 0x6CA JUMP JUMPDEST POP SWAP2 PUSH1 0x20 ADD SWAP2 SWAP1 PUSH1 0x1 ADD SWAP1 PUSH2 0xC6 JUMP JUMPDEST JUMPDEST POP SWAP1 POP PUSH2 0xFB SWAP2 SWAP1 PUSH2 0xFF JUMP JUMPDEST POP SWAP1 JUMP JUMPDEST JUMPDEST DUP1 DUP3 GT ISZERO PUSH2 0x11E JUMPI PUSH0 DUP2 DUP2 PUSH2 0x115 SWAP2 SWAP1 PUSH2 0x122 JUMP JUMPDEST POP PUSH1 0x1 ADD PUSH2 0x100 JUMP JUMPDEST POP SWAP1 JUMP JUMPDEST POP DUP1 SLOAD PUSH2 0x12E SWAP1 PUSH2 0x44A JUMP JUMPDEST PUSH0 DUP3 SSTORE DUP1 PUSH1 0x1F LT PUSH2 0x13F JUMPI POP PUSH2 0x15C JUMP JUMPDEST PUSH1 0x1F ADD PUSH1 0x20 SWAP1 DIV SWAP1 PUSH0 MSTORE PUSH1 0x20 PUSH0 KECCAK256 SWAP1 DUP2 ADD SWAP1 PUSH2 0x15B SWAP2 SWAP1 PUSH2 0x15F JUMP JUMPDEST JUMPDEST POP JUMP JUMPDEST JUMPDEST DUP1 DUP3 GT ISZERO PUSH2 0x176 JUMPI PUSH0 DUP2 PUSH0 SWAP1 SSTORE POP PUSH1 0x1 ADD PUSH2 0x160 JUMP JUMPDEST POP SWAP1 JUMP JUMPDEST PUSH0 PUSH1 0x40 MLOAD SWAP1 POP SWAP1 JUMP JUMPDEST PUSH0 DUP1 REVERT JUMPDEST PUSH0 DUP1 REVERT JUMPDEST PUSH0 DUP1 REVERT JUMPDEST PUSH0 PUSH1 0x1F NOT PUSH1 0x1F DUP4 ADD AND SWAP1 POP SWAP2 SWAP1 POP JUMP JUMPDEST PUSH32 0x4E487B7100000000000000000000000000000000000000000000000000000000 PUSH0 MSTORE PUSH1 0x41 PUSH1 0x4 MSTORE PUSH1 0x24 PUSH0 REVERT JUMPDEST PUSH2 0x1D5 DUP3 PUSH2 0x18F JUMP JUMPDEST DUP2 ADD DUP2 DUP2 LT PUSH8 0xFFFFFFFFFFFFFFFF DUP3 GT OR ISZERO PUSH2 0x1F4 JUMPI PUSH2 0x1F3 PUSH2 0x19F JUMP JUMPDEST JUMPDEST DUP1 PUSH1 0x40 MSTORE POP POP POP JUMP JUMPDEST PUSH0 PUSH2 0x206 PUSH2 0x17A JUMP JUMPDEST SWAP1 POP PUSH2 0x212 DUP3 DUP3 PUSH2 0x1CC JUMP JUMPDEST SWAP2 SWAP1 POP JUMP JUMPDEST PUSH0 PUSH8 0xFFFFFFFFFFFFFFFF DUP3 GT ISZERO PUSH2 0x231 JUMPI PUSH2 0x230 PUSH2 0x19F JUMP JUMPDEST JUMPDEST PUSH1 0x20 DUP3 MUL SWAP1 POP PUSH1 0x20 DUP2 ADD SWAP1 POP SWAP2 SWAP1 POP JUMP JUMPDEST PUSH0 DUP1 REVERT JUMPDEST PUSH0 DUP1 REVERT JUMPDEST PUSH0 PUSH8 0xFFFFFFFFFFFFFFFF DUP3 GT ISZERO PUSH2 0x264 JUMPI PUSH2 0x263 PUSH2 0x19F JUMP JUMPDEST JUMPDEST PUSH2 0x26D DUP3 PUSH2 0x18F JUMP JUMPDEST SWAP1 POP PUSH1 0x20 DUP2 ADD SWAP1 POP SWAP2 SWAP1 POP JUMP JUMPDEST DUP3 DUP2 DUP4 MCOPY PUSH0 DUP4 DUP4 ADD MSTORE POP POP POP JUMP JUMPDEST PUSH0 PUSH2 0x29A PUSH2 0x295 DUP5 PUSH2 0x24A JUMP JUMPDEST PUSH2 0x1FD JUMP JUMPDEST SWAP1 POP DUP3 DUP2 MSTORE PUSH1 0x20 DUP2 ADD DUP5 DUP5 DUP5 ADD GT ISZERO PUSH2 0x2B6 JUMPI PUSH2 0x2B5 PUSH2 0x246 JUMP JUMPDEST JUMPDEST PUSH2 0x2C1 DUP5 DUP3 DUP6 PUSH2 0x27A JUMP JUMPDEST POP SWAP4 SWAP3 POP POP POP JUMP JUMPDEST PUSH0 DUP3 PUSH1 0x1F DUP4 ADD SLT PUSH2 0x2DD JUMPI PUSH2 0x2DC PUSH2 0x18B JUMP JUMPDEST JUMPDEST DUP2 MLOAD PUSH2 0x2ED DUP5 DUP3 PUSH1 0x20 DUP7 ADD PUSH2 0x288 JUMP JUMPDEST SWAP2 POP POP SWAP3 SWAP2 POP POP JUMP JUMPDEST PUSH0 PUSH2 0x308 PUSH2 0x303 DUP5 PUSH2 0x217 JUMP JUMPDEST PUSH2 0x1FD JUMP JUMPDEST SWAP1 POP DUP1 DUP4 DUP3 MSTORE PUSH1 0x20 DUP3 ADD SWAP1 POP PUSH1 0x20 DUP5 MUL DUP4 ADD DUP6 DUP2 GT ISZERO PUSH2 0x32B JUMPI PUSH2 0x32A PUSH2 0x242 JUMP JUMPDEST JUMPDEST DUP4 JUMPDEST DUP2 DUP2 LT ISZERO PUSH2 0x372 JUMPI DUP1 MLOAD PUSH8 0xFFFFFFFFFFFFFFFF DUP2 GT ISZERO PUSH2 0x350 JUMPI PUSH2 0x34F PUSH2 0x18B JUMP JUMPDEST JUMPDEST DUP1 DUP7 ADD PUSH2 0x35D DUP10 DUP3 PUSH2 0x2C9 JUMP JUMPDEST DUP6 MSTORE PUSH1 0x20 DUP6 ADD SWAP5 POP POP POP PUSH1 0x20 DUP2 ADD SWAP1 POP PUSH2 0x32D JUMP JUMPDEST POP POP POP SWAP4 SWAP3 POP POP POP JUMP JUMPDEST PUSH0 DUP3 PUSH1 0x1F DUP4 ADD SLT PUSH2 0x390 JUMPI PUSH2 0x38F PUSH2 0x18B JUMP JUMPDEST JUMPDEST DUP2 MLOAD PUSH2 0x3A0 DUP5 DUP3 PUSH1 0x20 DUP7 ADD PUSH2 0x2F6 JUMP JUMPDEST SWAP2 POP POP SWAP3 SWAP2 POP POP JUMP JUMPDEST PUSH0 PUSH1 0x20 DUP3 DUP5 SUB SLT ISZERO PUSH2 0x3BE JUMPI PUSH2 0x3BD PUSH2 0x183 JUMP JUMPDEST JUMPDEST PUSH0 DUP3 ADD MLOAD PUSH8 0xFFFFFFFFFFFFFFFF DUP2 GT ISZERO PUSH2 0x3DB JUMPI PUSH2 0x3DA PUSH2 0x187 JUMP JUMPDEST JUMPDEST PUSH2 0x3E7 DUP5 DUP3 DUP6 ADD PUSH2 0x37C JUMP JUMPDEST SWAP2 POP POP SWAP3 SWAP2 POP POP JUMP JUMPDEST PUSH32 0x4E487B7100000000000000000000000000000000000000000000000000000000 PUSH0 MSTORE PUSH1 0x32 PUSH1 0x4 MSTORE PUSH1 0x24 PUSH0 REVERT JUMPDEST PUSH32 0x4E487B7100000000000000000000000000000000000000000000000000000000 PUSH0 MSTORE PUSH1 0x22 PUSH1 0x4 MSTORE PUSH1 0x24 PUSH0 REVERT JUMPDEST PUSH0 PUSH1 0x2 DUP3 DIV SWAP1 POP PUSH1 0x1 DUP3 AND DUP1 PUSH2 0x461 JUMPI PUSH1 0x7F DUP3 AND SWAP2 POP JUMPDEST PUSH1 0x20 DUP3 LT DUP2 SUB PUSH2 0x474 JUMPI PUSH2 0x473 PUSH2 0x41D JUMP JUMPDEST JUMPDEST POP SWAP2 SWAP1 POP JUMP JUMPDEST PUSH0 DUP2 SWAP1 POP SWAP3 SWAP2 POP POP JUMP JUMPDEST PUSH0 DUP2 SWAP1 POP DUP2 PUSH0 MSTORE PUSH1 0x20 PUSH0 KECCAK256 SWAP1 POP SWAP2 SWAP1 POP JUMP JUMPDEST PUSH0 DUP2 SLOAD PUSH2 0x4A2 DUP2 PUSH2 0x44A JUMP JUMPDEST PUSH2 0x4AC DUP2 DUP7 PUSH2 0x47A JUMP JUMPDEST SWAP5 POP PUSH1 0x1 DUP3 AND PUSH0 DUP2 EQ PUSH2 0x4C6 JUMPI PUSH1 0x1 DUP2 EQ PUSH2 0x4DB JUMPI PUSH2 0x50D JUMP JUMPDEST PUSH1 0xFF NOT DUP4 AND DUP7 MSTORE DUP2 ISZERO ISZERO DUP3 MUL DUP7 ADD SWAP4 POP PUSH2 0x50D JUMP JUMPDEST PUSH2 0x4E4 DUP6 PUSH2 0x484 JUMP JUMPDEST PUSH0 JUMPDEST DUP4 DUP2 LT ISZERO PUSH2 0x505 JUMPI DUP2 SLOAD DUP2 DUP10 ADD MSTORE PUSH1 0x1 DUP3 ADD SWAP2 POP PUSH1 0x20 DUP2 ADD SWAP1 POP PUSH2 0x4E6 JUMP JUMPDEST DUP4 DUP9 ADD SWAP6 POP POP POP JUMPDEST POP POP POP SWAP3 SWAP2 POP POP JUMP JUMPDEST PUSH0 PUSH2 0x521 DUP3 DUP5 PUSH2 0x496 JUMP JUMPDEST SWAP2 POP DUP2 SWAP1 POP SWAP3 SWAP2 POP POP JUMP JUMPDEST PUSH0 DUP2 MLOAD SWAP1 POP SWAP2 SWAP1 POP JUMP JUMPDEST PUSH0 PUSH1 0x20 PUSH1 0x1F DUP4 ADD DIV SWAP1 POP SWAP2 SWAP1 POP JUMP JUMPDEST PUSH0 DUP3 DUP3 SHL SWAP1 POP SWAP3 SWAP2 POP POP JUMP JUMPDEST PUSH0 PUSH1 0x8 DUP4 MUL PUSH2 0x580 PUSH32 0xFFFFFFFFFFFFFFFFFFFFFFFFFFFFFFFFFFFFFFFFFFFFFFFFFFFFFFFFFFFFFFFF DUP3 PUSH2 0x545 JUMP JUMPDEST PUSH2 0x58A DUP7 DUP4 PUSH2 0x545 JUMP JUMPDEST SWAP6 POP DUP1 NOT DUP5 AND SWAP4 POP DUP1 DUP7 AND DUP5 OR SWAP3 POP POP POP SWAP4 SWAP3 POP POP POP JUMP JUMPDEST PUSH0 DUP2 SWAP1 POP SWAP2 SWAP1 POP JUMP JUMPDEST PUSH0 DUP2 SWAP1 POP SWAP2 SWAP1 POP JUMP JUMPDEST PUSH0 PUSH2 0x5CE PUSH2 0x5C9 PUSH2 0x5C4 DUP5 PUSH2 0x5A2 JUMP JUMPDEST PUSH2 0x5AB JUMP JUMPDEST PUSH2 0x5A2 JUMP JUMPDEST SWAP1 POP SWAP2 SWAP1 POP JUMP JUMPDEST PUSH0 DUP2 SWAP1 POP SWAP2 SWAP1 POP JUMP JUMPDEST PUSH2 0x5E7 DUP4 PUSH2 0x5B4 JUMP JUMPDEST PUSH2 0x5FB PUSH2 0x5F3 DUP3 PUSH2 0x5D5 JUMP JUMPDEST DUP5 DUP5 SLOAD PUSH2 0x551 JUMP JUMPDEST DUP3 SSTORE POP POP POP POP JUMP JUMPDEST PUSH0 SWAP1 JUMP JUMPDEST PUSH2 0x60F PUSH2 0x603 JUMP JUMPDEST PUSH2 0x61A DUP2 DUP5 DUP5 PUSH2 0x5DE JUMP JUMPDEST POP POP POP JUMP JUMPDEST JUMPDEST DUP2 DUP2 LT ISZERO PUSH2 0x63D JUMPI PUSH2 0x632 PUSH0 DUP3 PUSH2 0x607 JUMP JUMPDEST PUSH1 0x1 DUP2 ADD SWAP1 POP PUSH2 0x620 JUMP JUMPDEST POP POP JUMP JUMPDEST PUSH1 0x1F DUP3 GT ISZERO PUSH2 0x682 JUMPI PUSH2 0x653 DUP2 PUSH2 0x484 JUMP JUMPDEST PUSH2 0x65C DUP5 PUSH2 0x536 JUMP JUMPDEST DUP2 ADD PUSH1 0x20 DUP6 LT ISZERO PUSH2 0x66B JUMPI DUP2 SWAP1 POP JUMPDEST PUSH2 0x67F PUSH2 0x677 DUP6 PUSH2 0x536 JUMP JUMPDEST DUP4 ADD DUP3 PUSH2 0x61F JUMP JUMPDEST POP POP JUMPDEST POP POP POP JUMP JUMPDEST PUSH0 DUP3 DUP3 SHR SWAP1 POP SWAP3 SWAP2 POP POP JUMP JUMPDEST PUSH0 PUSH2 0x6A2 PUSH0 NOT DUP5 PUSH1 0x8 MUL PUSH2 0x687 JUMP JUMPDEST NOT DUP1 DUP4 AND SWAP2 POP POP SWAP3 SWAP2 POP POP JUMP JUMPDEST PUSH0 PUSH2 0x6BA DUP4 DUP4 PUSH2 0x693 JUMP JUMPDEST SWAP2 POP DUP3 PUSH1 0x2 MUL DUP3 OR SWAP1 POP SWAP3 SWAP2 POP POP JUMP JUMPDEST PUSH2 0x6D3 DUP3 PUSH2 0x52C JUMP JUMPDEST PUSH8 0xFFFFFFFFFFFFFFFF DUP2 GT ISZERO PUSH2 0x6EC JUMPI PUSH2 0x6EB PUSH2 0x19F JUMP JUMPDEST JUMPDEST PUSH2 0x6F6 DUP3 SLOAD PUSH2 0x44A JUMP JUMPDEST PUSH2 0x701 DUP3 DUP3 DUP6 PUSH2 0x641 JUMP JUMPDEST PUSH0 PUSH1 0x20 SWAP1 POP PUSH1 0x1F DUP4 GT PUSH1 0x1 DUP2 EQ PUSH2 0x732 JUMPI PUSH0 DUP5 ISZERO PUSH2 0x720 JUMPI DUP3 DUP8 ADD MLOAD SWAP1 POP JUMPDEST PUSH2 0x72A DUP6 DUP3 PUSH2 0x6AF JUMP JUMPDEST DUP7 SSTORE POP PUSH2 0x791 JUMP JUMPDEST PUSH1 0x1F NOT DUP5 AND PUSH2 0x740 DUP7 PUSH2 0x484 JUMP JUMPDEST PUSH0 JUMPDEST DUP3 DUP2 LT ISZERO PUSH2 0x767 JUMPI DUP5 DUP10 ADD MLOAD DUP3 SSTORE PUSH1 0x1 DUP3 ADD SWAP2 POP PUSH1 0x20 DUP6 ADD SWAP5 POP PUSH1 0x20 DUP2 ADD SWAP1 POP PUSH2 0x742 JUMP JUMPDEST DUP7 DUP4 LT ISZERO PUSH2 0x784 JUMPI DUP5 DUP10 ADD MLOAD PUSH2 0x780 PUSH1 0x1F DUP10 AND DUP3 PUSH2 0x693 JUMP JUMPDEST DUP4 SSTORE POP JUMPDEST PUSH1 0x1 PUSH1 0x2 DUP9 MUL ADD DUP9 SSTORE POP POP POP JUMPDEST POP POP POP POP POP POP JUMP JUMPDEST PUSH2 0xDC8 DUP1 PUSH2 0x7A6 PUSH0 CODECOPY PUSH0 RETURN INVALID PUSH1 0x80 PUSH1 0x40 MSTORE CALLVALUE DUP1 ISZERO PUSH2 0xF JUMPI PUSH0 DUP1 REVERT JUMPDEST POP PUSH1 0x4 CALLDATASIZE LT PUSH2 0x60 JUMPI PUSH0 CALLDATALOAD PUSH1 0xE0 SHR DUP1 PUSH4 0x9EEF43E EQ PUSH2 0x64 JUMPI DUP1 PUSH4 0x3477EE2E EQ PUSH2 0x94 JUMPI DUP1 PUSH4 0x8E7EA5B2 EQ PUSH2 0xC4 JUMPI DUP1 PUSH4 0x9CC2D993 EQ PUSH2 0xE2 JUMPI DUP1 PUSH4 0xB99EF1FA EQ PUSH2 0xFE JUMPI DUP1 PUSH4 0xE80A57A5 EQ PUSH2 0x12E JUMPI JUMPDEST PUSH0 DUP1 REVERT JUMPDEST PUSH2 0x7E PUSH1 0x4 DUP1 CALLDATASIZE SUB DUP2 ADD SWAP1 PUSH2 0x79 SWAP2 SWAP1 PUSH2 0x713 JUMP JUMPDEST PUSH2 0x138 JUMP JUMPDEST PUSH1 0x40 MLOAD PUSH2 0x8B SWAP2 SWAP1 PUSH2 0x758 JUMP JUMPDEST PUSH1 0x40 MLOAD DUP1 SWAP2 SUB SWAP1 RETURN JUMPDEST PUSH2 0xAE PUSH1 0x4 DUP1 CALLDATASIZE SUB DUP2 ADD SWAP1 PUSH2 0xA9 SWAP2 SWAP1 PUSH2 0x7A4 JUMP JUMPDEST PUSH2 0x155 JUMP JUMPDEST PUSH1 0x40 MLOAD PUSH2 0xBB SWAP2 SWAP1 PUSH2 0x83F JUMP JUMPDEST PUSH1 0x40 MLOAD DUP1 SWAP2 SUB SWAP1 RETURN JUMPDEST PUSH2 0xCC PUSH2 0x1FB JUMP JUMPDEST PUSH1 0x40 MLOAD PUSH2 0xD9 SWAP2 SWAP1 PUSH2 0x83F JUMP JUMPDEST PUSH1 0x40 MLOAD DUP1 SWAP2 SUB SWAP1 RETURN JUMPDEST PUSH2 0xFC PUSH1 0x4 DUP1 CALLDATASIZE SUB DUP2 ADD SWAP1 PUSH2 0xF7 SWAP2 SWAP1 PUSH2 0x98B JUMP JUMPDEST PUSH2 0x41E JUMP JUMPDEST STOP JUMPDEST PUSH2 0x118 PUSH1 0x4 DUP1 CALLDATASIZE SUB DUP2 ADD SWAP1 PUSH2 0x113 SWAP2 SWAP1 PUSH2 0x98B JUMP JUMPDEST PUSH2 0x641 JUMP JUMPDEST PUSH1 0x40 MLOAD PUSH2 0x125 SWAP2 SWAP1 PUSH2 0x9E1 JUMP JUMPDEST PUSH1 0x40 MLOAD DUP1 SWAP2 SUB SWAP1 RETURN JUMPDEST PUSH2 0x136 PUSH2 0x66D JUMP JUMPDEST STOP JUMPDEST PUSH1 0x2 PUSH1 0x20 MSTORE DUP1 PUSH0 MSTORE PUSH1 0x40 PUSH0 KECCAK256 PUSH0 SWAP2 POP SLOAD SWAP1 PUSH2 0x100 EXP SWAP1 DIV PUSH1 0xFF AND DUP2 JUMP JUMPDEST PUSH1 0x1 DUP2 DUP2 SLOAD DUP2 LT PUSH2 0x164 JUMPI PUSH0 DUP1 REVERT JUMPDEST SWAP1 PUSH0 MSTORE PUSH1 0x20 PUSH0 KECCAK256 ADD PUSH0 SWAP2 POP SWAP1 POP DUP1 SLOAD PUSH2 0x17C SWAP1 PUSH2 0xA27 JUMP JUMPDEST DUP1 PUSH1 0x1F ADD PUSH1 0x20 DUP1 SWAP2 DIV MUL PUSH1 0x20 ADD PUSH1 0x40 MLOAD SWAP1 DUP2 ADD PUSH1 0x40 MSTORE DUP1 SWAP3 SWAP2 SWAP1 DUP2 DUP2 MSTORE PUSH1 0x20 ADD DUP3 DUP1 SLOAD PUSH2 0x1A8 SWAP1 PUSH2 0xA27 JUMP JUMPDEST DUP1 ISZERO PUSH2 0x1F3 JUMPI DUP1 PUSH1 0x1F LT PUSH2 0x1CA JUMPI PUSH2 0x100 DUP1 DUP4 SLOAD DIV MUL DUP4 MSTORE SWAP2 PUSH1 0x20 ADD SWAP2 PUSH2 0x1F3 JUMP JUMPDEST DUP3 ADD SWAP2 SWAP1 PUSH0 MSTORE PUSH1 0x20 PUSH0 KECCAK256 SWAP1 JUMPDEST DUP2 SLOAD DUP2 MSTORE SWAP1 PUSH1 0x1 ADD SWAP1 PUSH1 0x20 ADD DUP1 DUP4 GT PUSH2 0x1D6 JUMPI DUP3 SWAP1 SUB PUSH1 0x1F AND DUP3 ADD SWAP2 JUMPDEST POP POP POP POP POP DUP2 JUMP JUMPDEST PUSH1 0x60 PUSH0 PUSH1 0x1 PUSH0 DUP2 SLOAD DUP2 LT PUSH2 0x212 JUMPI PUSH2 0x211 PUSH2 0xA57 JUMP JUMPDEST JUMPDEST SWAP1 PUSH0 MSTORE PUSH1 0x20 PUSH0 KECCAK256 ADD DUP1 SLOAD PUSH2 0x225 SWAP1 PUSH2 0xA27 JUMP JUMPDEST DUP1 PUSH1 0x1F ADD PUSH1 0x20 DUP1 SWAP2 DIV MUL PUSH1 0x20 ADD PUSH1 0x40 MLOAD SWAP1 DUP2 ADD PUSH1 0x40 MSTORE DUP1 SWAP3 SWAP2 SWAP1 DUP2 DUP2 MSTORE PUSH1 0x20 ADD DUP3 DUP1 SLOAD PUSH2 0x251 SWAP1 PUSH2 0xA27 JUMP JUMPDEST DUP1 ISZERO PUSH2 0x29C JUMPI DUP1 PUSH1 0x1F LT PUSH2 0x273 JUMPI PUSH2 0x100 DUP1 DUP4 SLOAD DIV MUL DUP4 MSTORE SWAP2 PUSH1 0x20 ADD SWAP2 PUSH2 0x29C JUMP JUMPDEST DUP3 ADD SWAP2 SWAP1 PUSH0 MSTORE PUSH1 0x20 PUSH0 KECCAK256 SWAP1 JUMPDEST DUP2 SLOAD DUP2 MSTORE SWAP1 PUSH1 0x1 ADD SWAP1 PUSH1 0x20 ADD DUP1 DUP4 GT PUSH2 0x27F JUMPI DUP3 SWAP1 SUB PUSH1 0x1F AND DUP3 ADD SWAP2 JUMPDEST POP POP POP POP POP SWAP1 POP PUSH0 DUP1 DUP3 PUSH1 0x40 MLOAD PUSH2 0x2B3 SWAP2 SWAP1 PUSH2 0xABE JUMP JUMPDEST SWAP1 DUP2 MSTORE PUSH1 0x20 ADD PUSH1 0x40 MLOAD DUP1 SWAP2 SUB SWAP1 KECCAK256 SLOAD SWAP1 POP PUSH0 PUSH1 0x1 SWAP1 POP JUMPDEST PUSH1 0x1 DUP1 SLOAD SWAP1 POP DUP2 LT ISZERO PUSH2 0x405 JUMPI DUP2 PUSH0 PUSH1 0x1 DUP4 DUP2 SLOAD DUP2 LT PUSH2 0x2ED JUMPI PUSH2 0x2EC PUSH2 0xA57 JUMP JUMPDEST JUMPDEST SWAP1 PUSH0 MSTORE PUSH1 0x20 PUSH0 KECCAK256 ADD PUSH1 0x40 MLOAD PUSH2 0x302 SWAP2 SWAP1 PUSH2 0xB66 JUMP JUMPDEST SWAP1 DUP2 MSTORE PUSH1 0x20 ADD PUSH1 0x40 MLOAD DUP1 SWAP2 SUB SWAP1 KECCAK256 SLOAD GT ISZERO PUSH2 0x3F8 JUMPI PUSH1 0x1 DUP2 DUP2 SLOAD DUP2 LT PUSH2 0x32B JUMPI PUSH2 0x32A PUSH2 0xA57 JUMP JUMPDEST JUMPDEST SWAP1 PUSH0 MSTORE PUSH1 0x20 PUSH0 KECCAK256 ADD DUP1 SLOAD PUSH2 0x33E SWAP1 PUSH2 0xA27 JUMP JUMPDEST DUP1 PUSH1 0x1F ADD PUSH1 0x20 DUP1 SWAP2 DIV MUL PUSH1 0x20 ADD PUSH1 0x40 MLOAD SWAP1 DUP2 ADD PUSH1 0x40 MSTORE DUP1 SWAP3 SWAP2 SWAP1 DUP2 DUP2 MSTORE PUSH1 0x20 ADD DUP3 DUP1 SLOAD PUSH2 0x36A SWAP1 PUSH2 0xA27 JUMP JUMPDEST DUP1 ISZERO PUSH2 0x3B5 JUMPI DUP1 PUSH1 0x1F LT PUSH2 0x38C JUMPI PUSH2 0x100 DUP1 DUP4 SLOAD DIV MUL DUP4 MSTORE SWAP2 PUSH1 0x20 ADD SWAP2 PUSH2 0x3B5 JUMP JUMPDEST DUP3 ADD SWAP2 SWAP1 PUSH0 MSTORE PUSH1 0x20 PUSH0 KECCAK256 SWAP1 JUMPDEST DUP2 SLOAD DUP2 MSTORE SWAP1 PUSH1 0x1 ADD SWAP1 PUSH1 0x20 ADD DUP1 DUP4 GT PUSH2 0x398 JUMPI DUP3 SWAP1 SUB PUSH1 0x1F AND DUP3 ADD SWAP2 JUMPDEST POP POP POP POP POP SWAP3 POP PUSH0 PUSH1 0x1 DUP3 DUP2 SLOAD DUP2 LT PUSH2 0x3D1 JUMPI PUSH2 0x3D0 PUSH2 0xA57 JUMP JUMPDEST JUMPDEST SWAP1 PUSH0 MSTORE PUSH1 0x20 PUSH0 KECCAK256 ADD PUSH1 0x40 MLOAD PUSH2 0x3E6 SWAP2 SWAP1 PUSH2 0xB66 JUMP JUMPDEST SWAP1 DUP2 MSTORE PUSH1 0x20 ADD PUSH1 0x40 MLOAD DUP1 SWAP2 SUB SWAP1 KECCAK256 SLOAD SWAP2 POP JUMPDEST DUP1 DUP1 PUSH1 0x1 ADD SWAP2 POP POP PUSH2 0x2CA JUMP JUMPDEST POP PUSH0 DUP2 GT PUSH2 0x416 JUMPI PUSH2 0x415 PUSH2 0xB7C JUMP JUMPDEST JUMPDEST DUP2 SWAP3 POP POP POP SWAP1 JUMP JUMPDEST PUSH1 0x2 PUSH0 CALLER PUSH20 0xFFFFFFFFFFFFFFFFFFFFFFFFFFFFFFFFFFFFFFFF AND PUSH20 0xFFFFFFFFFFFFFFFFFFFFFFFFFFFFFFFFFFFFFFFF AND DUP2 MSTORE PUSH1 0x20 ADD SWAP1 DUP2 MSTORE PUSH1 0x20 ADD PUSH0 KECCAK256 PUSH0 SWAP1 SLOAD SWAP1 PUSH2 0x100 EXP SWAP1 DIV PUSH1 0xFF AND ISZERO PUSH2 0x4A8 JUMPI PUSH1 0x40 MLOAD PUSH32 0x8C379A000000000000000000000000000000000000000000000000000000000 DUP2 MSTORE PUSH1 0x4 ADD PUSH2 0x49F SWAP1 PUSH2 0xBF3 JUMP JUMPDEST PUSH1 0x40 MLOAD DUP1 SWAP2 SUB SWAP1 REVERT JUMPDEST PUSH0 DUP1 JUMPDEST PUSH1 0x1 DUP1 SLOAD SWAP1 POP DUP2 LT ISZERO PUSH2 0x53C JUMPI DUP3 PUSH1 0x40 MLOAD PUSH1 0x20 ADD PUSH2 0x4C9 SWAP2 SWAP1 PUSH2 0xABE JUMP JUMPDEST PUSH1 0x40 MLOAD PUSH1 0x20 DUP2 DUP4 SUB SUB DUP2 MSTORE SWAP1 PUSH1 0x40 MSTORE DUP1 MLOAD SWAP1 PUSH1 0x20 ADD KECCAK256 PUSH1 0x1 DUP3 DUP2 SLOAD DUP2 LT PUSH2 0x4F3 JUMPI PUSH2 0x4F2 PUSH2 0xA57 JUMP JUMPDEST JUMPDEST SWAP1 PUSH0 MSTORE PUSH1 0x20 PUSH0 KECCAK256 ADD PUSH1 0x40 MLOAD PUSH1 0x20 ADD PUSH2 0x50B SWAP2 SWAP1 PUSH2 0xB66 JUMP JUMPDEST PUSH1 0x40 MLOAD PUSH1 0x20 DUP2 DUP4 SUB SUB DUP2 MSTORE SWAP1 PUSH1 0x40 MSTORE DUP1 MLOAD SWAP1 PUSH1 0x20 ADD KECCAK256 SUB PUSH2 0x52F JUMPI PUSH1 0x1 SWAP2 POP PUSH2 0x53C JUMP JUMPDEST DUP1 DUP1 PUSH1 0x1 ADD SWAP2 POP POP PUSH2 0x4AB JUMP JUMPDEST POP DUP1 PUSH2 0x57D JUMPI PUSH1 0x40 MLOAD PUSH32 0x8C379A000000000000000000000000000000000000000000000000000000000 DUP2 MSTORE PUSH1 0x4 ADD PUSH2 0x574 SWAP1 PUSH2 0xC5B JUMP JUMPDEST PUSH1 0x40 MLOAD DUP1 SWAP2 SUB SWAP1 REVERT JUMPDEST PUSH0 DUP3 PUSH1 0x40 MLOAD PUSH2 0x58C SWAP2 SWAP1 PUSH2 0xABE JUMP JUMPDEST SWAP1 DUP2 MSTORE PUSH1 0x20 ADD PUSH1 0x40 MLOAD DUP1 SWAP2 SUB SWAP1 KECCAK256 PUSH0 DUP2 SLOAD DUP1 SWAP3 SWAP2 SWAP1 PUSH2 0x5AA SWAP1 PUSH2 0xCA6 JUMP JUMPDEST SWAP2 SWAP1 POP SSTORE POP PUSH1 0x1 PUSH1 0x2 PUSH0 CALLER PUSH20 0xFFFFFFFFFFFFFFFFFFFFFFFFFFFFFFFFFFFFFFFF AND PUSH20 0xFFFFFFFFFFFFFFFFFFFFFFFFFFFFFFFFFFFFFFFF AND DUP2 MSTORE PUSH1 0x20 ADD SWAP1 DUP2 MSTORE PUSH1 0x20 ADD PUSH0 KECCAK256 PUSH0 PUSH2 0x100 EXP DUP2 SLOAD DUP2 PUSH1 0xFF MUL NOT AND SWAP1 DUP4 ISZERO ISZERO MUL OR SWAP1 SSTORE POP PUSH32 0x866DC605853954FFA419910EB05D67F430EFEC2E7DB7CE135BF55565667A4AB4 CALLER DUP4 PUSH1 0x40 MLOAD PUSH2 0x635 SWAP3 SWAP2 SWAP1 PUSH2 0xCFC JUMP JUMPDEST PUSH1 0x40 MLOAD DUP1 SWAP2 SUB SWAP1 LOG1 POP POP JUMP JUMPDEST PUSH0 DUP2 DUP1 MLOAD PUSH1 0x20 DUP2 ADD DUP3 ADD DUP1 MLOAD DUP5 DUP3 MSTORE PUSH1 0x20 DUP4 ADD PUSH1 0x20 DUP6 ADD KECCAK256 DUP2 DUP4 MSTORE DUP1 SWAP6 POP POP POP POP POP POP PUSH0 SWAP2 POP SWAP1 POP SLOAD DUP2 JUMP JUMPDEST PUSH1 0x40 MLOAD PUSH32 0x8C379A000000000000000000000000000000000000000000000000000000000 DUP2 MSTORE PUSH1 0x4 ADD PUSH2 0x69F SWAP1 PUSH2 0xD74 JUMP JUMPDEST PUSH1 0x40 MLOAD DUP1 SWAP2 SUB SWAP1 REVERT JUMPDEST PUSH0 PUSH1 0x40 MLOAD SWAP1 POP SWAP1 JUMP JUMPDEST PUSH0 DUP1 REVERT JUMPDEST PUSH0 DUP1 REVERT JUMPDEST PUSH0 PUSH20 0xFFFFFFFFFFFFFFFFFFFFFFFFFFFFFFFFFFFFFFFF DUP3 AND SWAP1 POP SWAP2 SWAP1 POP JUMP JUMPDEST PUSH0 PUSH2 0x6E2 DUP3 PUSH2 0x6B9 JUMP JUMPDEST SWAP1 POP SWAP2 SWAP1 POP JUMP JUMPDEST PUSH2 0x6F2 DUP2 PUSH2 0x6D8 JUMP JUMPDEST DUP2 EQ PUSH2 0x6FC JUMPI PUSH0 DUP1 REVERT JUMPDEST POP JUMP JUMPDEST PUSH0 DUP2 CALLDATALOAD SWAP1 POP PUSH2 0x70D DUP2 PUSH2 0x6E9 JUMP JUMPDEST SWAP3 SWAP2 POP POP JUMP JUMPDEST PUSH0 PUSH1 0x20 DUP3 DUP5 SUB SLT ISZERO PUSH2 0x728 JUMPI PUSH2 0x727 PUSH2 0x6B1 JUMP JUMPDEST JUMPDEST PUSH0 PUSH2 0x735 DUP5 DUP3 DUP6 ADD PUSH2 0x6FF JUMP JUMPDEST SWAP2 POP POP SWAP3 SWAP2 POP POP JUMP JUMPDEST PUSH0 DUP2 ISZERO ISZERO SWAP1 POP SWAP2 SWAP1 POP JUMP JUMPDEST PUSH2 0x752 DUP2 PUSH2 0x73E JUMP JUMPDEST DUP3 MSTORE POP POP JUMP JUMPDEST PUSH0 PUSH1 0x20 DUP3 ADD SWAP1 POP PUSH2 0x76B PUSH0 DUP4 ADD DUP5 PUSH2 0x749 JUMP JUMPDEST SWAP3 SWAP2 POP POP JUMP JUMPDEST PUSH0 DUP2 SWAP1 POP SWAP2 SWAP1 POP JUMP JUMPDEST PUSH2 0x783 DUP2 PUSH2 0x771 JUMP JUMPDEST DUP2 EQ PUSH2 0x78D JUMPI PUSH0 DUP1 REVERT JUMPDEST POP JUMP JUMPDEST PUSH0 DUP2 CALLDATALOAD SWAP1 POP PUSH2 0x79E DUP2 PUSH2 0x77A JUMP JUMPDEST SWAP3 SWAP2 POP POP JUMP JUMPDEST PUSH0 PUSH1 0x20 DUP3 DUP5 SUB SLT ISZERO PUSH2 0x7B9 JUMPI PUSH2 0x7B8 PUSH2 0x6B1 JUMP JUMPDEST JUMPDEST PUSH0 PUSH2 0x7C6 DUP5 DUP3 DUP6 ADD PUSH2 0x790 JUMP JUMPDEST SWAP2 POP POP SWAP3 SWAP2 POP POP JUMP JUMPDEST PUSH0 DUP2 MLOAD SWAP1 POP SWAP2 SWAP1 POP JUMP JUMPDEST PUSH0 DUP3 DUP3 MSTORE PUSH1 0x20 DUP3 ADD SWAP1 POP SWAP3 SWAP2 POP POP JUMP JUMPDEST DUP3 DUP2 DUP4 MCOPY PUSH0 DUP4 DUP4 ADD MSTORE POP POP POP JUMP JUMPDEST PUSH0 PUSH1 0x1F NOT PUSH1 0x1F DUP4 ADD AND SWAP1 POP SWAP2 SWAP1 POP JUMP JUMPDEST PUSH0 PUSH2 0x811 DUP3 PUSH2 0x7CF JUMP JUMPDEST PUSH2 0x81B DUP2 DUP6 PUSH2 0x7D9 JUMP JUMPDEST SWAP4 POP PUSH2 0x82B DUP2 DUP6 PUSH1 0x20 DUP7 ADD PUSH2 0x7E9 JUMP JUMPDEST PUSH2 0x834 DUP2 PUSH2 0x7F7 JUMP JUMPDEST DUP5 ADD SWAP2 POP POP SWAP3 SWAP2 POP POP JUMP JUMPDEST PUSH0 PUSH1 0x20 DUP3 ADD SWAP1 POP DUP2 DUP2 SUB PUSH0 DUP4 ADD MSTORE PUSH2 0x857 DUP2 DUP5 PUSH2 0x807 JUMP JUMPDEST SWAP1 POP SWAP3 SWAP2 POP POP JUMP JUMPDEST PUSH0 DUP1 REVERT JUMPDEST PUSH0 DUP1 REVERT JUMPDEST PUSH32 0x4E487B7100000000000000000000000000000000000000000000000000000000 PUSH0 MSTORE PUSH1 0x41 PUSH1 0x4 MSTORE PUSH1 0x24 PUSH0 REVERT JUMPDEST PUSH2 0x89D DUP3 PUSH2 0x7F7 JUMP JUMPDEST DUP2 ADD DUP2 DUP2 LT PUSH8 0xFFFFFFFFFFFFFFFF DUP3 GT OR ISZERO PUSH2 0x8BC JUMPI PUSH2 0x8BB PUSH2 0x867 JUMP JUMPDEST JUMPDEST DUP1 PUSH1 0x40 MSTORE POP POP POP JUMP JUMPDEST PUSH0 PUSH2 0x8CE PUSH2 0x6A8 JUMP JUMPDEST SWAP1 POP PUSH2 0x8DA DUP3 DUP3 PUSH2 0x894 JUMP JUMPDEST SWAP2 SWAP1 POP JUMP JUMPDEST PUSH0 PUSH8 0xFFFFFFFFFFFFFFFF DUP3 GT ISZERO PUSH2 0x8F9 JUMPI PUSH2 0x8F8 PUSH2 0x867 JUMP JUMPDEST JUMPDEST PUSH2 0x902 DUP3 PUSH2 0x7F7 JUMP JUMPDEST SWAP1 POP PUSH1 0x20 DUP2 ADD SWAP1 POP SWAP2 SWAP1 POP JUMP JUMPDEST DUP3 DUP2 DUP4 CALLDATACOPY PUSH0 DUP4 DUP4 ADD MSTORE POP POP POP JUMP JUMPDEST PUSH0 PUSH2 0x92F PUSH2 0x92A DUP5 PUSH2 0x8DF JUMP JUMPDEST PUSH2 0x8C5 JUMP JUMPDEST SWAP1 POP DUP3 DUP2 MSTORE PUSH1 0x20 DUP2 ADD DUP5 DUP5 DUP5 ADD GT ISZERO PUSH2 0x94B JUMPI PUSH2 0x94A PUSH2 0x863 JUMP JUMPDEST JUMPDEST PUSH2 0x956 DUP5 DUP3 DUP6 PUSH2 0x90F JUMP JUMPDEST POP SWAP4 SWAP3 POP POP POP JUMP JUMPDEST PUSH0 DUP3 PUSH1 0x1F DUP4 ADD SLT PUSH2 0x972 JUMPI PUSH2 0x971 PUSH2 0x85F JUMP JUMPDEST JUMPDEST DUP2 CALLDATALOAD PUSH2 0x982 DUP5 DUP3 PUSH1 0x20 DUP7 ADD PUSH2 0x91D JUMP JUMPDEST SWAP2 POP POP SWAP3 SWAP2 POP POP JUMP JUMPDEST PUSH0 PUSH1 0x20 DUP3 DUP5 SUB SLT ISZERO PUSH2 0x9A0 JUMPI PUSH2 0x99F PUSH2 0x6B1 JUMP JUMPDEST JUMPDEST PUSH0 DUP3 ADD CALLDATALOAD PUSH8 0xFFFFFFFFFFFFFFFF DUP2 GT ISZERO PUSH2 0x9BD JUMPI PUSH2 0x9BC PUSH2 0x6B5 JUMP JUMPDEST JUMPDEST PUSH2 0x9C9 DUP5 DUP3 DUP6 ADD PUSH2 0x95E JUMP JUMPDEST SWAP2 POP POP SWAP3 SWAP2 POP POP JUMP JUMPDEST PUSH2 0x9DB DUP2 PUSH2 0x771 JUMP JUMPDEST DUP3 MSTORE POP POP JUMP JUMPDEST PUSH0 PUSH1 0x20 DUP3 ADD SWAP1 POP PUSH2 0x9F4 PUSH0 DUP4 ADD DUP5 PUSH2 0x9D2 JUMP JUMPDEST SWAP3 SWAP2 POP POP JUMP JUMPDEST PUSH32 0x4E487B7100000000000000000000000000000000000000000000000000000000 PUSH0 MSTORE PUSH1 0x22 PUSH1 0x4 MSTORE PUSH1 0x24 PUSH0 REVERT JUMPDEST PUSH0 PUSH1 0x2 DUP3 DIV SWAP1 POP PUSH1 0x1 DUP3 AND DUP1 PUSH2 0xA3E JUMPI PUSH1 0x7F DUP3 AND SWAP2 POP JUMPDEST PUSH1 0x20 DUP3 LT DUP2 SUB PUSH2 0xA51 JUMPI PUSH2 0xA50 PUSH2 0x9FA JUMP JUMPDEST JUMPDEST POP SWAP2 SWAP1 POP JUMP JUMPDEST PUSH32 0x4E487B7100000000000000000000000000000000000000000000000000000000 PUSH0 MSTORE PUSH1 0x32 PUSH1 0x4 MSTORE PUSH1 0x24 PUSH0 REVERT JUMPDEST PUSH0 DUP2 SWAP1 POP SWAP3 SWAP2 POP POP JUMP JUMPDEST PUSH0 PUSH2 0xA98 DUP3 PUSH2 0x7CF JUMP JUMPDEST PUSH2 0xAA2 DUP2 DUP6 PUSH2 0xA84 JUMP JUMPDEST SWAP4 POP PUSH2 0xAB2 DUP2 DUP6 PUSH1 0x20 DUP7 ADD PUSH2 0x7E9 JUMP JUMPDEST DUP1 DUP5 ADD SWAP2 POP POP SWAP3 SWAP2 POP POP JUMP JUMPDEST PUSH0 PUSH2 0xAC9 DUP3 DUP5 PUSH2 0xA8E JUMP JUMPDEST SWAP2 POP DUP2 SWAP1 POP SWAP3 SWAP2 POP POP JUMP JUMPDEST PUSH0 DUP2 SWAP1 POP DUP2 PUSH0 MSTORE PUSH1 0x20 PUSH0 KECCAK256 SWAP1 POP SWAP2 SWAP1 POP JUMP JUMPDEST PUSH0 DUP2 SLOAD PUSH2 0xAF2 DUP2 PUSH2 0xA27 JUMP JUMPDEST PUSH2 0xAFC DUP2 DUP7 PUSH2 0xA84 JUMP JUMPDEST SWAP5 POP PUSH1 0x1 DUP3 AND PUSH0 DUP2 EQ PUSH2 0xB16 JUMPI PUSH1 0x1 DUP2 EQ PUSH2 0xB2B JUMPI PUSH2 0xB5D JUMP JUMPDEST PUSH1 0xFF NOT DUP4 AND DUP7 MSTORE DUP2 ISZERO ISZERO DUP3 MUL DUP7 ADD SWAP4 POP PUSH2 0xB5D JUMP JUMPDEST PUSH2 0xB34 DUP6 PUSH2 0xAD4 JUMP JUMPDEST PUSH0 JUMPDEST DUP4 DUP2 LT ISZERO PUSH2 0xB55 JUMPI DUP2 SLOAD DUP2 DUP10 ADD MSTORE PUSH1 0x1 DUP3 ADD SWAP2 POP PUSH1 0x20 DUP2 ADD SWAP1 POP PUSH2 0xB36 JUMP JUMPDEST DUP4 DUP9 ADD SWAP6 POP POP POP JUMPDEST POP POP POP SWAP3 SWAP2 POP POP JUMP JUMPDEST PUSH0 PUSH2 0xB71 DUP3 DUP5 PUSH2 0xAE6 JUMP JUMPDEST SWAP2 POP DUP2 SWAP1 POP SWAP3 SWAP2 POP POP JUMP JUMPDEST PUSH32 0x4E487B7100000000000000000000000000000000000000000000000000000000 PUSH0 MSTORE PUSH1 0x1 PUSH1 0x4 MSTORE PUSH1 0x24 PUSH0 REVERT JUMPDEST PUSH32 0x596F75206861766520616C726561647920766F74656400000000000000000000 PUSH0 DUP3 ADD MSTORE POP JUMP JUMPDEST PUSH0 PUSH2 0xBDD PUSH1 0x16 DUP4 PUSH2 0x7D9 JUMP JUMPDEST SWAP2 POP PUSH2 0xBE8 DUP3 PUSH2 0xBA9 JUMP JUMPDEST PUSH1 0x20 DUP3 ADD SWAP1 POP SWAP2 SWAP1 POP JUMP JUMPDEST PUSH0 PUSH1 0x20 DUP3 ADD SWAP1 POP DUP2 DUP2 SUB PUSH0 DUP4 ADD MSTORE PUSH2 0xC0A DUP2 PUSH2 0xBD1 JUMP JUMPDEST SWAP1 POP SWAP2 SWAP1 POP JUMP JUMPDEST PUSH32 0x496E76616C69642063616E646964617465000000000000000000000000000000 PUSH0 DUP3 ADD MSTORE POP JUMP JUMPDEST PUSH0 PUSH2 0xC45 PUSH1 0x11 DUP4 PUSH2 0x7D9 JUMP JUMPDEST SWAP2 POP PUSH2 0xC50 DUP3 PUSH2 0xC11 JUMP JUMPDEST PUSH1 0x20 DUP3 ADD SWAP1 POP SWAP2 SWAP1 POP JUMP JUMPDEST PUSH0 PUSH1 0x20 DUP3 ADD SWAP1 POP DUP2 DUP2 SUB PUSH0 DUP4 ADD MSTORE PUSH2 0xC72 DUP2 PUSH2 0xC39 JUMP JUMPDEST SWAP1 POP SWAP2 SWAP1 POP JUMP JUMPDEST PUSH32 0x4E487B7100000000000000000000000000000000000000000000000000000000 PUSH0 MSTORE PUSH1 0x11 PUSH1 0x4 MSTORE PUSH1 0x24 PUSH0 REVERT JUMPDEST PUSH0 PUSH2 0xCB0 DUP3 PUSH2 0x771 JUMP JUMPDEST SWAP2 POP PUSH32 0xFFFFFFFFFFFFFFFFFFFFFFFFFFFFFFFFFFFFFFFFFFFFFFFFFFFFFFFFFFFFFFFF DUP3 SUB PUSH2 0xCE2 JUMPI PUSH2 0xCE1 PUSH2 0xC79 JUMP JUMPDEST JUMPDEST PUSH1 0x1 DUP3 ADD SWAP1 POP SWAP2 SWAP1 POP JUMP JUMPDEST PUSH2 0xCF6 DUP2 PUSH2 0x6D8 JUMP JUMPDEST DUP3 MSTORE POP POP JUMP JUMPDEST PUSH0 PUSH1 0x40 DUP3 ADD SWAP1 POP PUSH2 0xD0F PUSH0 DUP4 ADD DUP6 PUSH2 0xCED JUMP JUMPDEST DUP2 DUP2 SUB PUSH1 0x20 DUP4 ADD MSTORE PUSH2 0xD21 DUP2 DUP5 PUSH2 0x807 JUMP JUMPDEST SWAP1 POP SWAP4 SWAP3 POP POP POP JUMP JUMPDEST PUSH32 0x566F74696E6720706572696F642068617320656E646564000000000000000000 PUSH0 DUP3 ADD MSTORE POP JUMP JUMPDEST PUSH0 PUSH2 0xD5E PUSH1 0x17 DUP4 PUSH2 0x7D9 JUMP JUMPDEST SWAP2 POP PUSH2 0xD69 DUP3 PUSH2 0xD2A JUMP JUMPDEST PUSH1 0x20 DUP3 ADD SWAP1 POP SWAP2 SWAP1 POP JUMP JUMPDEST PUSH0 PUSH1 0x20 DUP3 ADD SWAP1 POP DUP2 DUP2 SUB PUSH0 DUP4 ADD MSTORE PUSH2 0xD8B DUP2 PUSH2 0xD52 JUMP JUMPDEST SWAP1 POP SWAP2 SWAP1 POP JUMP INVALID LOG2 PUSH5 0x6970667358 0x22 SLT KECCAK256 0x4C 0xE1 0xD2 TLOAD SWAP14 ADDRESS SELFDESTRUCT PUSH4 0xD403B5E9 SWAP16 0xE4 MCOPY PUSH3 0x11C26 MULMOD 0x22 PUSH11 0x9928BD87E119E69CD0D664 PUSH20 0x6F6C634300081A00330000000000000000000000 "
				},
				"gasEstimates": {
					"creation": {
						"codeDepositCost": "705600",
						"executionCost": "infinite",
						"totalCost": "infinite"
					},
					"external": {
						"candidates(uint256)": "infinite",
						"castVote(string)": "infinite",
						"endVotingPeriod()": "516",
						"getWinner()": "infinite",
						"hasVoted(address)": "2811",
						"votes(string)": "infinite"
					}
				},
				"methodIdentifiers": {
					"candidates(uint256)": "3477ee2e",
					"castVote(string)": "9cc2d993",
					"endVotingPeriod()": "e80a57a5",
					"getWinner()": "8e7ea5b2",
					"hasVoted(address)": "09eef43e",
					"votes(string)": "b99ef1fa"
				}
			},
			"storageLayout": {
				"storage": [
					{
						"astId": 5,
						"contract": "contracts/myBLCtoken.sol:SimpleVoting",
						"label": "votes",
						"offset": 0,
						"slot": "0",
						"type": "t_mapping(t_string_memory_ptr,t_uint256)"
					},
					{
						"astId": 8,
						"contract": "contracts/myBLCtoken.sol:SimpleVoting",
						"label": "candidates",
						"offset": 0,
						"slot": "1",
						"type": "t_array(t_string_storage)dyn_storage"
					},
					{
						"astId": 12,
						"contract": "contracts/myBLCtoken.sol:SimpleVoting",
						"label": "hasVoted",
						"offset": 0,
						"slot": "2",
						"type": "t_mapping(t_address,t_bool)"
					}
				],
				"types": {
					"t_address": {
						"encoding": "inplace",
						"label": "address",
						"numberOfBytes": "20"
					},
					"t_array(t_string_storage)dyn_storage": {
						"base": "t_string_storage",
						"encoding": "dynamic_array",
						"label": "string[]",
						"numberOfBytes": "32"
					},
					"t_bool": {
						"encoding": "inplace",
						"label": "bool",
						"numberOfBytes": "1"
					},
					"t_mapping(t_address,t_bool)": {
						"encoding": "mapping",
						"key": "t_address",
						"label": "mapping(address => bool)",
						"numberOfBytes": "32",
						"value": "t_bool"
					},
					"t_mapping(t_string_memory_ptr,t_uint256)": {
						"encoding": "mapping",
						"key": "t_string_memory_ptr",
						"label": "mapping(string => uint256)",
						"numberOfBytes": "32",
						"value": "t_uint256"
					},
					"t_string_memory_ptr": {
						"encoding": "bytes",
						"label": "string",
						"numberOfBytes": "32"
					},
					"t_string_storage": {
						"encoding": "bytes",
						"label": "string",
						"numberOfBytes": "32"
					},
					"t_uint256": {
						"encoding": "inplace",
						"label": "uint256",
						"numberOfBytes": "32"
					}
				}
			},
			"userdoc": {
				"kind": "user",
				"methods": {},
				"version": 1
			}
		}
	}
}